{"abi":[{"type":"constructor","inputs":[],"stateMutability":"nonpayable"},{"type":"receive","stateMutability":"payable"},{"type":"function","name":"_accountValidation","inputs":[{"name":"opIndex","type":"uint256","internalType":"uint256"},{"name":"userOp","type":"tuple","internalType":"struct PackedUserOperation","components":[{"name":"sender","type":"address","internalType":"address"},{"name":"nonce","type":"uint256","internalType":"uint256"},{"name":"initCode","type":"bytes","internalType":"bytes"},{"name":"callData","type":"bytes","internalType":"bytes"},{"name":"accountGasLimits","type":"bytes32","internalType":"bytes32"},{"name":"preVerificationGas","type":"uint256","internalType":"uint256"},{"name":"gasFees","type":"bytes32","internalType":"bytes32"},{"name":"paymasterAndData","type":"bytes","internalType":"bytes"},{"name":"signature","type":"bytes","internalType":"bytes"}]},{"name":"outOpInfo","type":"tuple","internalType":"struct EntryPoint.UserOpInfo","components":[{"name":"mUserOp","type":"tuple","internalType":"struct EntryPoint.MemoryUserOp","components":[{"name":"sender","type":"address","internalType":"address"},{"name":"nonce","type":"uint256","internalType":"uint256"},{"name":"verificationGasLimit","type":"uint256","internalType":"uint256"},{"name":"callGasLimit","type":"uint256","internalType":"uint256"},{"name":"paymasterVerificationGasLimit","type":"uint256","internalType":"uint256"},{"name":"paymasterPostOpGasLimit","type":"uint256","internalType":"uint256"},{"name":"preVerificationGas","type":"uint256","internalType":"uint256"},{"name":"paymaster","type":"address","internalType":"address"},{"name":"maxFeePerGas","type":"uint256","internalType":"uint256"},{"name":"maxPriorityFeePerGas","type":"uint256","internalType":"uint256"}]},{"name":"userOpHash","type":"bytes32","internalType":"bytes32"},{"name":"prefund","type":"uint256","internalType":"uint256"},{"name":"contextOffset","type":"uint256","internalType":"uint256"},{"name":"preOpGas","type":"uint256","internalType":"uint256"}]}],"outputs":[{"name":"validationData","type":"uint256","internalType":"uint256"},{"name":"paymasterValidationData","type":"uint256","internalType":"uint256"},{"name":"paymasterVerificationGasLimit","type":"uint256","internalType":"uint256"}],"stateMutability":"nonpayable"},{"type":"function","name":"_paymasterValidation","inputs":[{"name":"opIndex","type":"uint256","internalType":"uint256"},{"name":"userOp","type":"tuple","internalType":"struct PackedUserOperation","components":[{"name":"sender","type":"address","internalType":"address"},{"name":"nonce","type":"uint256","internalType":"uint256"},{"name":"initCode","type":"bytes","internalType":"bytes"},{"name":"callData","type":"bytes","internalType":"bytes"},{"name":"accountGasLimits","type":"bytes32","internalType":"bytes32"},{"name":"preVerificationGas","type":"uint256","internalType":"uint256"},{"name":"gasFees","type":"bytes32","internalType":"bytes32"},{"name":"paymasterAndData","type":"bytes","internalType":"bytes"},{"name":"signature","type":"bytes","internalType":"bytes"}]},{"name":"outOpInfo","type":"tuple","internalType":"struct EntryPoint.UserOpInfo","components":[{"name":"mUserOp","type":"tuple","internalType":"struct EntryPoint.MemoryUserOp","components":[{"name":"sender","type":"address","internalType":"address"},{"name":"nonce","type":"uint256","internalType":"uint256"},{"name":"verificationGasLimit","type":"uint256","internalType":"uint256"},{"name":"callGasLimit","type":"uint256","internalType":"uint256"},{"name":"paymasterVerificationGasLimit","type":"uint256","internalType":"uint256"},{"name":"paymasterPostOpGasLimit","type":"uint256","internalType":"uint256"},{"name":"preVerificationGas","type":"uint256","internalType":"uint256"},{"name":"paymaster","type":"address","internalType":"address"},{"name":"maxFeePerGas","type":"uint256","internalType":"uint256"},{"name":"maxPriorityFeePerGas","type":"uint256","internalType":"uint256"}]},{"name":"userOpHash","type":"bytes32","internalType":"bytes32"},{"name":"prefund","type":"uint256","internalType":"uint256"},{"name":"contextOffset","type":"uint256","internalType":"uint256"},{"name":"preOpGas","type":"uint256","internalType":"uint256"}]}],"outputs":[{"name":"validationData","type":"uint256","internalType":"uint256"},{"name":"paymasterValidationData","type":"uint256","internalType":"uint256"},{"name":"paymasterVerificationGasLimit","type":"uint256","internalType":"uint256"}],"stateMutability":"nonpayable"},{"type":"function","name":"_validatePrepayment","inputs":[{"name":"opIndex","type":"uint256","internalType":"uint256"},{"name":"userOp","type":"tuple","internalType":"struct PackedUserOperation","components":[{"name":"sender","type":"address","internalType":"address"},{"name":"nonce","type":"uint256","internalType":"uint256"},{"name":"initCode","type":"bytes","internalType":"bytes"},{"name":"callData","type":"bytes","internalType":"bytes"},{"name":"accountGasLimits","type":"bytes32","internalType":"bytes32"},{"name":"preVerificationGas","type":"uint256","internalType":"uint256"},{"name":"gasFees","type":"bytes32","internalType":"bytes32"},{"name":"paymasterAndData","type":"bytes","internalType":"bytes"},{"name":"signature","type":"bytes","internalType":"bytes"}]},{"name":"outOpInfo","type":"tuple","internalType":"struct EntryPoint.UserOpInfo","components":[{"name":"mUserOp","type":"tuple","internalType":"struct EntryPoint.MemoryUserOp","components":[{"name":"sender","type":"address","internalType":"address"},{"name":"nonce","type":"uint256","internalType":"uint256"},{"name":"verificationGasLimit","type":"uint256","internalType":"uint256"},{"name":"callGasLimit","type":"uint256","internalType":"uint256"},{"name":"paymasterVerificationGasLimit","type":"uint256","internalType":"uint256"},{"name":"paymasterPostOpGasLimit","type":"uint256","internalType":"uint256"},{"name":"preVerificationGas","type":"uint256","internalType":"uint256"},{"name":"paymaster","type":"address","internalType":"address"},{"name":"maxFeePerGas","type":"uint256","internalType":"uint256"},{"name":"maxPriorityFeePerGas","type":"uint256","internalType":"uint256"}]},{"name":"userOpHash","type":"bytes32","internalType":"bytes32"},{"name":"prefund","type":"uint256","internalType":"uint256"},{"name":"contextOffset","type":"uint256","internalType":"uint256"},{"name":"preOpGas","type":"uint256","internalType":"uint256"}]},{"name":"validatePaymasterPrepayment","type":"bool","internalType":"bool"}],"outputs":[{"name":"validationData","type":"uint256","internalType":"uint256"},{"name":"paymasterValidationData","type":"uint256","internalType":"uint256"},{"name":"paymasterVerificationGasLimit","type":"uint256","internalType":"uint256"}],"stateMutability":"nonpayable"},{"type":"function","name":"addStake","inputs":[{"name":"unstakeDelaySec","type":"uint32","internalType":"uint32"}],"outputs":[],"stateMutability":"payable"},{"type":"function","name":"balanceOf","inputs":[{"name":"account","type":"address","internalType":"address"}],"outputs":[{"name":"","type":"uint256","internalType":"uint256"}],"stateMutability":"view"},{"type":"function","name":"binarySearchCallGas","inputs":[{"name":"queuedUserOps","type":"tuple[]","internalType":"struct PackedUserOperation[]","components":[{"name":"sender","type":"address","internalType":"address"},{"name":"nonce","type":"uint256","internalType":"uint256"},{"name":"initCode","type":"bytes","internalType":"bytes"},{"name":"callData","type":"bytes","internalType":"bytes"},{"name":"accountGasLimits","type":"bytes32","internalType":"bytes32"},{"name":"preVerificationGas","type":"uint256","internalType":"uint256"},{"name":"gasFees","type":"bytes32","internalType":"bytes32"},{"name":"paymasterAndData","type":"bytes","internalType":"bytes"},{"name":"signature","type":"bytes","internalType":"bytes"}]},{"name":"targetUserOp","type":"tuple","internalType":"struct PackedUserOperation","components":[{"name":"sender","type":"address","internalType":"address"},{"name":"nonce","type":"uint256","internalType":"uint256"},{"name":"initCode","type":"bytes","internalType":"bytes"},{"name":"callData","type":"bytes","internalType":"bytes"},{"name":"accountGasLimits","type":"bytes32","internalType":"bytes32"},{"name":"preVerificationGas","type":"uint256","internalType":"uint256"},{"name":"gasFees","type":"bytes32","internalType":"bytes32"},{"name":"paymasterAndData","type":"bytes","internalType":"bytes"},{"name":"signature","type":"bytes","internalType":"bytes"}]},{"name":"entryPoint","type":"address","internalType":"address"},{"name":"initialMinGas","type":"uint256","internalType":"uint256"},{"name":"toleranceDelta","type":"uint256","internalType":"uint256"},{"name":"gasAllowance","type":"uint256","internalType":"uint256"}],"outputs":[{"name":"","type":"tuple","internalType":"struct IEntryPointSimulations.BinarySearchResult","components":[{"name":"resultType","type":"uint8","internalType":"enum IEntryPointSimulations.BinarySearchResultType"},{"name":"successData","type":"tuple","internalType":"struct IEntryPointSimulations.BinarySearchSuccess","components":[{"name":"gasUsed","type":"uint256","internalType":"uint256"},{"name":"success","type":"bool","internalType":"bool"},{"name":"returnData","type":"bytes","internalType":"bytes"}]},{"name":"outOfGasData","type":"tuple","internalType":"struct IEntryPointSimulations.BinarySearchOutOfGas","components":[{"name":"optimalGas","type":"uint256","internalType":"uint256"},{"name":"minGas","type":"uint256","internalType":"uint256"},{"name":"maxGas","type":"uint256","internalType":"uint256"}]}]}],"stateMutability":"nonpayable"},{"type":"function","name":"binarySearchPaymasterVerificationGas","inputs":[{"name":"queuedUserOps","type":"tuple[]","internalType":"struct PackedUserOperation[]","components":[{"name":"sender","type":"address","internalType":"address"},{"name":"nonce","type":"uint256","internalType":"uint256"},{"name":"initCode","type":"bytes","internalType":"bytes"},{"name":"callData","type":"bytes","internalType":"bytes"},{"name":"accountGasLimits","type":"bytes32","internalType":"bytes32"},{"name":"preVerificationGas","type":"uint256","internalType":"uint256"},{"name":"gasFees","type":"bytes32","internalType":"bytes32"},{"name":"paymasterAndData","type":"bytes","internalType":"bytes"},{"name":"signature","type":"bytes","internalType":"bytes"}]},{"name":"targetUserOp","type":"tuple","internalType":"struct PackedUserOperation","components":[{"name":"sender","type":"address","internalType":"address"},{"name":"nonce","type":"uint256","internalType":"uint256"},{"name":"initCode","type":"bytes","internalType":"bytes"},{"name":"callData","type":"bytes","internalType":"bytes"},{"name":"accountGasLimits","type":"bytes32","internalType":"bytes32"},{"name":"preVerificationGas","type":"uint256","internalType":"uint256"},{"name":"gasFees","type":"bytes32","internalType":"bytes32"},{"name":"paymasterAndData","type":"bytes","internalType":"bytes"},{"name":"signature","type":"bytes","internalType":"bytes"}]},{"name":"entryPoint","type":"address","internalType":"address"},{"name":"initialMinGas","type":"uint256","internalType":"uint256"},{"name":"toleranceDelta","type":"uint256","internalType":"uint256"},{"name":"gasAllowance","type":"uint256","internalType":"uint256"}],"outputs":[{"name":"","type":"tuple","internalType":"struct IEntryPointSimulations.BinarySearchResult","components":[{"name":"resultType","type":"uint8","internalType":"enum IEntryPointSimulations.BinarySearchResultType"},{"name":"successData","type":"tuple","internalType":"struct IEntryPointSimulations.BinarySearchSuccess","components":[{"name":"gasUsed","type":"uint256","internalType":"uint256"},{"name":"success","type":"bool","internalType":"bool"},{"name":"returnData","type":"bytes","internalType":"bytes"}]},{"name":"outOfGasData","type":"tuple","internalType":"struct IEntryPointSimulations.BinarySearchOutOfGas","components":[{"name":"optimalGas","type":"uint256","internalType":"uint256"},{"name":"minGas","type":"uint256","internalType":"uint256"},{"name":"maxGas","type":"uint256","internalType":"uint256"}]}]}],"stateMutability":"nonpayable"},{"type":"function","name":"binarySearchVerificationGas","inputs":[{"name":"queuedUserOps","type":"tuple[]","internalType":"struct PackedUserOperation[]","components":[{"name":"sender","type":"address","internalType":"address"},{"name":"nonce","type":"uint256","internalType":"uint256"},{"name":"initCode","type":"bytes","internalType":"bytes"},{"name":"callData","type":"bytes","internalType":"bytes"},{"name":"accountGasLimits","type":"bytes32","internalType":"bytes32"},{"name":"preVerificationGas","type":"uint256","internalType":"uint256"},{"name":"gasFees","type":"bytes32","internalType":"bytes32"},{"name":"paymasterAndData","type":"bytes","internalType":"bytes"},{"name":"signature","type":"bytes","internalType":"bytes"}]},{"name":"targetUserOp","type":"tuple","internalType":"struct PackedUserOperation","components":[{"name":"sender","type":"address","internalType":"address"},{"name":"nonce","type":"uint256","internalType":"uint256"},{"name":"initCode","type":"bytes","internalType":"bytes"},{"name":"callData","type":"bytes","internalType":"bytes"},{"name":"accountGasLimits","type":"bytes32","internalType":"bytes32"},{"name":"preVerificationGas","type":"uint256","internalType":"uint256"},{"name":"gasFees","type":"bytes32","internalType":"bytes32"},{"name":"paymasterAndData","type":"bytes","internalType":"bytes"},{"name":"signature","type":"bytes","internalType":"bytes"}]},{"name":"entryPoint","type":"address","internalType":"address"},{"name":"initialMinGas","type":"uint256","internalType":"uint256"},{"name":"toleranceDelta","type":"uint256","internalType":"uint256"},{"name":"gasAllowance","type":"uint256","internalType":"uint256"}],"outputs":[{"name":"","type":"tuple","internalType":"struct IEntryPointSimulations.BinarySearchResult","components":[{"name":"resultType","type":"uint8","internalType":"enum IEntryPointSimulations.BinarySearchResultType"},{"name":"successData","type":"tuple","internalType":"struct IEntryPointSimulations.BinarySearchSuccess","components":[{"name":"gasUsed","type":"uint256","internalType":"uint256"},{"name":"success","type":"bool","internalType":"bool"},{"name":"returnData","type":"bytes","internalType":"bytes"}]},{"name":"outOfGasData","type":"tuple","internalType":"struct IEntryPointSimulations.BinarySearchOutOfGas","components":[{"name":"optimalGas","type":"uint256","internalType":"uint256"},{"name":"minGas","type":"uint256","internalType":"uint256"},{"name":"maxGas","type":"uint256","internalType":"uint256"}]}]}],"stateMutability":"nonpayable"},{"type":"function","name":"delegateAndRevert","inputs":[{"name":"target","type":"address","internalType":"address"},{"name":"data","type":"bytes","internalType":"bytes"}],"outputs":[],"stateMutability":"nonpayable"},{"type":"function","name":"depositTo","inputs":[{"name":"account","type":"address","internalType":"address"}],"outputs":[],"stateMutability":"payable"},{"type":"function","name":"eip712Domain","inputs":[],"outputs":[{"name":"fields","type":"bytes1","internalType":"bytes1"},{"name":"name","type":"string","internalType":"string"},{"name":"version","type":"string","internalType":"string"},{"name":"chainId","type":"uint256","internalType":"uint256"},{"name":"verifyingContract","type":"address","internalType":"address"},{"name":"salt","type":"bytes32","internalType":"bytes32"},{"name":"extensions","type":"uint256[]","internalType":"uint256[]"}],"stateMutability":"view"},{"type":"function","name":"getDepositInfo","inputs":[{"name":"account","type":"address","internalType":"address"}],"outputs":[{"name":"info","type":"tuple","internalType":"struct IStakeManager.DepositInfo","components":[{"name":"deposit","type":"uint256","internalType":"uint256"},{"name":"staked","type":"bool","internalType":"bool"},{"name":"stake","type":"uint112","internalType":"uint112"},{"name":"unstakeDelaySec","type":"uint32","internalType":"uint32"},{"name":"withdrawTime","type":"uint48","internalType":"uint48"}]}],"stateMutability":"view"},{"type":"function","name":"getDomainSeparatorV4","inputs":[],"outputs":[{"name":"","type":"bytes32","internalType":"bytes32"}],"stateMutability":"view"},{"type":"function","name":"getNonce","inputs":[{"name":"sender","type":"address","internalType":"address"},{"name":"key","type":"uint192","internalType":"uint192"}],"outputs":[{"name":"nonce","type":"uint256","internalType":"uint256"}],"stateMutability":"view"},{"type":"function","name":"getPackedUserOpTypeHash","inputs":[],"outputs":[{"name":"","type":"bytes32","internalType":"bytes32"}],"stateMutability":"pure"},{"type":"function","name":"getSenderAddress","inputs":[{"name":"initCode","type":"bytes","internalType":"bytes"}],"outputs":[],"stateMutability":"nonpayable"},{"type":"function","name":"getUserOpHash","inputs":[{"name":"userOp","type":"tuple","internalType":"struct PackedUserOperation","components":[{"name":"sender","type":"address","internalType":"address"},{"name":"nonce","type":"uint256","internalType":"uint256"},{"name":"initCode","type":"bytes","internalType":"bytes"},{"name":"callData","type":"bytes","internalType":"bytes"},{"name":"accountGasLimits","type":"bytes32","internalType":"bytes32"},{"name":"preVerificationGas","type":"uint256","internalType":"uint256"},{"name":"gasFees","type":"bytes32","internalType":"bytes32"},{"name":"paymasterAndData","type":"bytes","internalType":"bytes"},{"name":"signature","type":"bytes","internalType":"bytes"}]}],"outputs":[{"name":"","type":"bytes32","internalType":"bytes32"}],"stateMutability":"view"},{"type":"function","name":"handleAggregatedOps","inputs":[{"name":"","type":"tuple[]","internalType":"struct IEntryPoint.UserOpsPerAggregator[]","components":[{"name":"userOps","type":"tuple[]","internalType":"struct PackedUserOperation[]","components":[{"name":"sender","type":"address","internalType":"address"},{"name":"nonce","type":"uint256","internalType":"uint256"},{"name":"initCode","type":"bytes","internalType":"bytes"},{"name":"callData","type":"bytes","internalType":"bytes"},{"name":"accountGasLimits","type":"bytes32","internalType":"bytes32"},{"name":"preVerificationGas","type":"uint256","internalType":"uint256"},{"name":"gasFees","type":"bytes32","internalType":"bytes32"},{"name":"paymasterAndData","type":"bytes","internalType":"bytes"},{"name":"signature","type":"bytes","internalType":"bytes"}]},{"name":"aggregator","type":"address","internalType":"contract IAggregator"},{"name":"signature","type":"bytes","internalType":"bytes"}]},{"name":"","type":"address","internalType":"address payable"}],"outputs":[],"stateMutability":"nonpayable"},{"type":"function","name":"handleOps","inputs":[{"name":"","type":"tuple[]","internalType":"struct PackedUserOperation[]","components":[{"name":"sender","type":"address","internalType":"address"},{"name":"nonce","type":"uint256","internalType":"uint256"},{"name":"initCode","type":"bytes","internalType":"bytes"},{"name":"callData","type":"bytes","internalType":"bytes"},{"name":"accountGasLimits","type":"bytes32","internalType":"bytes32"},{"name":"preVerificationGas","type":"uint256","internalType":"uint256"},{"name":"gasFees","type":"bytes32","internalType":"bytes32"},{"name":"paymasterAndData","type":"bytes","internalType":"bytes"},{"name":"signature","type":"bytes","internalType":"bytes"}]},{"name":"","type":"address","internalType":"address payable"}],"outputs":[],"stateMutability":"nonpayable"},{"type":"function","name":"incrementNonce","inputs":[{"name":"key","type":"uint192","internalType":"uint192"}],"outputs":[],"stateMutability":"nonpayable"},{"type":"function","name":"innerHandleOp","inputs":[{"name":"callData","type":"bytes","internalType":"bytes"},{"name":"opInfo","type":"tuple","internalType":"struct EntryPoint.UserOpInfo","components":[{"name":"mUserOp","type":"tuple","internalType":"struct EntryPoint.MemoryUserOp","components":[{"name":"sender","type":"address","internalType":"address"},{"name":"nonce","type":"uint256","internalType":"uint256"},{"name":"verificationGasLimit","type":"uint256","internalType":"uint256"},{"name":"callGasLimit","type":"uint256","internalType":"uint256"},{"name":"paymasterVerificationGasLimit","type":"uint256","internalType":"uint256"},{"name":"paymasterPostOpGasLimit","type":"uint256","internalType":"uint256"},{"name":"preVerificationGas","type":"uint256","internalType":"uint256"},{"name":"paymaster","type":"address","internalType":"address"},{"name":"maxFeePerGas","type":"uint256","internalType":"uint256"},{"name":"maxPriorityFeePerGas","type":"uint256","internalType":"uint256"}]},{"name":"userOpHash","type":"bytes32","internalType":"bytes32"},{"name":"prefund","type":"uint256","internalType":"uint256"},{"name":"contextOffset","type":"uint256","internalType":"uint256"},{"name":"preOpGas","type":"uint256","internalType":"uint256"}]},{"name":"context","type":"bytes","internalType":"bytes"},{"name":"preGas","type":"uint256","internalType":"uint256"}],"outputs":[{"name":"actualGasCost","type":"uint256","internalType":"uint256"},{"name":"paymasterPostOpGasLimit","type":"uint256","internalType":"uint256"}],"stateMutability":"nonpayable"},{"type":"function","name":"nonceSequenceNumber","inputs":[{"name":"","type":"address","internalType":"address"},{"name":"","type":"uint192","internalType":"uint192"}],"outputs":[{"name":"","type":"uint256","internalType":"uint256"}],"stateMutability":"view"},{"type":"function","name":"senderCreator","inputs":[],"outputs":[{"name":"","type":"address","internalType":"contract ISenderCreator"}],"stateMutability":"view"},{"type":"function","name":"simulateCall","inputs":[{"name":"entryPoint","type":"address","internalType":"address"},{"name":"payload","type":"bytes","internalType":"bytes"},{"name":"gas","type":"uint256","internalType":"uint256"}],"outputs":[{"name":"success","type":"bool","internalType":"bool"},{"name":"result","type":"bytes","internalType":"bytes"}],"stateMutability":"nonpayable"},{"type":"function","name":"simulateCallAndRevert","inputs":[{"name":"target","type":"address","internalType":"address"},{"name":"data","type":"bytes","internalType":"bytes"},{"name":"gas","type":"uint256","internalType":"uint256"}],"outputs":[],"stateMutability":"nonpayable"},{"type":"function","name":"simulateHandleOp","inputs":[{"name":"queuedUserOps","type":"tuple[]","internalType":"struct PackedUserOperation[]","components":[{"name":"sender","type":"address","internalType":"address"},{"name":"nonce","type":"uint256","internalType":"uint256"},{"name":"initCode","type":"bytes","internalType":"bytes"},{"name":"callData","type":"bytes","internalType":"bytes"},{"name":"accountGasLimits","type":"bytes32","internalType":"bytes32"},{"name":"preVerificationGas","type":"uint256","internalType":"uint256"},{"name":"gasFees","type":"bytes32","internalType":"bytes32"},{"name":"paymasterAndData","type":"bytes","internalType":"bytes"},{"name":"signature","type":"bytes","internalType":"bytes"}]},{"name":"targetUserOp","type":"tuple","internalType":"struct PackedUserOperation","components":[{"name":"sender","type":"address","internalType":"address"},{"name":"nonce","type":"uint256","internalType":"uint256"},{"name":"initCode","type":"bytes","internalType":"bytes"},{"name":"callData","type":"bytes","internalType":"bytes"},{"name":"accountGasLimits","type":"bytes32","internalType":"bytes32"},{"name":"preVerificationGas","type":"uint256","internalType":"uint256"},{"name":"gasFees","type":"bytes32","internalType":"bytes32"},{"name":"paymasterAndData","type":"bytes","internalType":"bytes"},{"name":"signature","type":"bytes","internalType":"bytes"}]}],"outputs":[{"name":"","type":"tuple","internalType":"struct IEntryPointSimulations.ExecutionResult","components":[{"name":"preOpGas","type":"uint256","internalType":"uint256"},{"name":"paid","type":"uint256","internalType":"uint256"},{"name":"accountValidationData","type":"uint256","internalType":"uint256"},{"name":"paymasterValidationData","type":"uint256","internalType":"uint256"},{"name":"paymasterVerificationGasLimit","type":"uint256","internalType":"uint256"},{"name":"paymasterPostOpGasLimit","type":"uint256","internalType":"uint256"},{"name":"targetSuccess","type":"bool","internalType":"bool"},{"name":"targetResult","type":"bytes","internalType":"bytes"}]}],"stateMutability":"nonpayable"},{"type":"function","name":"simulateHandleOpSingle","inputs":[{"name":"op","type":"tuple","internalType":"struct PackedUserOperation","components":[{"name":"sender","type":"address","internalType":"address"},{"name":"nonce","type":"uint256","internalType":"uint256"},{"name":"initCode","type":"bytes","internalType":"bytes"},{"name":"callData","type":"bytes","internalType":"bytes"},{"name":"accountGasLimits","type":"bytes32","internalType":"bytes32"},{"name":"preVerificationGas","type":"uint256","internalType":"uint256"},{"name":"gasFees","type":"bytes32","internalType":"bytes32"},{"name":"paymasterAndData","type":"bytes","internalType":"bytes"},{"name":"signature","type":"bytes","internalType":"bytes"}]},{"name":"target","type":"address","internalType":"address"},{"name":"targetCallData","type":"bytes","internalType":"bytes"}],"outputs":[{"name":"","type":"tuple","internalType":"struct IEntryPointSimulations.ExecutionResult","components":[{"name":"preOpGas","type":"uint256","internalType":"uint256"},{"name":"paid","type":"uint256","internalType":"uint256"},{"name":"accountValidationData","type":"uint256","internalType":"uint256"},{"name":"paymasterValidationData","type":"uint256","internalType":"uint256"},{"name":"paymasterVerificationGasLimit","type":"uint256","internalType":"uint256"},{"name":"paymasterPostOpGasLimit","type":"uint256","internalType":"uint256"},{"name":"targetSuccess","type":"bool","internalType":"bool"},{"name":"targetResult","type":"bytes","internalType":"bytes"}]}],"stateMutability":"nonpayable"},{"type":"function","name":"simulateValidation","inputs":[{"name":"queuedUserOps","type":"tuple[]","internalType":"struct PackedUserOperation[]","components":[{"name":"sender","type":"address","internalType":"address"},{"name":"nonce","type":"uint256","internalType":"uint256"},{"name":"initCode","type":"bytes","internalType":"bytes"},{"name":"callData","type":"bytes","internalType":"bytes"},{"name":"accountGasLimits","type":"bytes32","internalType":"bytes32"},{"name":"preVerificationGas","type":"uint256","internalType":"uint256"},{"name":"gasFees","type":"bytes32","internalType":"bytes32"},{"name":"paymasterAndData","type":"bytes","internalType":"bytes"},{"name":"signature","type":"bytes","internalType":"bytes"}]},{"name":"targetUserOp","type":"tuple","internalType":"struct PackedUserOperation","components":[{"name":"sender","type":"address","internalType":"address"},{"name":"nonce","type":"uint256","internalType":"uint256"},{"name":"initCode","type":"bytes","internalType":"bytes"},{"name":"callData","type":"bytes","internalType":"bytes"},{"name":"accountGasLimits","type":"bytes32","internalType":"bytes32"},{"name":"preVerificationGas","type":"uint256","internalType":"uint256"},{"name":"gasFees","type":"bytes32","internalType":"bytes32"},{"name":"paymasterAndData","type":"bytes","internalType":"bytes"},{"name":"signature","type":"bytes","internalType":"bytes"}]}],"outputs":[{"name":"","type":"tuple","internalType":"struct IEntryPointSimulations.ValidationResult","components":[{"name":"returnInfo","type":"tuple","internalType":"struct IEntryPoint.ReturnInfo","components":[{"name":"preOpGas","type":"uint256","internalType":"uint256"},{"name":"prefund","type":"uint256","internalType":"uint256"},{"name":"accountValidationData","type":"uint256","internalType":"uint256"},{"name":"paymasterValidationData","type":"uint256","internalType":"uint256"},{"name":"paymasterContext","type":"bytes","internalType":"bytes"}]},{"name":"senderInfo","type":"tuple","internalType":"struct IStakeManager.StakeInfo","components":[{"name":"stake","type":"uint256","internalType":"uint256"},{"name":"unstakeDelaySec","type":"uint256","internalType":"uint256"}]},{"name":"factoryInfo","type":"tuple","internalType":"struct IStakeManager.StakeInfo","components":[{"name":"stake","type":"uint256","internalType":"uint256"},{"name":"unstakeDelaySec","type":"uint256","internalType":"uint256"}]},{"name":"paymasterInfo","type":"tuple","internalType":"struct IStakeManager.StakeInfo","components":[{"name":"stake","type":"uint256","internalType":"uint256"},{"name":"unstakeDelaySec","type":"uint256","internalType":"uint256"}]},{"name":"aggregatorInfo","type":"tuple","internalType":"struct IEntryPoint.AggregatorStakeInfo","components":[{"name":"aggregator","type":"address","internalType":"address"},{"name":"stakeInfo","type":"tuple","internalType":"struct IStakeManager.StakeInfo","components":[{"name":"stake","type":"uint256","internalType":"uint256"},{"name":"unstakeDelaySec","type":"uint256","internalType":"uint256"}]}]}]}],"stateMutability":"nonpayable"},{"type":"function","name":"simulateValidation","inputs":[{"name":"userOp","type":"tuple","internalType":"struct PackedUserOperation","components":[{"name":"sender","type":"address","internalType":"address"},{"name":"nonce","type":"uint256","internalType":"uint256"},{"name":"initCode","type":"bytes","internalType":"bytes"},{"name":"callData","type":"bytes","internalType":"bytes"},{"name":"accountGasLimits","type":"bytes32","internalType":"bytes32"},{"name":"preVerificationGas","type":"uint256","internalType":"uint256"},{"name":"gasFees","type":"bytes32","internalType":"bytes32"},{"name":"paymasterAndData","type":"bytes","internalType":"bytes"},{"name":"signature","type":"bytes","internalType":"bytes"}]}],"outputs":[{"name":"","type":"tuple","internalType":"struct IEntryPointSimulations.ValidationResult","components":[{"name":"returnInfo","type":"tuple","internalType":"struct IEntryPoint.ReturnInfo","components":[{"name":"preOpGas","type":"uint256","internalType":"uint256"},{"name":"prefund","type":"uint256","internalType":"uint256"},{"name":"accountValidationData","type":"uint256","internalType":"uint256"},{"name":"paymasterValidationData","type":"uint256","internalType":"uint256"},{"name":"paymasterContext","type":"bytes","internalType":"bytes"}]},{"name":"senderInfo","type":"tuple","internalType":"struct IStakeManager.StakeInfo","components":[{"name":"stake","type":"uint256","internalType":"uint256"},{"name":"unstakeDelaySec","type":"uint256","internalType":"uint256"}]},{"name":"factoryInfo","type":"tuple","internalType":"struct IStakeManager.StakeInfo","components":[{"name":"stake","type":"uint256","internalType":"uint256"},{"name":"unstakeDelaySec","type":"uint256","internalType":"uint256"}]},{"name":"paymasterInfo","type":"tuple","internalType":"struct IStakeManager.StakeInfo","components":[{"name":"stake","type":"uint256","internalType":"uint256"},{"name":"unstakeDelaySec","type":"uint256","internalType":"uint256"}]},{"name":"aggregatorInfo","type":"tuple","internalType":"struct IEntryPoint.AggregatorStakeInfo","components":[{"name":"aggregator","type":"address","internalType":"address"},{"name":"stakeInfo","type":"tuple","internalType":"struct IStakeManager.StakeInfo","components":[{"name":"stake","type":"uint256","internalType":"uint256"},{"name":"unstakeDelaySec","type":"uint256","internalType":"uint256"}]}]}]}],"stateMutability":"nonpayable"},{"type":"function","name":"unlockStake","inputs":[],"outputs":[],"stateMutability":"nonpayable"},{"type":"function","name":"withdrawStake","inputs":[{"name":"withdrawAddress","type":"address","internalType":"address payable"}],"outputs":[],"stateMutability":"nonpayable"},{"type":"function","name":"withdrawTo","inputs":[{"name":"withdrawAddress","type":"address","internalType":"address payable"},{"name":"withdrawAmount","type":"uint256","internalType":"uint256"}],"outputs":[],"stateMutability":"nonpayable"},{"type":"event","name":"AccountDeployed","inputs":[{"name":"userOpHash","type":"bytes32","indexed":true,"internalType":"bytes32"},{"name":"sender","type":"address","indexed":true,"internalType":"address"},{"name":"factory","type":"address","indexed":false,"internalType":"address"},{"name":"paymaster","type":"address","indexed":false,"internalType":"address"}],"anonymous":false},{"type":"event","name":"BeforeExecution","inputs":[],"anonymous":false},{"type":"event","name":"Deposited","inputs":[{"name":"account","type":"address","indexed":true,"internalType":"address"},{"name":"totalDeposit","type":"uint256","indexed":false,"internalType":"uint256"}],"anonymous":false},{"type":"event","name":"EIP712DomainChanged","inputs":[],"anonymous":false},{"type":"event","name":"PostOpRevertReason","inputs":[{"name":"userOpHash","type":"bytes32","indexed":true,"internalType":"bytes32"},{"name":"sender","type":"address","indexed":true,"internalType":"address"},{"name":"nonce","type":"uint256","indexed":false,"internalType":"uint256"},{"name":"revertReason","type":"bytes","indexed":false,"internalType":"bytes"}],"anonymous":false},{"type":"event","name":"SignatureAggregatorChanged","inputs":[{"name":"aggregator","type":"address","indexed":true,"internalType":"address"}],"anonymous":false},{"type":"event","name":"StakeLocked","inputs":[{"name":"account","type":"address","indexed":true,"internalType":"address"},{"name":"totalStaked","type":"uint256","indexed":false,"internalType":"uint256"},{"name":"unstakeDelaySec","type":"uint256","indexed":false,"internalType":"uint256"}],"anonymous":false},{"type":"event","name":"StakeUnlocked","inputs":[{"name":"account","type":"address","indexed":true,"internalType":"address"},{"name":"withdrawTime","type":"uint256","indexed":false,"internalType":"uint256"}],"anonymous":false},{"type":"event","name":"StakeWithdrawn","inputs":[{"name":"account","type":"address","indexed":true,"internalType":"address"},{"name":"withdrawAddress","type":"address","indexed":false,"internalType":"address"},{"name":"amount","type":"uint256","indexed":false,"internalType":"uint256"}],"anonymous":false},{"type":"event","name":"UserOperationEvent","inputs":[{"name":"userOpHash","type":"bytes32","indexed":true,"internalType":"bytes32"},{"name":"sender","type":"address","indexed":true,"internalType":"address"},{"name":"paymaster","type":"address","indexed":true,"internalType":"address"},{"name":"nonce","type":"uint256","indexed":false,"internalType":"uint256"},{"name":"success","type":"bool","indexed":false,"internalType":"bool"},{"name":"actualGasCost","type":"uint256","indexed":false,"internalType":"uint256"},{"name":"actualGasUsed","type":"uint256","indexed":false,"internalType":"uint256"}],"anonymous":false},{"type":"event","name":"UserOperationPrefundTooLow","inputs":[{"name":"userOpHash","type":"bytes32","indexed":true,"internalType":"bytes32"},{"name":"sender","type":"address","indexed":true,"internalType":"address"},{"name":"nonce","type":"uint256","indexed":false,"internalType":"uint256"}],"anonymous":false},{"type":"event","name":"UserOperationRevertReason","inputs":[{"name":"userOpHash","type":"bytes32","indexed":true,"internalType":"bytes32"},{"name":"sender","type":"address","indexed":true,"internalType":"address"},{"name":"nonce","type":"uint256","indexed":false,"internalType":"uint256"},{"name":"revertReason","type":"bytes","indexed":false,"internalType":"bytes"}],"anonymous":false},{"type":"event","name":"Withdrawn","inputs":[{"name":"account","type":"address","indexed":true,"internalType":"address"},{"name":"withdrawAddress","type":"address","indexed":false,"internalType":"address"},{"name":"amount","type":"uint256","indexed":false,"internalType":"uint256"}],"anonymous":false},{"type":"error","name":"CallPhaseReverted","inputs":[{"name":"reason","type":"bytes","internalType":"bytes"}]},{"type":"error","name":"DelegateAndRevert","inputs":[{"name":"success","type":"bool","internalType":"bool"},{"name":"ret","type":"bytes","internalType":"bytes"}]},{"type":"error","name":"FailedOp","inputs":[{"name":"opIndex","type":"uint256","internalType":"uint256"},{"name":"reason","type":"string","internalType":"string"}]},{"type":"error","name":"FailedOpWithRevert","inputs":[{"name":"opIndex","type":"uint256","internalType":"uint256"},{"name":"reason","type":"string","internalType":"string"},{"name":"inner","type":"bytes","internalType":"bytes"}]},{"type":"error","name":"InvalidShortString","inputs":[]},{"type":"error","name":"PostOpReverted","inputs":[{"name":"returnData","type":"bytes","internalType":"bytes"}]},{"type":"error","name":"ReentrancyGuardReentrantCall","inputs":[]},{"type":"error","name":"SenderAddressResult","inputs":[{"name":"sender","type":"address","internalType":"address"}]},{"type":"error","name":"SignatureValidationFailed","inputs":[{"name":"aggregator","type":"address","internalType":"address"}]},{"type":"error","name":"StringTooLong","inputs":[{"name":"str","type":"string","internalType":"string"}]},{"type":"error","name":"innerCallResult","inputs":[{"name":"remainingGas","type":"uint256","internalType":"uint256"}]}],"bytecode":{"object":"0x610180604052346101b8576040516100186040826101eb565b600781526020810190664552433433333760c81b82526040519161003d6040846101eb565b600183526020830191603160f81b83526100568161020e565b61012052610063846103a9565b61014052519020918260e05251902080610100524660a0526040519060208201927f8b73c3c69bb8fe3d512ecc4cf759cc79239f7b179b0ffacaa9a75d522b39400f8452604083015260608201524660808201523060a082015260a081526100cc60c0826101eb565b5190206080523060c05230610160526040516100e7816101bc565b5f815260208101905f8252806020604051610101816101bc565b5f81520152600480546001600160a01b0319169055516005555160065560405161567c90816104e28239608051816132ab015260a05181613368015260c0518161327c015260e051816132fa01526101005181613320015261012051816113630152610140518161138c0152610160518181816130bc015281816135050152818161355f01528181613747015281816137fb015281816138540152818161396401528181613a1801528181613a710152613b810152f35b5f80fd5b604081019081106001600160401b038211176101d757604052565b634e487b7160e01b5f52604160045260245ffd5b601f909101601f19168101906001600160401b038211908210176101d757604052565b908151602081105f14610288575090601f815111610248576020815191015160208210610239571790565b5f198260200360031b1b161790565b604460209160405192839163305a27a960e01b83528160048401528051918291826024860152018484015e5f828201840152601f01601f19168101030190fd5b6001600160401b0381116101d757600254600181811c9116801561039f575b602082101461038b57601f8111610358575b50602092601f82116001146102f757928192935f926102ec575b50508160011b915f199060031b1c19161760025560ff90565b015190505f806102d3565b601f1982169360025f52805f20915f5b8681106103405750836001959610610328575b505050811b0160025560ff90565b01515f1960f88460031b161c191690555f808061031a565b91926020600181928685015181550194019201610307565b60025f52601f60205f20910160051c810190601f830160051c015b81811061038057506102b9565b5f8155600101610373565b634e487b7160e01b5f52602260045260245ffd5b90607f16906102a7565b908151602081105f146103d4575090601f815111610248576020815191015160208210610239571790565b6001600160401b0381116101d757600354600181811c911680156104d7575b602082101461038b57601f81116104a4575b50602092601f821160011461044357928192935f92610438575b50508160011b915f199060031b1c19161760035560ff90565b015190505f8061041f565b601f1982169360035f52805f20915f5b86811061048c5750836001959610610474575b505050811b0160035560ff90565b01515f1960f88460031b161c191690555f8080610466565b91926020600181928685015181550194019201610453565b60035f52601f60205f20910160051c810190601f830160051c015b8181106104cc5750610405565b5f81556001016104bf565b90607f16906103f356fe60806040526004361015610022575b3615610018575f80fd5b6100206131b5565b005b5f3560e01c80630396cb601461021c57806309ccb880146102175780630bd28e3b146102125780630da826611461020d57806313c65a6e14610208578063154e58dc146102035780631b2e01b8146101fe578063205c2878146101f9578063212eccc6146101f457806321e60b37146101ef57806322cdde4c146101ea57806335567e1a146101e557806344403473146101e05780635287ce12146101db57806369683cfa146101d657806370a08231146101d1578063765e827f1461018b5780637da0c462146101cc57806384b0196e146101c7578063850aaf62146101c25780639b249f69146101bd578063acbe911e146101b8578063aec321fb146101b3578063af324943146101ae578063b760faf9146101a9578063bb9fe6bf146101a4578063c23a5cea1461019f578063c3bce0091461019a578063c579f76b14610195578063d72f259314610190578063dbed18e01461018b5763f7e426e80361000e57611b41565b6110fd565b611b21565b611a01565b6119e3565b6118c0565b61179d565b61177d565b61170c565b6116b5565b611581565b6114a0565b611464565b61134b565b611173565b611089565b610eb0565b610da3565b610d5e565b610c82565b610c6a565b610ba5565b610a5c565b610825565b6107c8565b61078e565b61076c565b610649565b61045a565b610419565b602036600319011261040b5760043563ffffffff81169081810361040b576104067fa5ae833d0bb1dcd632d98a8b70973e8516812898e19bf27b70071ebc8dc52c01916103e86102da6102ca610282336001600160a01b03165f525f60205260405f2090565b9661028e811515611b7a565b6102bb6001890154916102b46102ab8463ffffffff9060781c1690565b63ffffffff1690565b1115611bc5565b60081c6001600160701b031690565b6001600160701b03349116611c46565b946102e6861515611c53565b6102f96001600160701b03871115611c9e565b5461030261055e565b908152600160208201526001600160701b038616604082015263ffffffff831660608201525f6080820152610347336001600160a01b03165f525f60205260405f2090565b81518155602082015160019091018054604084015160608501516080909501517fffffffffffffff0000000000000000000000000000000000000000000000000090921660ff941515949094169390931760089390931b6effffffffffffffffffffffffffff00169290921760789390931b72ffffffff000000000000000000000000000000169290921760989190911b65ffffffffffff60981b16179055565b6040805194855263ffffffff90911660208501523393918291820190565b0390a2005b5f80fd5b5f91031261040b57565b3461040b575f36600319011261040b576020610433611cf4565b6001600160a01b0360405191168152f35b602435906001600160c01b038216820361040b57565b3461040b57602036600319011261040b576004356001600160c01b038116810361040b576104a490335f52600160205260405f20906001600160c01b03165f5260205260405f2090565b6104ae8154611d69565b9055005b634e487b7160e01b5f52604160045260245ffd5b60a0810190811067ffffffffffffffff8211176104e257604052565b6104b2565b6060810190811067ffffffffffffffff8211176104e257604052565b610140810190811067ffffffffffffffff8211176104e257604052565b6040810190811067ffffffffffffffff8211176104e257604052565b90601f8019910116810190811067ffffffffffffffff8211176104e257604052565b6040519061056d60a08361053c565b565b6040519061056d6101408361053c565b6040519061056d6101008361053c565b6040519061056d60408361053c565b6040519061056d60608361053c565b6040519061056d6101208361053c565b67ffffffffffffffff81116104e257601f01601f191660200190565b9291926105e5826105bd565b916105f3604051938461053c565b82948184528183011161040b578281602093845f960137010152565b9080601f8301121561040b5781602061062a933591016105d9565b90565b6001600160a01b0381160361040b57565b359061056d8261062d565b3461040b5761022036600319011261040b5760043567ffffffffffffffff811161040b5761067b90369060040161060f565b3660231901906101c0821261040b576101406040519261069a846104c6565b1261040b576106a761056f565b6106b1602461063e565b815260443560208201526064356040820152608435606082015260a435608082015260c43560a082015260e43560c08201526106ee61010461063e565b60e0820152610124356101008201526101443561012082015282526101643560208301526101843560408301526101a43560608301526101c43560808301526101e4359067ffffffffffffffff821161040b5760409261075561076093369060040161060f565b906102043592611d77565b82519182526020820152f35b3461040b575f36600319011261040b576020610786613272565b604051908152f35b3461040b575f36600319011261040b5760206040517f29a0bca4af4be3421398da00295e58e6d7de38cb492214754cb6a47507dd6f8e8152f35b3461040b57604036600319011261040b57602061081c6004356107ea8161062d565b6001600160a01b036107fa610444565b91165f526001835260405f20906001600160c01b03165f5260205260405f2090565b54604051908152f35b3461040b57604036600319011261040b576004356108428161062d565b602435335f525f60205260405f20918254908183116108c6575f8080856001600160a01b03829589610877846100209a611fea565b9055604080516001600160a01b03831681526020810185905233917fd1c19fbcd4551a5edfb66d43d2e337c04837afda3482b42bdf569a8fccdae5fb91a2165af16108c061200b565b5061203a565b606460405162461bcd60e51b815260206004820152601960248201527f576974686472617720616d6f756e7420746f6f206c61726765000000000000006044820152fd5b9181601f8401121561040b5782359167ffffffffffffffff831161040b576020808501948460051b01011161040b57565b908161012091031261040b5790565b60c060031982011261040b5760043567ffffffffffffffff811161040b57816109759160040161090a565b929092916024359067ffffffffffffffff821161040b576109989160040161093b565b906044356109a58161062d565b90606435906084359060a43590565b634e487b7160e01b5f52602160045260245ffd5b805180835260209291819084018484015e5f828201840152601f01601f1916010190565b6020815281516002811015610a5757602082015260a0604080610a3b8160208701518582880152805160c08801526020810151151560e0880152015160606101008701526101208601906109c8565b9401518051606085015260208101516080850152015191015290565b6109b4565b3461040b57610aa3610a97610a89610a733661094a565b9691949095610a839493946120a3565b5061338e565b610a928161341b565b6134ad565b604051918291826109ec565b0390f35b61020060031982011261040b576004359160243567ffffffffffffffff811161040b5782610ad79160040161093b565b916043190160446101c0821261040b5761014060405192610af7846104c6565b1261040b576101a090610b0861056f565b610b118261063e565b81526020820135602082015260408201356040820152606082013560608201526080820135608082015260a082013560a082015260c082013560c0820152610b5b60e0830161063e565b60e082015261010082013561010082015261012082013561012082015283526101408101356020840152610160810135604084015261018081013560608401520135608082015290565b3461040b576060610bb536610aa7565b905f926001600160a01b0360e08451610bce8186613c91565b610bd7856120e4565b6020870152610c0781610100604082015160608301510160808301510160a08301510160c0830151019101510290565b6040870152015116610c2b575b505050604051905f825260208201525f6040820152f35b610c359350613d7f565b90505f8080610c14565b602060031982011261040b576004359067ffffffffffffffff821161040b5761062a9160040161093b565b3461040b576020610786610c7d36610c3f565b6120e4565b3461040b57604036600319011261040b576020600435610ca18161062d565b6001600160a01b03610cb1610444565b91165f5260018252610cd78160405f20906001600160c01b03165f5260205260405f2090565b546040805192901b67ffffffffffffffff1916178152f35b9181601f8401121561040b5782359167ffffffffffffffff831161040b576020838186019501011161040b57565b90606060031983011261040b57600435610d368161062d565b916024359067ffffffffffffffff821161040b57610d5691600401610cef565b909160443590565b3461040b575f8080610d6f36610d1d565b939181604094929451948592833781018381520393f1610d8d61200b565b9015610d9557005b805190811561040b57602001fd5b3461040b57602036600319011261040b576001600160a01b03600435610dc88161062d565b5f6080604051610dd7816104c6565b8281528260208201528260408201528260608201520152165f525f602052610aa360405f20610e5c65ffffffffffff600160405193610e15856104c6565b80548552015460ff8116151560208501526001600160701b038160081c16604085015263ffffffff8160781c16606085015260981c16608083019065ffffffffffff169052565b60405191829182919091608065ffffffffffff8160a0840195805185526020810151151560208601526001600160701b03604082015116604086015263ffffffff6060820151166060860152015116910152565b3461040b57610ebe36610aa7565b9190915a92815193610ed08583613c91565b610ed9826120e4565b6020840152604085015193610f256effffffffffffffffffffffffffffff8660c08901511760608901511760808901511760a08901511761010089015117610120890151171115612223565b610f5086610100604082015160608301510160808301510160a08301510160c0830151019101510290565b94610f85610f81610f645a89898988614024565b986020610f7882516001600160a01b031690565b91015190614107565b1590565b611034575a830311610fe2575092610fc6926080610fc19360a0610fcd975a9560408601526060808601525a9003910135019101525a90611fea565b61226f565b6064900490565b604080519283525f6020840152820152606090f35b60408051631101335b60e11b815260048101929092526024820152601e60448201527f41413236206f76657220766572696669636174696f6e4761734c696d69740000606482015280608481015b0390fd5b61103082604051918291631101335b60e11b835260048301608091815260406020820152601a60408201527f4141323520696e76616c6964206163636f756e74206e6f6e636500000000000060608201520190565b3461040b57602036600319011261040b576001600160a01b036004356110ae8161062d565b165f525f602052602060405f2054604051908152f35b604060031982011261040b576004359067ffffffffffffffff821161040b576110ef9160040161090a565b909160243561062a8161062d565b3461040b5761110b366110c4565b91612285565b61012060e061062a936020845280516020850152602081015160408501526040810151606085015260608101516080850152608081015160a085015260a081015160c085015260c08101511515828501520151916101008082015201906109c8565b3461040b57606036600319011261040b5760043567ffffffffffffffff811161040b576111a490369060040161093b565b6024356111b08161062d565b6044359167ffffffffffffffff831161040b576111d4610aa393369060040161060f565b916111dd6122f7565b506111e6614155565b6111ee612450565b926111f88361341b565b6112028484612bd4565b9091945a6060880151886112196060850185612505565b94905f60038711611343575b7fffffffff0000000000000000000000000000000000000000000000000000000016638dd7712f60e01b0361132b57506112959450611290602083015191611282604051938492638dd7712f60e01b6020850152602484016142e3565b03601f19810183528261053c565b611d77565b9290965b5f946060966001600160a01b038116611300575b50509560806112e796970151976112c261057f565b988952602089015260408801526060870152608086015260a0850152151560c0840152565b60e08201526112f46141c9565b60405191829182611111565b6112e797505f92965090829182602083519301915af195608061132161200b565b97959197966112ad565b611290915061133b9536916105d9565b929096611299565b508035611225565b3461040b575f36600319011261040b5761140b6113877f0000000000000000000000000000000000000000000000000000000000000000615374565b6113b07f000000000000000000000000000000000000000000000000000000000000000061545a565b60206040516113bf828261053c565b5f81528161141981830194601f1983013687376040519788977f0f00000000000000000000000000000000000000000000000000000000000000895260e0858a015260e08901906109c8565b9087820360408901526109c8565b914660608701523060808701525f60a087015285830360c087015251918281520192915f5b82811061144d57505050500390f35b83518552869550938101939281019260010161143e565b3461040b57604036600319011261040b5761148060043561062d565b60243567ffffffffffffffff811161040b57610020903690600401610cef565b3461040b57602036600319011261040b5760043567ffffffffffffffff811161040b5760206114d6611506923690600401610cef565b906001600160a01b036114e7611cf4565b16905f604051809681958294632b870d1b60e11b8452600484016124f4565b03925af1801561157c576001600160a01b03915f9161154d575b507f6ca7b806000000000000000000000000000000000000000000000000000000005f521660045260245ffd5b61156f915060203d602011611575575b611567818361053c565b8101906124bf565b5f611520565b503d61155d565b611ce9565b3461040b57610aa3610a976115953661094a565b95949094939193612585565b604060031982011261040b5760043567ffffffffffffffff811161040b57816115cc9160040161090a565b929092916024359067ffffffffffffffff821161040b5761062a9160040161093b565b61062a9060208152610100608061164881865161014060208701528051610160870152602081015161018087015260408101516101a087015260608101516101c0870152015160a06101e08601526102008501906109c8565b60208087015180516040870152015160608501529461167860408201518386019060208091805184520151910152565b6060810151805160c08601526020015160e0850152015191019080516001600160a01b031682526020908101518051828401520151604090910152565b3461040b576116c3366115a1565b91906116cd612652565b505f5b8181106116ef57610aa36116e3856129c0565b604051918291826115ef565b8061170561170060019385876126e8565b6129c0565b50016116d0565b3461040b5761171a366115a1565b91906117246122f7565b506020905f5b81811061175757610aa36112f4866040519061174760208361053c565b5f82526117526122f7565b612345565b8061177661176860019385886126e8565b60405190611747878361053c565b500161172a565b602036600319011261040b576100206004356117988161062d565b612710565b3461040b575f36600319011261040b57335f525f602052600160405f2001805463ffffffff8160781c161561187c576118056117f76102ab836117eb6117e661183f9660ff1690565b612769565b60781c63ffffffff1690565b65ffffffffffff42166127b4565b82547fffffffffffffff000000000000ffffffffffffffffffffffffffffffffffff001665ffffffffffff60981b609883901b1617909255565b60405165ffffffffffff909116815233907ffa9b3c14cc825c412c9ed81b3ba365a5b459439403f18829e572ed53a4180f0a908060208101610406565b606460405162461bcd60e51b815260206004820152600a60248201527f6e6f74207374616b6564000000000000000000000000000000000000000000006044820152fd5b3461040b57602036600319011261040b576100205f8080806004356118e48161062d565b6001600160a01b036001611908336001600160a01b03165f525f60205260405f2090565b019161199683549361196e65ffffffffffff61195a611940611934896001600160701b039060081c1690565b6001600160701b031690565b9761194c8915156127d2565b60981c65ffffffffffff1690565b1661196681151561281d565b421015612868565b80547fffffffffffffff000000000000000000000000000000000000000000000000ff169055565b604080516001600160a01b03831681526020810185905233917fb7c918e0e249f999e965cafeb6c664271b3f4317d296461500e71da39f0cbda391a2165af16119dd61200b565b506128b3565b3461040b57610aa36116e361170036610c3f565b8015150361040b57565b3461040b5761022036600319011261040b5760043560243567ffffffffffffffff811161040b57611a3690369060040161093b565b3660431901916101c0831261040b5761014060405193611a55856104c6565b1261040b57610aa392611b0492611a6a61056f565b611a74604461063e565b81526064356020820152608435604082015260a435606082015260c435608082015260e43560a08201526101043560c0820152611ab261012461063e565b60e0820152610144356101008201526101643561012082015282526101843560208301526101a43560408301526101c43560608301526101e43560808301526102043592611aff846119f7565b612da5565b604080519384526020840192909252908201529081906060820190565b3461040b57610aa3610a97611b353661094a565b95949094939193612f0e565b3461040b57611b5b611b5236610d1d565b92919091613067565b90610aa3604051928392151583526040602084015260408301906109c8565b15611b8157565b606460405162461bcd60e51b815260206004820152601a60248201527f6d757374207370656369667920756e7374616b652064656c61790000000000006044820152fd5b15611bcc57565b606460405162461bcd60e51b815260206004820152601c60248201527f63616e6e6f7420646563726561736520756e7374616b652074696d65000000006044820152fd5b634e487b7160e01b5f52601160045260245ffd5b906113888201809211611c3357565b611c10565b9060018201809211611c3357565b91908201809211611c3357565b15611c5a57565b606460405162461bcd60e51b815260206004820152601260248201527f6e6f207374616b652073706563696669656400000000000000000000000000006044820152fd5b15611ca557565b606460405162461bcd60e51b815260206004820152600e60248201527f7374616b65206f766572666c6f770000000000000000000000000000000000006044820152fd5b6040513d5f823e3d90fd5b6040517f09ccb880000000000000000000000000000000000000000000000000000000008152602081600481305afa90811561157c575f91611d34575090565b90506020813d602011611d61575b81611d4f6020938361053c565b8101031261040b575161062a8161062d565b3d9150611d42565b5f198114611c335760010190565b9392909193825190606082015181519081611f64575b505050505a9003608082015101925f935a91835191611dab836144e4565b92611dc060e08201516001600160a01b031690565b91611dd660808801518203606084015190614536565b01925f926001600160a01b0381169081611e7b5750505090611e036040949392516001600160a01b031690565b945b5a9003010102920151908282105f14611e4957611e215f6131eb565b7fdeadaa51000000000000000000000000000000000000000000000000000000005f5260205ffd5b82611e6d9203906001600160a01b03165f525f60205260405f209081540180915590565b50611e775f6131eb565b9190565b96928251611e92575b505050906040939291611e05565b919950949392505a98611ea45f6131eb565b60a05a920195865191813b1561040b578692835f809489611ef7604051988997889687947f7c627b21000000000000000000000000000000000000000000000000000000008652029086600486016131f5565b0393f19081611f4a575b50611f2a57611030611f116131be565b6040519182916365c8fd4d60e01b835260048301613227565b604094611f40915a9003995a9003905190614536565b9192935f80611e84565b80611f585f611f5e9361053c565b8061040f565b5f611f01565b5f80949360206001600160a01b0383965116910192f115611f88575f808080611d8d565b611030611f936131be565b6040519182917f462c71b20000000000000000000000000000000000000000000000000000000083526020600484015260248301906109c8565b600319810191908211611c3357565b5f19810191908211611c3357565b91908203918211611c3357565b6040519061200660208361053c565b5f8252565b3d15612035573d9061201c826105bd565b9161202a604051938461053c565b82523d5f602084013e565b606090565b1561204157565b606460405162461bcd60e51b815260206004820152601260248201527f6661696c656420746f20776974686472617700000000000000000000000000006044820152fd5b60405190612092826104e7565b5f6040838281528260208201520152565b604051906120b0826104e7565b815f81526040516120c0816104e7565b5f81525f602082015260606040820152602082015260406120df612085565b910152565b61062a906120f181613eae565b6120f9613272565b916121c78135926121098461062d565b60208301359080156122035761128290935b61213161212b6060830183612505565b906155e4565b90608081013560a08201359061215361212b60c08501359460e0810190612505565b93604051988997602089019b8c94919261010096939998979491996001600160a01b0361012088019b7f29a0bca4af4be3421398da00295e58e6d7de38cb492214754cb6a47507dd6f8e895216602088015260408701526060860152608085015260a084015260c083015260e08201520152565b51902090604291604051917f19010000000000000000000000000000000000000000000000000000000000008352600283015260228201522090565b506112826122146040850185612505565b9081604051918237209361211b565b1561222a57565b60405162461bcd60e51b815260206004820152601860248201527f41413934206761732076616c756573206f766572666c6f7700000000000000006044820152606490fd5b90607382029180830460731490151715611c3357565b61228d614155565b608460405162461bcd60e51b815260206004820152602760248201527f53484f554c44204e4f542042452043414c4c454420445552494e472053494d5560448201527f4c4154494f4e53000000000000000000000000000000000000000000000000006064820152fd5b60405190610100820182811067ffffffffffffffff8211176104e257604052606060e0835f81525f60208201525f60408201525f838201525f60808201525f60a08201525f60c08201520152565b509050612350614155565b608061235a612450565b916123648161341b565b61236e8382612bd4565b929091905a6060870151876123866060850185612505565b94905f60038711612448575b7fffffffff0000000000000000000000000000000000000000000000000000000016638dd7712f60e01b0361243057506123ef9450611290602083015191611282604051938492638dd7712f60e01b6020850152602484016142e3565b9490955b0151946123fe61057f565b958652602086015260408501526060840152608083015260a08201525f60c0820152606060e08201529061056d6141c9565b61129091506124409536916105d9565b9490956123f3565b508035612392565b6040519061245d826104c6565b5f60808360405161246d81610503565b83815283602082015283604082015283606082015283838201528360a08201528360c08201528360e0820152836101008201528361012082015281528260208201528260408201528260608201520152565b9081602091031261040b575161062a8161062d565b908060209392818452848401375f828201840152601f01601f1916010190565b91602061062a9381815201916124d4565b903590601e198136030182121561040b570180359067ffffffffffffffff821161040b5760200191813603831361040b57565b6040519061254760208361053c565b5f808352366020840137565b9061255d826105bd565b61256a604051918261053c565b828152809261257b601f19916105bd565b0190602036910137565b959493929190956125946120a3565b506125a26060830183612505565b9050156125d85761062a966125b69161338e565b6125d06125c1612450565b6125ca8361341b565b82612bd4565b5050506137c1565b505050505050506125e7612538565b604051906125f4826104e7565b5f82525f6020830152604082015260405161260e816104e7565b5f81525f60208201525f60408201526040519161262a836104e7565b5f83526020830152604082015290565b6040519061264782610520565b5f6020838281520152565b6040519061265f826104c6565b8160405161266c816104c6565b5f81525f60208201525f60408201525f606082015260606080820152815261269261263a565b602082015261269f61263a565b60408201526126ac61263a565b60608201526080604051916126c083610520565b5f83526126cb61263a565b60208401520152565b634e487b7160e01b5f52603260045260245ffd5b919081101561270b5760051b8101359061011e198136030182121561040b570190565b6126d4565b7f2da466a7b24304f47e87fa2e1e5a81b9831ce54fec19055ce277ca2f39ba42c460206001600160a01b0361275d34856001600160a01b03165f525f60205260405f209081540180915590565b936040519485521692a2565b1561277057565b606460405162461bcd60e51b815260206004820152601160248201527f616c726561647920756e7374616b696e670000000000000000000000000000006044820152fd5b9065ffffffffffff8091169116019065ffffffffffff8211611c3357565b156127d957565b606460405162461bcd60e51b815260206004820152601460248201527f4e6f207374616b6520746f2077697468647261770000000000000000000000006044820152fd5b1561282457565b606460405162461bcd60e51b815260206004820152601d60248201527f6d7573742063616c6c20756e6c6f636b5374616b6528292066697273740000006044820152fd5b1561286f57565b606460405162461bcd60e51b815260206004820152601b60248201527f5374616b65207769746864726177616c206973206e6f742064756500000000006044820152fd5b156128ba57565b606460405162461bcd60e51b815260206004820152601860248201527f6661696c656420746f207769746864726177207374616b6500000000000000006044820152fd5b9060141161040b5790601490565b909291928360141161040b57831161040b57601401916013190190565b909291928360341161040b57831161040b57603401916033190190565b356bffffffffffffffffffffffff19811692919060148210612966575050565b6bffffffffffffffffffffffff1960149290920360031b82901b16169150565b6040519061299382610520565b6004546001600160a01b031682526040516020836129b083610520565b6005548352600654828401520152565b6129c8612652565b506129d1612450565b906129db8161341b565b6129e58282612bd4565b509190926129f383856142fa565b612a10612a0b60e0835101516001600160a01b031690565b6144a4565b91612a3e612a2a612a0b84516001600160a01b0390511690565b91612a3361263a565b506040810190612505565b9060148210612b1957612a60612a5a612a6693612a0b936128fe565b90612946565b60601c90565b916001600160a01b038616946080820151966060604084015193015192612a8b61055e565b9889526020890152604088015260608701526080860152612aaa612986565b9380151580612b0e575b612adc575b50612ac261055e565b948552602085015260408401526060830152608082015290565b909350612ae8816144a4565b612b02612af361058f565b6001600160a01b039093168352565b6020820152925f612ab9565b506001811415612ab4565b5050612a665f6144a4565b15612b2c5750565b60405190631101335b60e11b82526004820152604060248201528061103060448201604090601881527f41413934206761732076616c756573206f766572666c6f77000000000000000060208201520190565b15612b875750565b60408051631101335b60e11b815260048101929092526024820152601a60448201527f4141323520696e76616c6964206163636f756e74206e6f6e63650000000000006064820152608490fd5b9190915f915a93805192612be88482613c91565b612c01604051612bf7836120e4565b6020850152604052565b604084015195612c495f6effffffffffffffffffffffffffffff8960c08901511760608901511760808901511760a08901511761010089015117610120890151171115612b24565b612c94612c7786610100604082015160608301510160808301510160a08301510160c0830151019101510290565b806040860152612c8b608085013560801c90565b9085855f614024565b96612cbd5f612cb8612cad89516001600160a01b031690565b60208a015190614107565b612b7f565b5a820311612d52576060946001600160a01b03612ce560e05a9301516001600160a01b031690565b16151580612d4a575b612d1c575b60809291612d0a610fc6610fc160a0945a90611fea565b9660608601525a900391013501910152565b9450610fc195509060a0608092612d0a610fc6612d3a87865f613d7f565b9a90999450505050919250612cf3565b506001612cee565b604051631101335b60e11b8152806110305f60048301608091815260406020820152601e60408201527f41413236206f76657220766572696669636174696f6e4761734c696d6974000060608201520190565b939092915f935a8251612db88184613c91565b612dd1604051612dc7856120e4565b6020870152604052565b604081015197612e19816effffffffffffffffffffffffffffff8b60c08601511760608601511760808601511760a08601511761010086015117610120860151171115612b24565b612e64612e4783610100604082015160608301510160808301510160a08301510160c0830151019101510290565b806040880152612e5b608087013560801c90565b90878785614024565b98612e8882612cb8612e7d86516001600160a01b031690565b602087015190614107565b5a840311610fe2576060966001600160a01b03612eb060e05a9501516001600160a01b031690565b1615159081612f06575b50612ed8575b5060809291612d0a610fc6610fc160a0945a90611fea565b610fc1975060a091965091612d0a610fc6612ef7878760809897613d7f565b9a909994505050509192612ec0565b90505f612eba565b95949392919095612f1d6120a3565b506014612f2d60e0840184612505565b905010612f685761062a96612f5a91610a83612f47612450565b612f52815187613c91565b5a9086613f41565b612f638161341b565b6139de565b50505050505050612f77612538565b60405190612f84826104e7565b5f82525f60208301526040820152612f9a61059e565b5f81525f60208201525f6040820152612fb161059e565b915f83526020830152604082015290565b6040906001600160a01b0361062a959316815281602082015201916124d4565b90815181101561270b570160200190565b919060408382031261040b57825161300a816119f7565b9260208101519067ffffffffffffffff821161040b570181601f8201121561040b57805190613038826105bd565b92613046604051948561053c565b8284526020838301011161040b57815f9260208093018386015e8301015290565b91925f936001600160a01b036060941691823b1561040b576130e5935f80946040518097819682957f850aaf620000000000000000000000000000000000000000000000000000000084526001600160a01b037f00000000000000000000000000000000000000000000000000000000000000001660048501612fc2565b0393f190816131a1575b5061318f5750506130fe61200b565b9060048251106131935761311a6131158351611fcd565b612553565b60045b8351811015613179578061315c61313660019387612fe2565b517fff000000000000000000000000000000000000000000000000000000000000001690565b61317261316883611fcd565b915f1a9185612fe2565b530161311d565b5061318f91925060208082518301019101612ff3565b9091565b905061319d612538565b5f91565b80611f585f6131af9361053c565b5f6130ef565b61056d33612710565b3d61080081116131e2575b604051906020818301016040528082525f602083013e90565b506108006131c9565b60031115610a5757565b90949392946003811015610a575760609261321d9183526080602084015260808301906109c8565b9460408201520152565b9060a061062a925f815260606020820152601460608201527f4141353020706f73744f70207265766572746564000000000000000000000000608082015281604082015201906109c8565b6001600160a01b037f000000000000000000000000000000000000000000000000000000000000000016301480613365575b156132cd577f000000000000000000000000000000000000000000000000000000000000000090565b60405160208101907f8b73c3c69bb8fe3d512ecc4cf759cc79239f7b179b0ffacaa9a75d522b39400f82527f000000000000000000000000000000000000000000000000000000000000000060408201527f000000000000000000000000000000000000000000000000000000000000000060608201524660808201523060a082015260a0815261335f60c08261053c565b51902090565b507f000000000000000000000000000000000000000000000000000000000000000046146132a4565b5f5b82811061339c57505050565b6001906133a7612450565b6133b28286866126e8565b6133bb8161341b565b6133c58282612bd4565b5050506133d56060820182612505565b90501561340a576133ee5f929160208493015190614555565b9082602083519301915af15061340261200b565b505b01613390565b5050613404565b3561062a8161062d565b61344e9061342c6040820182612505565b9161344681359161343c8361062d565b60e0810190612505565b9390926145ee565b80516134575750565b61103090604051918291631101335b60e11b83525f60048401526040602484015260448301906109c8565b9392916134a8906001600160a01b036040931686526060602087015260608601906109c8565b930152565b9390946134b86120a3565b508215613727576134f8926134cb611ff7565b50915f6134da5a88600361497f565b5a906040519687928392631efc84dd60e31b84528c60048501613482565b0381836001600160a01b037f0000000000000000000000000000000000000000000000000000000000000000165af190811561157c575f945f92613708575b508194809281156136e65750506135549095929394955b85611c46565b806001600160a01b037f000000000000000000000000000000000000000000000000000000000000000016965b8461358c8885611fea565b106136b7575a61359b88611c24565b1161365e5791889391879695935f8c8b6135cd6135c46135be886135ed9f611c46565b60011c90565b809a600361497f565b835a936040519e8f9586948593631efc84dd60e31b855260048501613482565b03925af198891561157c575f905f9a613637575b50156136225750505061361383611fdc565b95915b93949591929092613581565b93965093613631919750611c38565b94613616565b90506136569199503d805f833e61364e818361053c565b810190612ff3565b98905f613601565b50955093955050509350613670612538565b9261367961059e565b935f85525f6020860152604085015261369061059e565b928352602083015260408201526136a561059e565b60018152916020830152604082015290565b9650965050919550506136d991506136cd61059e565b93845215156020840152565b6040820152612f9a61059e565b965096505050945050506136d96136fb61059e565b5f81529215156020840152565b90945061371f91503d805f833e61364e818361053c565b90935f613537565b61373a92505a5f6134da5a88600361497f565b0381836001600160a01b037f0000000000000000000000000000000000000000000000000000000000000000165af192831561157c575f945f9461379f575b50839461378881935a90611fea565b9481156136e657505061355490959293949561354e565b9093506137b79194503d805f833e61364e818361053c565b939093925f613779565b9390946137cc6120a3565b508215613944576137ee926137df611ff7565b50915f6134da5a88600161497f565b0381836001600160a01b037f0000000000000000000000000000000000000000000000000000000000000000165af190811561157c575f945f92613925575b508194809281156136e657505061384990959293949585611c46565b806001600160a01b037f000000000000000000000000000000000000000000000000000000000000000016965b846138818885611fea565b106136b7575a61389088611c24565b1161365e5791889391879695935f8c8b6135cd6138b36135be886138bc9f611c46565b809a600161497f565b03925af198891561157c575f905f9a613906575b50156138f1575050506138e283611fdc565b95915b93949591929092613876565b93965093613900919750611c38565b946138e5565b905061391d9199503d805f833e61364e818361053c565b98905f6138d0565b90945061393c91503d805f833e61364e818361053c565b90935f61382d565b61395792505a5f6134da5a88600161497f565b0381836001600160a01b037f0000000000000000000000000000000000000000000000000000000000000000165af192831561157c575f945f946139bc575b5083946139a581935a90611fea565b9481156136e657505061384990959293949561354e565b9093506139d49194503d805f833e61364e818361053c565b939093925f613996565b9390946139e96120a3565b508215613b6157613a0b926139fc611ff7565b50915f6134da5a88600261497f565b0381836001600160a01b037f0000000000000000000000000000000000000000000000000000000000000000165af190811561157c575f945f92613b42575b508194809281156136e6575050613a6690959293949585611c46565b806001600160a01b037f000000000000000000000000000000000000000000000000000000000000000016965b84613a9e8885611fea565b106136b7575a613aad88611c24565b1161365e5791889391879695935f8c8b6135cd613ad06135be88613ad99f611c46565b809a600261497f565b03925af198891561157c575f905f9a613b23575b5015613b0e57505050613aff83611fdc565b95915b93949591929092613a93565b93965093613b1d919750611c38565b94613b02565b9050613b3a9199503d805f833e61364e818361053c565b98905f613aed565b909450613b5991503d805f833e61364e818361053c565b90935f613a4a565b613b7492505a5f6134da5a88600261497f565b0381836001600160a01b037f0000000000000000000000000000000000000000000000000000000000000000165af192831561157c575f945f94613bd9575b508394613bc281935a90611fea565b9481156136e6575050613a6690959293949561354e565b909350613bf19194503d805f833e61364e818361053c565b939093925f613bb3565b15613c0257565b606460405162461bcd60e51b815260206004820152601d60248201527f4141393320696e76616c6964207061796d6173746572416e64446174610000006044820152fd5b15613c4d57565b606460405162461bcd60e51b815260206004820152601660248201527f4141393820696e76616c6964207061796d6173746572000000000000000000006044820152fd5b613d2890613cae613ca182613411565b6001600160a01b03168452565b60208101356020840152613cdb6080820135906fffffffffffffffffffffffffffffffff8260801c921690565b6060850152604084015260a081013560c0840152613d1260c0820135906fffffffffffffffffffffffffffffffff8260801c921690565b61010085015261012084015260e0810190612505565b80929192613d3557505050565b613d518161056d94613d4c603460e0951015613bfb565b614bbb565b60a0850152608084015291613d706001600160a01b0384161515613c46565b01906001600160a01b03169052565b9290925a938351613da26001600160a01b0360e083015116604087015190614bf3565b15613e3a57906080613db992015194859184614c85565b9390945a900311613dc75750565b60408051631101335b60e11b815260048101929092526024820152602760448201527f41413336206f766572207061796d6173746572566572696669636174696f6e4760648201527f61734c696d697400000000000000000000000000000000000000000000000000608482015260a490fd5b60848360405190631101335b60e11b8252600482015260406024820152601e60448201527f41413331207061796d6173746572206465706f73697420746f6f206c6f7700006064820152fd5b909280926014946bffffffffffffffffffffffff199060601b1683528483013701015f815290565b613ebb6040820182612505565b9091613eca610f818385614d7a565b613f3a57613eda613edf91613411565b614dbc565b9160148211613f1657505060405161335f816112826020820194856014916bffffffffffffffffffffffff199060601b1681520190565b8161335f92613f249261290c565b9190611282604051938492602084019687613e86565b5050505f90565b9291613f85908251926001600160a01b0360e08186511695613f71613f6960408b018b612505565b90865f614ec0565b015116905f91159687613ff1575b5f61526d565b92613f8d5750565b5f613f9791614bf3565b15613f9e57565b604051631101335b60e11b8152806110305f60048301608091815260406020820152601760408201527f41413231206469646e2774207061792070726566756e6400000000000000000060608201520190565b915061400d856001600160a01b03165f525f60205260405f2090565b54801561401d57505f5b91613f7f565b5f03614017565b9290949361406a908351936001600160a01b0360e0818751169661405661404e60408d018d612505565b90868c614ec0565b015116905f911598896140d2575b8761526d565b9461407457505050565b61407d91614bf3565b156140855750565b60408051631101335b60e11b815260048101929092526024820152601760448201527f41413231206469646e2774207061792070726566756e640000000000000000006064820152608490fd5b91506140ee866001600160a01b03165f525f60205260405f2090565b548581111561410057505f5b91614064565b85036140fa565b6001600160a01b03165f52600160205267ffffffffffffffff6141418260401c60405f20906001600160c01b03165f5260205260405f2090565b9182549261414e84611d69565b9055161490565b7f9b779b17422d0df92223018b32b4d1fa46e071723d6817e2486d003becc55f005c6141a15760017f9b779b17422d0df92223018b32b4d1fa46e071723d6817e2486d003becc55f005d565b7f3ee5aeb5000000000000000000000000000000000000000000000000000000005f5260045ffd5b5f7f9b779b17422d0df92223018b32b4d1fa46e071723d6817e2486d003becc55f005d565b9035601e198236030181121561040b57016020813591019167ffffffffffffffff821161040b57813603831361040b57565b61062a9161423e816142318461063e565b6001600160a01b03169052565b602082013560208201526142d46142c861428f61427461426160408701876141ee565b61012060408801526101208701916124d4565b61428160608701876141ee565b9086830360608801526124d4565b6080850135608085015260a085013560a085015260c085013560c08501526142ba60e08601866141ee565b9085830360e08701526124d4565b926101008101906141ee565b916101008185039101526124d4565b9291906134a8602091604086526040860190614220565b61430b6001600160a01b0391615512565b9116614451576143fe576143266001600160a01b0391615512565b91166143ab5761433257565b604051631101335b60e11b8152806110305f6004830160a091815260406020820152602160408201527f41413332207061796d61737465722065787069726564206f72206e6f7420647560608201527f650000000000000000000000000000000000000000000000000000000000000060808201520190565b604051631101335b60e11b8152806110305f60048301608091815260406020820152601460408201527f41413334207369676e6174757265206572726f7200000000000000000000000060608201520190565b604051631101335b60e11b8152806110305f60048301608091815260406020820152601760408201527f414132322065787069726564206f72206e6f742064756500000000000000000060608201520190565b604051631101335b60e11b8152806110305f60048301608091815260406020820152601460408201527f41413234207369676e6174757265206572726f7200000000000000000000000060608201520190565b906001600160a01b036144b561263a565b92165f525f60205263ffffffff600160405f2001546001600160701b038160081c16845260781c166020830152565b6101206101008201519101517f59e3bb5c9eacf8e7a9c3802366751badc68d4d97d3e35b1744045784c52f20dd5480155f14614530575048905b018082101561452b575090565b905090565b9061451e565b90619c40820181111561454f57606491600a9103020490565b50505f90565b919082356145628161062d565b9260608101638dd7712f60e01b7fffffffff0000000000000000000000000000000000000000000000000000000061459a8385612505565b9060035f92116145e5575b5016036145d0575061062a90611282604051938492638dd7712f60e01b6020850152602484016142e3565b61062a92506145de91612505565b36916105d9565b9050355f6145a5565b509291921590816146a3575b50614666576014811015614613575b505061062a611ff7565b60141161040b573560601c3b1561462b575f80614609565b60405161463960408261053c565b601b81527f41413330207061796d6173746572206e6f74206465706c6f7965640000000000602082015290565b505060405161467660408261053c565b601981527f41413230206163636f756e74206e6f74206465706c6f79656400000000000000602082015290565b90503b155f6145fa565b9190916101208184031261040b576146c36105ad565b926146cd8261063e565b845260208201356020850152604082013567ffffffffffffffff811161040b57816146f991840161060f565b6040850152606082013567ffffffffffffffff811161040b578161471e91840161060f565b60608501526080820135608085015260a082013560a085015260c082013560c085015260e082013567ffffffffffffffff811161040b578161476191840161060f565b60e085015261010082013567ffffffffffffffff811161040b57614785920161060f565b610100830152565b60041115610a5757565b916020936fffffffffffffffffffffffffffffffff198092603497946bffffffffffffffffffffffff199060601b1686521660148501521660248301528051928391018483015e01015f815290565b80516001600160a01b0316825261062a9160208201516020820152610100614867614837614825604086015161012060408701526101208601906109c8565b606086015185820360608701526109c8565b6080850151608085015260a085015160a085015260c085015160c085015260e085015184820360e08601526109c8565b920151906101008184039101526109c8565b60806101a09161012081516148978682516001600160a01b03169052565b602081015160208701526040810151604087015260608101516060870152838101518487015260a081015160a087015260c081015160c08701526148eb60e082015160e08801906001600160a01b03169052565b61010081015161010087015201516101208501526020810151610140850152604081015161016085015260608101516101808501520151910152565b61495661494b61020093969594965f845261022060208501526102208401906147e6565b956040830190614879565b0152565b6102009061495661494b5f9496959685845261022060208501526102208401906147e6565b91614988612450565b9261499336846146ad565b61499c8261478d565b60028214614ad7576149ad8261478d565b60038214614a595750806149c260019261478d565b14614a0c5760405162461bcd60e51b815260206004820152600c60248201527f496e76616c6964206d6f646500000000000000000000000000000000000000006044820152606490fd5b614a2161062a92602061128295015190614555565b9390916040519485937f4440347300000000000000000000000000000000000000000000000000000000602086015260248501613482565b9190506fffffffffffffffffffffffffffffffff614a97614a90608061062a9601356fffffffffffffffffffffffffffffffff1690565b9260801b90565b91161760808201526112826040519384927fc579f76b0000000000000000000000000000000000000000000000000000000060208501526024840161495a565b9161128291506fffffffffffffffffffffffffffffffff1984614b6360e061062a9701614b55614b10614b0a8386612505565b90614bbb565b9391905060609160e08b0196603488515111614b99575b505060405196879460801b16906fffffffffffffffffffffffffffffffff198960801b169060208601614797565b03601f19810184528361053c565b526040519485937f21e60b3700000000000000000000000000000000000000000000000000000000602086015260248501614927565b614bb39293506145de91614bac91612505565b8091612929565b905f80614b27565b90918260141161040b578135918360241161040b5760148101359360341161040b5760609290921c92608090811c9260240135901c90565b6001600160a01b03165f525f60205260405f20908154818110613f3a57039055600190565b614c3060409295949395606083526060830190614220565b9460208201520152565b60a09061062a9392815260606020820152600d60608201527f4141333320726576657274656400000000000000000000000000000000000000608082015281604082015201906109c8565b925f8091959392956040519682614cfa60e0602088015197614ceb8c614cdc6040840151602083019c8d997f52b7512c000000000000000000000000000000000000000000000000000000008b5260248501614c18565b038d601f19820190528d61053c565b5101516001600160a01b031690565b895193f1933d91825f833e51938151604083019687519015918215614d6e575b508115614d5c575b50614d375750601f909101601f191601604052565b614d3f6131be565b906110306040519283926365c8fd4d60e01b845260048401614c3a565b9050601f605f1985019101105f614d22565b6040141591505f614d1a565b90600211614db757356bffffffffffffffffffffffff19167f77020000000000000000000000000000000000000000000000000000000000001490565b505f90565b60175f80833c5f51907fef010000000000000000000000000000000000000000000000000000000000007fffffff0000000000000000000000000000000000000000000000000000000000831603614e315750612a60614e1f61062a9260181b90565b6bffffffffffffffffffffffff191690565b3b15614e7c5760405162461bcd60e51b815260206004820152601860248201527f6e6f7420616e204549502d373730322064656c656761746500000000000000006044820152606490fd5b606460405162461bcd60e51b815260206004820152601260248201527f73656e64657220686173206e6f20636f646500000000000000000000000000006044820152fd5b92909181614ecf575b50505050565b8251516001600160a01b031693614ee68383614d7a565b61518657843b61513957601483106150ec575f6020614f12614f06611cf4565b6001600160a01b031690565b60408751015160405180948193632b870d1b60e11b835282614f388b8b600484016124f4565b0393f190811561157c575f916150cd575b506001600160a01b038116958615615078576001600160a01b0316809603615023573b15614fd65750612a60612a5a7fd51a9c61267aa6196961883ecf5ff2da6619c37dac0fa92122513fb32c032d2d93614fa3936128fe565b602083810151935160e00151604080516001600160a01b039485168152939091169183019190915290a35f808080614ec9565b60408051631101335b60e11b815260048101929092526024820152602060448201527f4141313520696e6974436f6465206d757374206372656174652073656e6465726064820152608490fd5b61103082604051918291631101335b60e11b835260048301608091815260406020820152602060408201527f4141313420696e6974436f6465206d7573742072657475726e2073656e64657260608201520190565b61103083604051918291631101335b60e11b835260048301608091815260406020820152601b60408201527f4141313320696e6974436f6465206661696c6564206f72204f4f47000000000060608201520190565b6150e6915060203d60201161157557611567818361053c565b5f614f49565b60408051631101335b60e11b815260048101929092526024820152601760448201527f4141393920696e6974436f646520746f6f20736d616c6c0000000000000000006064820152608490fd5b60408051631101335b60e11b815260048101929092526024820152601f60448201527f414131302073656e64657220616c726561647920636f6e7374727563746564006064820152608490fd5b5090601481116151965750505050565b806151b29160406151a8614f06611cf4565b955101519361290c565b9190833b1561040b575f80946151f896604051978896879586937fc09ad0d900000000000000000000000000000000000000000000000000000000855260048501612fc2565b0393f1801561157c5761520e575b808080614ec9565b80611f585f61521c9361053c565b5f615206565b60a09061062a9392815260606020820152600d60608201527f4141323320726576657274656400000000000000000000000000000000000000608082015281604082015201906109c8565b92916020959486926152d75f936152c961529082516001600160a01b0390511690565b976040519b8c930151888401957f19822f7c00000000000000000000000000000000000000000000000000000000875260248501614c18565b03601f1981018a528961053c565b8285895193f15f519460203d0361536c575b604052156152f5575050565b3b6153475760408051631101335b60e11b815260048101929092526024820152601960448201527f41413230206163636f756e74206e6f74206465706c6f796564000000000000006064820152608490fd5b61534f6131be565b906110306040519283926365c8fd4d60e01b845260048401615222565b5f91506152e9565b60ff81146153855761062a906155ef565b506040515f6002548060011c91600182168015615450575b60208410811461543c578385528492602084019190811561542357506001146153ce575b5061062a9250038261053c565b60025f90815291507f405787fa12a823e0f2b7631cc41b3ba8828b3321ca811111fa75cd3aa3bb5ace5b84831061540c575061062a9350015f6153c1565b8054828401528593506020909201916001016153f8565b60ff191682525061062a93151560051b0190505f6153c1565b634e487b7160e01b5f52602260045260245ffd5b92607f169261539d565b60ff811461546b5761062a906155ef565b506040515f6003548060011c91600182168015615508575b60208410811461543c578385528492602084019190811561542357506001146154b3575061062a9250038261053c565b60035f90815291507fc2575a0e9e593c00f959f8c92f12db2869c3395a3b0502d05e2516446f71f85b5b8483106154f1575061062a9350015f6153c1565b8054828401528593506020909201916001016154dd565b92607f1692615483565b80156155dd57615520612085565b5065ffffffffffff8160a01c169081156155cf575b6155b09061559761558c6040519461554c866104e7565b6001600160a01b038416865265ffffffffffff602087019460d01c1684526155806040870191829065ffffffffffff169052565b5165ffffffffffff1690565b65ffffffffffff1690565b42119081156155b3575b5091516001600160a01b031690565b91565b516155c6915065ffffffffffff1661558c565b4211155f6155a1565b65ffffffffffff9150615535565b505f905f90565b816040519182372090565b60ff811690601f821161561e576040519161560b60408461053c565b6020808452838101919036833783525290565b7fb3512b0c000000000000000000000000000000000000000000000000000000005f5260045ffdfea26469706673582212209334be9ca01f5cd25ae3a78457b15809cbb8307c9af43bfa5e183ce4e537c96464736f6c634300081c0033","linkReferences":{}},"methodIdentifiers":{"_accountValidation(uint256,(address,uint256,bytes,bytes,bytes32,uint256,bytes32,bytes,bytes),((address,uint256,uint256,uint256,uint256,uint256,uint256,address,uint256,uint256),bytes32,uint256,uint256,uint256))":"69683cfa","_paymasterValidation(uint256,(address,uint256,bytes,bytes,bytes32,uint256,bytes32,bytes,bytes),((address,uint256,uint256,uint256,uint256,uint256,uint256,address,uint256,uint256),bytes32,uint256,uint256,uint256))":"21e60b37","_validatePrepayment(uint256,(address,uint256,bytes,bytes,bytes32,uint256,bytes32,bytes,bytes),((address,uint256,uint256,uint256,uint256,uint256,uint256,address,uint256,uint256),bytes32,uint256,uint256,uint256),bool)":"c579f76b","addStake(uint32)":"0396cb60","balanceOf(address)":"70a08231","binarySearchCallGas((address,uint256,bytes,bytes,bytes32,uint256,bytes32,bytes,bytes)[],(address,uint256,bytes,bytes,bytes32,uint256,bytes32,bytes,bytes),address,uint256,uint256,uint256)":"acbe911e","binarySearchPaymasterVerificationGas((address,uint256,bytes,bytes,bytes32,uint256,bytes32,bytes,bytes)[],(address,uint256,bytes,bytes,bytes32,uint256,bytes32,bytes,bytes),address,uint256,uint256,uint256)":"d72f2593","binarySearchVerificationGas((address,uint256,bytes,bytes,bytes32,uint256,bytes32,bytes,bytes)[],(address,uint256,bytes,bytes,bytes32,uint256,bytes32,bytes,bytes),address,uint256,uint256,uint256)":"212eccc6","delegateAndRevert(address,bytes)":"850aaf62","depositTo(address)":"b760faf9","eip712Domain()":"84b0196e","getDepositInfo(address)":"5287ce12","getDomainSeparatorV4()":"13c65a6e","getNonce(address,uint192)":"35567e1a","getPackedUserOpTypeHash()":"154e58dc","getSenderAddress(bytes)":"9b249f69","getUserOpHash((address,uint256,bytes,bytes,bytes32,uint256,bytes32,bytes,bytes))":"22cdde4c","handleAggregatedOps(((address,uint256,bytes,bytes,bytes32,uint256,bytes32,bytes,bytes)[],address,bytes)[],address)":"dbed18e0","handleOps((address,uint256,bytes,bytes,bytes32,uint256,bytes32,bytes,bytes)[],address)":"765e827f","incrementNonce(uint192)":"0bd28e3b","innerHandleOp(bytes,((address,uint256,uint256,uint256,uint256,uint256,uint256,address,uint256,uint256),bytes32,uint256,uint256,uint256),bytes,uint256)":"0da82661","nonceSequenceNumber(address,uint192)":"1b2e01b8","senderCreator()":"09ccb880","simulateCall(address,bytes,uint256)":"f7e426e8","simulateCallAndRevert(address,bytes,uint256)":"44403473","simulateHandleOp((address,uint256,bytes,bytes,bytes32,uint256,bytes32,bytes,bytes)[],(address,uint256,bytes,bytes,bytes32,uint256,bytes32,bytes,bytes))":"af324943","simulateHandleOpSingle((address,uint256,bytes,bytes,bytes32,uint256,bytes32,bytes,bytes),address,bytes)":"7da0c462","simulateValidation((address,uint256,bytes,bytes,bytes32,uint256,bytes32,bytes,bytes))":"c3bce009","simulateValidation((address,uint256,bytes,bytes,bytes32,uint256,bytes32,bytes,bytes)[],(address,uint256,bytes,bytes,bytes32,uint256,bytes32,bytes,bytes))":"aec321fb","unlockStake()":"bb9fe6bf","withdrawStake(address)":"c23a5cea","withdrawTo(address,uint256)":"205c2878"},"id":28}