{"abi":[{"type":"constructor","inputs":[],"stateMutability":"nonpayable"},{"type":"receive","stateMutability":"payable"},{"type":"function","name":"_paymasterValidation","inputs":[{"name":"opIndex","type":"uint256","internalType":"uint256"},{"name":"userOp","type":"tuple","internalType":"struct PackedUserOperation","components":[{"name":"sender","type":"address","internalType":"address"},{"name":"nonce","type":"uint256","internalType":"uint256"},{"name":"initCode","type":"bytes","internalType":"bytes"},{"name":"callData","type":"bytes","internalType":"bytes"},{"name":"accountGasLimits","type":"bytes32","internalType":"bytes32"},{"name":"preVerificationGas","type":"uint256","internalType":"uint256"},{"name":"gasFees","type":"bytes32","internalType":"bytes32"},{"name":"paymasterAndData","type":"bytes","internalType":"bytes"},{"name":"signature","type":"bytes","internalType":"bytes"}]},{"name":"outOpInfo","type":"tuple","internalType":"struct EntryPoint.UserOpInfo","components":[{"name":"mUserOp","type":"tuple","internalType":"struct EntryPoint.MemoryUserOp","components":[{"name":"sender","type":"address","internalType":"address"},{"name":"nonce","type":"uint256","internalType":"uint256"},{"name":"verificationGasLimit","type":"uint256","internalType":"uint256"},{"name":"callGasLimit","type":"uint256","internalType":"uint256"},{"name":"paymasterVerificationGasLimit","type":"uint256","internalType":"uint256"},{"name":"paymasterPostOpGasLimit","type":"uint256","internalType":"uint256"},{"name":"preVerificationGas","type":"uint256","internalType":"uint256"},{"name":"paymaster","type":"address","internalType":"address"},{"name":"maxFeePerGas","type":"uint256","internalType":"uint256"},{"name":"maxPriorityFeePerGas","type":"uint256","internalType":"uint256"}]},{"name":"userOpHash","type":"bytes32","internalType":"bytes32"},{"name":"prefund","type":"uint256","internalType":"uint256"},{"name":"contextOffset","type":"uint256","internalType":"uint256"},{"name":"preOpGas","type":"uint256","internalType":"uint256"}]}],"outputs":[{"name":"validationData","type":"uint256","internalType":"uint256"},{"name":"paymasterValidationData","type":"uint256","internalType":"uint256"},{"name":"paymasterVerificationGasLimit","type":"uint256","internalType":"uint256"}],"stateMutability":"nonpayable"},{"type":"function","name":"_validatePrepayment","inputs":[{"name":"opIndex","type":"uint256","internalType":"uint256"},{"name":"userOp","type":"tuple","internalType":"struct PackedUserOperation","components":[{"name":"sender","type":"address","internalType":"address"},{"name":"nonce","type":"uint256","internalType":"uint256"},{"name":"initCode","type":"bytes","internalType":"bytes"},{"name":"callData","type":"bytes","internalType":"bytes"},{"name":"accountGasLimits","type":"bytes32","internalType":"bytes32"},{"name":"preVerificationGas","type":"uint256","internalType":"uint256"},{"name":"gasFees","type":"bytes32","internalType":"bytes32"},{"name":"paymasterAndData","type":"bytes","internalType":"bytes"},{"name":"signature","type":"bytes","internalType":"bytes"}]},{"name":"outOpInfo","type":"tuple","internalType":"struct EntryPoint.UserOpInfo","components":[{"name":"mUserOp","type":"tuple","internalType":"struct EntryPoint.MemoryUserOp","components":[{"name":"sender","type":"address","internalType":"address"},{"name":"nonce","type":"uint256","internalType":"uint256"},{"name":"verificationGasLimit","type":"uint256","internalType":"uint256"},{"name":"callGasLimit","type":"uint256","internalType":"uint256"},{"name":"paymasterVerificationGasLimit","type":"uint256","internalType":"uint256"},{"name":"paymasterPostOpGasLimit","type":"uint256","internalType":"uint256"},{"name":"preVerificationGas","type":"uint256","internalType":"uint256"},{"name":"paymaster","type":"address","internalType":"address"},{"name":"maxFeePerGas","type":"uint256","internalType":"uint256"},{"name":"maxPriorityFeePerGas","type":"uint256","internalType":"uint256"}]},{"name":"userOpHash","type":"bytes32","internalType":"bytes32"},{"name":"prefund","type":"uint256","internalType":"uint256"},{"name":"contextOffset","type":"uint256","internalType":"uint256"},{"name":"preOpGas","type":"uint256","internalType":"uint256"}]},{"name":"validatePaymasterPrepayment","type":"bool","internalType":"bool"}],"outputs":[{"name":"validationData","type":"uint256","internalType":"uint256"},{"name":"paymasterValidationData","type":"uint256","internalType":"uint256"},{"name":"paymasterVerificationGasLimit","type":"uint256","internalType":"uint256"}],"stateMutability":"nonpayable"},{"type":"function","name":"addStake","inputs":[{"name":"unstakeDelaySec","type":"uint32","internalType":"uint32"}],"outputs":[],"stateMutability":"payable"},{"type":"function","name":"balanceOf","inputs":[{"name":"account","type":"address","internalType":"address"}],"outputs":[{"name":"","type":"uint256","internalType":"uint256"}],"stateMutability":"view"},{"type":"function","name":"binarySearchCallGas","inputs":[{"name":"queuedUserOps","type":"tuple[]","internalType":"struct PackedUserOperation[]","components":[{"name":"sender","type":"address","internalType":"address"},{"name":"nonce","type":"uint256","internalType":"uint256"},{"name":"initCode","type":"bytes","internalType":"bytes"},{"name":"callData","type":"bytes","internalType":"bytes"},{"name":"accountGasLimits","type":"bytes32","internalType":"bytes32"},{"name":"preVerificationGas","type":"uint256","internalType":"uint256"},{"name":"gasFees","type":"bytes32","internalType":"bytes32"},{"name":"paymasterAndData","type":"bytes","internalType":"bytes"},{"name":"signature","type":"bytes","internalType":"bytes"}]},{"name":"targetUserOp","type":"tuple","internalType":"struct PackedUserOperation","components":[{"name":"sender","type":"address","internalType":"address"},{"name":"nonce","type":"uint256","internalType":"uint256"},{"name":"initCode","type":"bytes","internalType":"bytes"},{"name":"callData","type":"bytes","internalType":"bytes"},{"name":"accountGasLimits","type":"bytes32","internalType":"bytes32"},{"name":"preVerificationGas","type":"uint256","internalType":"uint256"},{"name":"gasFees","type":"bytes32","internalType":"bytes32"},{"name":"paymasterAndData","type":"bytes","internalType":"bytes"},{"name":"signature","type":"bytes","internalType":"bytes"}]},{"name":"entryPoint","type":"address","internalType":"address"},{"name":"initialMinGas","type":"uint256","internalType":"uint256"},{"name":"toleranceDelta","type":"uint256","internalType":"uint256"},{"name":"gasAllowance","type":"uint256","internalType":"uint256"}],"outputs":[{"name":"","type":"tuple","internalType":"struct IEntryPointSimulations.BinarySearchResult","components":[{"name":"resultType","type":"uint8","internalType":"enum IEntryPointSimulations.BinarySearchResultType"},{"name":"successData","type":"tuple","internalType":"struct IEntryPointSimulations.BinarySearchSuccess","components":[{"name":"gasUsed","type":"uint256","internalType":"uint256"},{"name":"success","type":"bool","internalType":"bool"},{"name":"returnData","type":"bytes","internalType":"bytes"}]},{"name":"outOfGasData","type":"tuple","internalType":"struct IEntryPointSimulations.BinarySearchOutOfGas","components":[{"name":"optimalGas","type":"uint256","internalType":"uint256"},{"name":"minGas","type":"uint256","internalType":"uint256"},{"name":"maxGas","type":"uint256","internalType":"uint256"}]}]}],"stateMutability":"nonpayable"},{"type":"function","name":"binarySearchPaymasterVerificationGas","inputs":[{"name":"queuedUserOps","type":"tuple[]","internalType":"struct PackedUserOperation[]","components":[{"name":"sender","type":"address","internalType":"address"},{"name":"nonce","type":"uint256","internalType":"uint256"},{"name":"initCode","type":"bytes","internalType":"bytes"},{"name":"callData","type":"bytes","internalType":"bytes"},{"name":"accountGasLimits","type":"bytes32","internalType":"bytes32"},{"name":"preVerificationGas","type":"uint256","internalType":"uint256"},{"name":"gasFees","type":"bytes32","internalType":"bytes32"},{"name":"paymasterAndData","type":"bytes","internalType":"bytes"},{"name":"signature","type":"bytes","internalType":"bytes"}]},{"name":"targetUserOp","type":"tuple","internalType":"struct PackedUserOperation","components":[{"name":"sender","type":"address","internalType":"address"},{"name":"nonce","type":"uint256","internalType":"uint256"},{"name":"initCode","type":"bytes","internalType":"bytes"},{"name":"callData","type":"bytes","internalType":"bytes"},{"name":"accountGasLimits","type":"bytes32","internalType":"bytes32"},{"name":"preVerificationGas","type":"uint256","internalType":"uint256"},{"name":"gasFees","type":"bytes32","internalType":"bytes32"},{"name":"paymasterAndData","type":"bytes","internalType":"bytes"},{"name":"signature","type":"bytes","internalType":"bytes"}]},{"name":"entryPoint","type":"address","internalType":"address"},{"name":"initialMinGas","type":"uint256","internalType":"uint256"},{"name":"toleranceDelta","type":"uint256","internalType":"uint256"},{"name":"gasAllowance","type":"uint256","internalType":"uint256"}],"outputs":[{"name":"","type":"tuple","internalType":"struct IEntryPointSimulations.BinarySearchResult","components":[{"name":"resultType","type":"uint8","internalType":"enum IEntryPointSimulations.BinarySearchResultType"},{"name":"successData","type":"tuple","internalType":"struct IEntryPointSimulations.BinarySearchSuccess","components":[{"name":"gasUsed","type":"uint256","internalType":"uint256"},{"name":"success","type":"bool","internalType":"bool"},{"name":"returnData","type":"bytes","internalType":"bytes"}]},{"name":"outOfGasData","type":"tuple","internalType":"struct IEntryPointSimulations.BinarySearchOutOfGas","components":[{"name":"optimalGas","type":"uint256","internalType":"uint256"},{"name":"minGas","type":"uint256","internalType":"uint256"},{"name":"maxGas","type":"uint256","internalType":"uint256"}]}]}],"stateMutability":"nonpayable"},{"type":"function","name":"binarySearchVerificationGas","inputs":[{"name":"queuedUserOps","type":"tuple[]","internalType":"struct PackedUserOperation[]","components":[{"name":"sender","type":"address","internalType":"address"},{"name":"nonce","type":"uint256","internalType":"uint256"},{"name":"initCode","type":"bytes","internalType":"bytes"},{"name":"callData","type":"bytes","internalType":"bytes"},{"name":"accountGasLimits","type":"bytes32","internalType":"bytes32"},{"name":"preVerificationGas","type":"uint256","internalType":"uint256"},{"name":"gasFees","type":"bytes32","internalType":"bytes32"},{"name":"paymasterAndData","type":"bytes","internalType":"bytes"},{"name":"signature","type":"bytes","internalType":"bytes"}]},{"name":"targetUserOp","type":"tuple","internalType":"struct PackedUserOperation","components":[{"name":"sender","type":"address","internalType":"address"},{"name":"nonce","type":"uint256","internalType":"uint256"},{"name":"initCode","type":"bytes","internalType":"bytes"},{"name":"callData","type":"bytes","internalType":"bytes"},{"name":"accountGasLimits","type":"bytes32","internalType":"bytes32"},{"name":"preVerificationGas","type":"uint256","internalType":"uint256"},{"name":"gasFees","type":"bytes32","internalType":"bytes32"},{"name":"paymasterAndData","type":"bytes","internalType":"bytes"},{"name":"signature","type":"bytes","internalType":"bytes"}]},{"name":"entryPoint","type":"address","internalType":"address"},{"name":"initialMinGas","type":"uint256","internalType":"uint256"},{"name":"toleranceDelta","type":"uint256","internalType":"uint256"},{"name":"gasAllowance","type":"uint256","internalType":"uint256"}],"outputs":[{"name":"","type":"tuple","internalType":"struct IEntryPointSimulations.BinarySearchResult","components":[{"name":"resultType","type":"uint8","internalType":"enum IEntryPointSimulations.BinarySearchResultType"},{"name":"successData","type":"tuple","internalType":"struct IEntryPointSimulations.BinarySearchSuccess","components":[{"name":"gasUsed","type":"uint256","internalType":"uint256"},{"name":"success","type":"bool","internalType":"bool"},{"name":"returnData","type":"bytes","internalType":"bytes"}]},{"name":"outOfGasData","type":"tuple","internalType":"struct IEntryPointSimulations.BinarySearchOutOfGas","components":[{"name":"optimalGas","type":"uint256","internalType":"uint256"},{"name":"minGas","type":"uint256","internalType":"uint256"},{"name":"maxGas","type":"uint256","internalType":"uint256"}]}]}],"stateMutability":"nonpayable"},{"type":"function","name":"delegateAndRevert","inputs":[{"name":"","type":"address","internalType":"address"},{"name":"","type":"bytes","internalType":"bytes"}],"outputs":[],"stateMutability":"pure"},{"type":"function","name":"depositTo","inputs":[{"name":"account","type":"address","internalType":"address"}],"outputs":[],"stateMutability":"payable"},{"type":"function","name":"deposits","inputs":[{"name":"","type":"address","internalType":"address"}],"outputs":[{"name":"deposit","type":"uint256","internalType":"uint256"},{"name":"staked","type":"bool","internalType":"bool"},{"name":"stake","type":"uint112","internalType":"uint112"},{"name":"unstakeDelaySec","type":"uint32","internalType":"uint32"},{"name":"withdrawTime","type":"uint48","internalType":"uint48"}],"stateMutability":"view"},{"type":"function","name":"getDepositInfo","inputs":[{"name":"account","type":"address","internalType":"address"}],"outputs":[{"name":"info","type":"tuple","internalType":"struct IStakeManager.DepositInfo","components":[{"name":"deposit","type":"uint256","internalType":"uint256"},{"name":"staked","type":"bool","internalType":"bool"},{"name":"stake","type":"uint112","internalType":"uint112"},{"name":"unstakeDelaySec","type":"uint32","internalType":"uint32"},{"name":"withdrawTime","type":"uint48","internalType":"uint48"}]}],"stateMutability":"view"},{"type":"function","name":"getNonce","inputs":[{"name":"sender","type":"address","internalType":"address"},{"name":"key","type":"uint192","internalType":"uint192"}],"outputs":[{"name":"nonce","type":"uint256","internalType":"uint256"}],"stateMutability":"view"},{"type":"function","name":"getSenderAddress","inputs":[{"name":"initCode","type":"bytes","internalType":"bytes"}],"outputs":[],"stateMutability":"nonpayable"},{"type":"function","name":"getUserOpHash","inputs":[{"name":"userOp","type":"tuple","internalType":"struct PackedUserOperation","components":[{"name":"sender","type":"address","internalType":"address"},{"name":"nonce","type":"uint256","internalType":"uint256"},{"name":"initCode","type":"bytes","internalType":"bytes"},{"name":"callData","type":"bytes","internalType":"bytes"},{"name":"accountGasLimits","type":"bytes32","internalType":"bytes32"},{"name":"preVerificationGas","type":"uint256","internalType":"uint256"},{"name":"gasFees","type":"bytes32","internalType":"bytes32"},{"name":"paymasterAndData","type":"bytes","internalType":"bytes"},{"name":"signature","type":"bytes","internalType":"bytes"}]}],"outputs":[{"name":"","type":"bytes32","internalType":"bytes32"}],"stateMutability":"view"},{"type":"function","name":"handleAggregatedOps","inputs":[{"name":"","type":"tuple[]","internalType":"struct IEntryPoint.UserOpsPerAggregator[]","components":[{"name":"userOps","type":"tuple[]","internalType":"struct PackedUserOperation[]","components":[{"name":"sender","type":"address","internalType":"address"},{"name":"nonce","type":"uint256","internalType":"uint256"},{"name":"initCode","type":"bytes","internalType":"bytes"},{"name":"callData","type":"bytes","internalType":"bytes"},{"name":"accountGasLimits","type":"bytes32","internalType":"bytes32"},{"name":"preVerificationGas","type":"uint256","internalType":"uint256"},{"name":"gasFees","type":"bytes32","internalType":"bytes32"},{"name":"paymasterAndData","type":"bytes","internalType":"bytes"},{"name":"signature","type":"bytes","internalType":"bytes"}]},{"name":"aggregator","type":"address","internalType":"contract IAggregator"},{"name":"signature","type":"bytes","internalType":"bytes"}]},{"name":"","type":"address","internalType":"address payable"}],"outputs":[],"stateMutability":"pure"},{"type":"function","name":"handleOps","inputs":[{"name":"","type":"tuple[]","internalType":"struct PackedUserOperation[]","components":[{"name":"sender","type":"address","internalType":"address"},{"name":"nonce","type":"uint256","internalType":"uint256"},{"name":"initCode","type":"bytes","internalType":"bytes"},{"name":"callData","type":"bytes","internalType":"bytes"},{"name":"accountGasLimits","type":"bytes32","internalType":"bytes32"},{"name":"preVerificationGas","type":"uint256","internalType":"uint256"},{"name":"gasFees","type":"bytes32","internalType":"bytes32"},{"name":"paymasterAndData","type":"bytes","internalType":"bytes"},{"name":"signature","type":"bytes","internalType":"bytes"}]},{"name":"","type":"address","internalType":"address payable"}],"outputs":[],"stateMutability":"pure"},{"type":"function","name":"incrementNonce","inputs":[{"name":"key","type":"uint192","internalType":"uint192"}],"outputs":[],"stateMutability":"nonpayable"},{"type":"function","name":"innerHandleOp","inputs":[{"name":"callData","type":"bytes","internalType":"bytes"},{"name":"opInfo","type":"tuple","internalType":"struct EntryPoint.UserOpInfo","components":[{"name":"mUserOp","type":"tuple","internalType":"struct EntryPoint.MemoryUserOp","components":[{"name":"sender","type":"address","internalType":"address"},{"name":"nonce","type":"uint256","internalType":"uint256"},{"name":"verificationGasLimit","type":"uint256","internalType":"uint256"},{"name":"callGasLimit","type":"uint256","internalType":"uint256"},{"name":"paymasterVerificationGasLimit","type":"uint256","internalType":"uint256"},{"name":"paymasterPostOpGasLimit","type":"uint256","internalType":"uint256"},{"name":"preVerificationGas","type":"uint256","internalType":"uint256"},{"name":"paymaster","type":"address","internalType":"address"},{"name":"maxFeePerGas","type":"uint256","internalType":"uint256"},{"name":"maxPriorityFeePerGas","type":"uint256","internalType":"uint256"}]},{"name":"userOpHash","type":"bytes32","internalType":"bytes32"},{"name":"prefund","type":"uint256","internalType":"uint256"},{"name":"contextOffset","type":"uint256","internalType":"uint256"},{"name":"preOpGas","type":"uint256","internalType":"uint256"}]},{"name":"context","type":"bytes","internalType":"bytes"},{"name":"preGas","type":"uint256","internalType":"uint256"}],"outputs":[{"name":"actualGasCost","type":"uint256","internalType":"uint256"},{"name":"paymasterPostOpGasLimit","type":"uint256","internalType":"uint256"}],"stateMutability":"nonpayable"},{"type":"function","name":"nonceSequenceNumber","inputs":[{"name":"","type":"address","internalType":"address"},{"name":"","type":"uint192","internalType":"uint192"}],"outputs":[{"name":"","type":"uint256","internalType":"uint256"}],"stateMutability":"view"},{"type":"function","name":"simulateCall","inputs":[{"name":"entryPoint","type":"address","internalType":"address"},{"name":"payload","type":"bytes","internalType":"bytes"},{"name":"gas","type":"uint256","internalType":"uint256"}],"outputs":[{"name":"success","type":"bool","internalType":"bool"},{"name":"result","type":"bytes","internalType":"bytes"}],"stateMutability":"nonpayable"},{"type":"function","name":"simulateCallAndRevert","inputs":[{"name":"target","type":"address","internalType":"address"},{"name":"data","type":"bytes","internalType":"bytes"},{"name":"gas","type":"uint256","internalType":"uint256"}],"outputs":[],"stateMutability":"nonpayable"},{"type":"function","name":"simulateHandleOp","inputs":[{"name":"queuedUserOps","type":"tuple[]","internalType":"struct PackedUserOperation[]","components":[{"name":"sender","type":"address","internalType":"address"},{"name":"nonce","type":"uint256","internalType":"uint256"},{"name":"initCode","type":"bytes","internalType":"bytes"},{"name":"callData","type":"bytes","internalType":"bytes"},{"name":"accountGasLimits","type":"bytes32","internalType":"bytes32"},{"name":"preVerificationGas","type":"uint256","internalType":"uint256"},{"name":"gasFees","type":"bytes32","internalType":"bytes32"},{"name":"paymasterAndData","type":"bytes","internalType":"bytes"},{"name":"signature","type":"bytes","internalType":"bytes"}]},{"name":"targetUserOp","type":"tuple","internalType":"struct PackedUserOperation","components":[{"name":"sender","type":"address","internalType":"address"},{"name":"nonce","type":"uint256","internalType":"uint256"},{"name":"initCode","type":"bytes","internalType":"bytes"},{"name":"callData","type":"bytes","internalType":"bytes"},{"name":"accountGasLimits","type":"bytes32","internalType":"bytes32"},{"name":"preVerificationGas","type":"uint256","internalType":"uint256"},{"name":"gasFees","type":"bytes32","internalType":"bytes32"},{"name":"paymasterAndData","type":"bytes","internalType":"bytes"},{"name":"signature","type":"bytes","internalType":"bytes"}]}],"outputs":[{"name":"","type":"tuple","internalType":"struct IEntryPointSimulations.ExecutionResult","components":[{"name":"preOpGas","type":"uint256","internalType":"uint256"},{"name":"paid","type":"uint256","internalType":"uint256"},{"name":"accountValidationData","type":"uint256","internalType":"uint256"},{"name":"paymasterValidationData","type":"uint256","internalType":"uint256"},{"name":"paymasterVerificationGasLimit","type":"uint256","internalType":"uint256"},{"name":"paymasterPostOpGasLimit","type":"uint256","internalType":"uint256"},{"name":"targetSuccess","type":"bool","internalType":"bool"},{"name":"targetResult","type":"bytes","internalType":"bytes"}]}],"stateMutability":"nonpayable"},{"type":"function","name":"simulateHandleOpSingle","inputs":[{"name":"op","type":"tuple","internalType":"struct PackedUserOperation","components":[{"name":"sender","type":"address","internalType":"address"},{"name":"nonce","type":"uint256","internalType":"uint256"},{"name":"initCode","type":"bytes","internalType":"bytes"},{"name":"callData","type":"bytes","internalType":"bytes"},{"name":"accountGasLimits","type":"bytes32","internalType":"bytes32"},{"name":"preVerificationGas","type":"uint256","internalType":"uint256"},{"name":"gasFees","type":"bytes32","internalType":"bytes32"},{"name":"paymasterAndData","type":"bytes","internalType":"bytes"},{"name":"signature","type":"bytes","internalType":"bytes"}]},{"name":"target","type":"address","internalType":"address"},{"name":"targetCallData","type":"bytes","internalType":"bytes"}],"outputs":[{"name":"","type":"tuple","internalType":"struct IEntryPointSimulations.ExecutionResult","components":[{"name":"preOpGas","type":"uint256","internalType":"uint256"},{"name":"paid","type":"uint256","internalType":"uint256"},{"name":"accountValidationData","type":"uint256","internalType":"uint256"},{"name":"paymasterValidationData","type":"uint256","internalType":"uint256"},{"name":"paymasterVerificationGasLimit","type":"uint256","internalType":"uint256"},{"name":"paymasterPostOpGasLimit","type":"uint256","internalType":"uint256"},{"name":"targetSuccess","type":"bool","internalType":"bool"},{"name":"targetResult","type":"bytes","internalType":"bytes"}]}],"stateMutability":"nonpayable"},{"type":"function","name":"simulateValidation","inputs":[{"name":"queuedUserOps","type":"tuple[]","internalType":"struct PackedUserOperation[]","components":[{"name":"sender","type":"address","internalType":"address"},{"name":"nonce","type":"uint256","internalType":"uint256"},{"name":"initCode","type":"bytes","internalType":"bytes"},{"name":"callData","type":"bytes","internalType":"bytes"},{"name":"accountGasLimits","type":"bytes32","internalType":"bytes32"},{"name":"preVerificationGas","type":"uint256","internalType":"uint256"},{"name":"gasFees","type":"bytes32","internalType":"bytes32"},{"name":"paymasterAndData","type":"bytes","internalType":"bytes"},{"name":"signature","type":"bytes","internalType":"bytes"}]},{"name":"targetUserOp","type":"tuple","internalType":"struct PackedUserOperation","components":[{"name":"sender","type":"address","internalType":"address"},{"name":"nonce","type":"uint256","internalType":"uint256"},{"name":"initCode","type":"bytes","internalType":"bytes"},{"name":"callData","type":"bytes","internalType":"bytes"},{"name":"accountGasLimits","type":"bytes32","internalType":"bytes32"},{"name":"preVerificationGas","type":"uint256","internalType":"uint256"},{"name":"gasFees","type":"bytes32","internalType":"bytes32"},{"name":"paymasterAndData","type":"bytes","internalType":"bytes"},{"name":"signature","type":"bytes","internalType":"bytes"}]}],"outputs":[{"name":"","type":"tuple","internalType":"struct IEntryPointSimulations.ValidationResult","components":[{"name":"returnInfo","type":"tuple","internalType":"struct IEntryPoint.ReturnInfo","components":[{"name":"preOpGas","type":"uint256","internalType":"uint256"},{"name":"prefund","type":"uint256","internalType":"uint256"},{"name":"accountValidationData","type":"uint256","internalType":"uint256"},{"name":"paymasterValidationData","type":"uint256","internalType":"uint256"},{"name":"paymasterContext","type":"bytes","internalType":"bytes"}]},{"name":"senderInfo","type":"tuple","internalType":"struct IStakeManager.StakeInfo","components":[{"name":"stake","type":"uint256","internalType":"uint256"},{"name":"unstakeDelaySec","type":"uint256","internalType":"uint256"}]},{"name":"factoryInfo","type":"tuple","internalType":"struct IStakeManager.StakeInfo","components":[{"name":"stake","type":"uint256","internalType":"uint256"},{"name":"unstakeDelaySec","type":"uint256","internalType":"uint256"}]},{"name":"paymasterInfo","type":"tuple","internalType":"struct IStakeManager.StakeInfo","components":[{"name":"stake","type":"uint256","internalType":"uint256"},{"name":"unstakeDelaySec","type":"uint256","internalType":"uint256"}]},{"name":"aggregatorInfo","type":"tuple","internalType":"struct IEntryPoint.AggregatorStakeInfo","components":[{"name":"aggregator","type":"address","internalType":"address"},{"name":"stakeInfo","type":"tuple","internalType":"struct IStakeManager.StakeInfo","components":[{"name":"stake","type":"uint256","internalType":"uint256"},{"name":"unstakeDelaySec","type":"uint256","internalType":"uint256"}]}]}]}],"stateMutability":"nonpayable"},{"type":"function","name":"simulateValidation","inputs":[{"name":"userOp","type":"tuple","internalType":"struct PackedUserOperation","components":[{"name":"sender","type":"address","internalType":"address"},{"name":"nonce","type":"uint256","internalType":"uint256"},{"name":"initCode","type":"bytes","internalType":"bytes"},{"name":"callData","type":"bytes","internalType":"bytes"},{"name":"accountGasLimits","type":"bytes32","internalType":"bytes32"},{"name":"preVerificationGas","type":"uint256","internalType":"uint256"},{"name":"gasFees","type":"bytes32","internalType":"bytes32"},{"name":"paymasterAndData","type":"bytes","internalType":"bytes"},{"name":"signature","type":"bytes","internalType":"bytes"}]}],"outputs":[{"name":"","type":"tuple","internalType":"struct IEntryPointSimulations.ValidationResult","components":[{"name":"returnInfo","type":"tuple","internalType":"struct IEntryPoint.ReturnInfo","components":[{"name":"preOpGas","type":"uint256","internalType":"uint256"},{"name":"prefund","type":"uint256","internalType":"uint256"},{"name":"accountValidationData","type":"uint256","internalType":"uint256"},{"name":"paymasterValidationData","type":"uint256","internalType":"uint256"},{"name":"paymasterContext","type":"bytes","internalType":"bytes"}]},{"name":"senderInfo","type":"tuple","internalType":"struct IStakeManager.StakeInfo","components":[{"name":"stake","type":"uint256","internalType":"uint256"},{"name":"unstakeDelaySec","type":"uint256","internalType":"uint256"}]},{"name":"factoryInfo","type":"tuple","internalType":"struct IStakeManager.StakeInfo","components":[{"name":"stake","type":"uint256","internalType":"uint256"},{"name":"unstakeDelaySec","type":"uint256","internalType":"uint256"}]},{"name":"paymasterInfo","type":"tuple","internalType":"struct IStakeManager.StakeInfo","components":[{"name":"stake","type":"uint256","internalType":"uint256"},{"name":"unstakeDelaySec","type":"uint256","internalType":"uint256"}]},{"name":"aggregatorInfo","type":"tuple","internalType":"struct IEntryPoint.AggregatorStakeInfo","components":[{"name":"aggregator","type":"address","internalType":"address"},{"name":"stakeInfo","type":"tuple","internalType":"struct IStakeManager.StakeInfo","components":[{"name":"stake","type":"uint256","internalType":"uint256"},{"name":"unstakeDelaySec","type":"uint256","internalType":"uint256"}]}]}]}],"stateMutability":"nonpayable"},{"type":"function","name":"unlockStake","inputs":[],"outputs":[],"stateMutability":"nonpayable"},{"type":"function","name":"withdrawStake","inputs":[{"name":"withdrawAddress","type":"address","internalType":"address payable"}],"outputs":[],"stateMutability":"nonpayable"},{"type":"function","name":"withdrawTo","inputs":[{"name":"withdrawAddress","type":"address","internalType":"address payable"},{"name":"withdrawAmount","type":"uint256","internalType":"uint256"}],"outputs":[],"stateMutability":"nonpayable"},{"type":"event","name":"AccountDeployed","inputs":[{"name":"userOpHash","type":"bytes32","indexed":true,"internalType":"bytes32"},{"name":"sender","type":"address","indexed":true,"internalType":"address"},{"name":"factory","type":"address","indexed":false,"internalType":"address"},{"name":"paymaster","type":"address","indexed":false,"internalType":"address"}],"anonymous":false},{"type":"event","name":"BeforeExecution","inputs":[],"anonymous":false},{"type":"event","name":"Deposited","inputs":[{"name":"account","type":"address","indexed":true,"internalType":"address"},{"name":"totalDeposit","type":"uint256","indexed":false,"internalType":"uint256"}],"anonymous":false},{"type":"event","name":"PostOpRevertReason","inputs":[{"name":"userOpHash","type":"bytes32","indexed":true,"internalType":"bytes32"},{"name":"sender","type":"address","indexed":true,"internalType":"address"},{"name":"nonce","type":"uint256","indexed":false,"internalType":"uint256"},{"name":"revertReason","type":"bytes","indexed":false,"internalType":"bytes"}],"anonymous":false},{"type":"event","name":"SignatureAggregatorChanged","inputs":[{"name":"aggregator","type":"address","indexed":true,"internalType":"address"}],"anonymous":false},{"type":"event","name":"StakeLocked","inputs":[{"name":"account","type":"address","indexed":true,"internalType":"address"},{"name":"totalStaked","type":"uint256","indexed":false,"internalType":"uint256"},{"name":"unstakeDelaySec","type":"uint256","indexed":false,"internalType":"uint256"}],"anonymous":false},{"type":"event","name":"StakeUnlocked","inputs":[{"name":"account","type":"address","indexed":true,"internalType":"address"},{"name":"withdrawTime","type":"uint256","indexed":false,"internalType":"uint256"}],"anonymous":false},{"type":"event","name":"StakeWithdrawn","inputs":[{"name":"account","type":"address","indexed":true,"internalType":"address"},{"name":"withdrawAddress","type":"address","indexed":false,"internalType":"address"},{"name":"amount","type":"uint256","indexed":false,"internalType":"uint256"}],"anonymous":false},{"type":"event","name":"UserOperationEvent","inputs":[{"name":"userOpHash","type":"bytes32","indexed":true,"internalType":"bytes32"},{"name":"sender","type":"address","indexed":true,"internalType":"address"},{"name":"paymaster","type":"address","indexed":true,"internalType":"address"},{"name":"nonce","type":"uint256","indexed":false,"internalType":"uint256"},{"name":"success","type":"bool","indexed":false,"internalType":"bool"},{"name":"actualGasCost","type":"uint256","indexed":false,"internalType":"uint256"},{"name":"actualGasUsed","type":"uint256","indexed":false,"internalType":"uint256"}],"anonymous":false},{"type":"event","name":"UserOperationPrefundTooLow","inputs":[{"name":"userOpHash","type":"bytes32","indexed":true,"internalType":"bytes32"},{"name":"sender","type":"address","indexed":true,"internalType":"address"},{"name":"nonce","type":"uint256","indexed":false,"internalType":"uint256"}],"anonymous":false},{"type":"event","name":"UserOperationRevertReason","inputs":[{"name":"userOpHash","type":"bytes32","indexed":true,"internalType":"bytes32"},{"name":"sender","type":"address","indexed":true,"internalType":"address"},{"name":"nonce","type":"uint256","indexed":false,"internalType":"uint256"},{"name":"revertReason","type":"bytes","indexed":false,"internalType":"bytes"}],"anonymous":false},{"type":"event","name":"Withdrawn","inputs":[{"name":"account","type":"address","indexed":true,"internalType":"address"},{"name":"withdrawAddress","type":"address","indexed":false,"internalType":"address"},{"name":"amount","type":"uint256","indexed":false,"internalType":"uint256"}],"anonymous":false},{"type":"error","name":"CallPhaseReverted","inputs":[{"name":"reason","type":"bytes","internalType":"bytes"}]},{"type":"error","name":"DelegateAndRevert","inputs":[{"name":"success","type":"bool","internalType":"bool"},{"name":"ret","type":"bytes","internalType":"bytes"}]},{"type":"error","name":"FailedOp","inputs":[{"name":"opIndex","type":"uint256","internalType":"uint256"},{"name":"reason","type":"string","internalType":"string"}]},{"type":"error","name":"FailedOpWithRevert","inputs":[{"name":"opIndex","type":"uint256","internalType":"uint256"},{"name":"reason","type":"string","internalType":"string"},{"name":"inner","type":"bytes","internalType":"bytes"}]},{"type":"error","name":"PostOpReverted","inputs":[{"name":"returnData","type":"bytes","internalType":"bytes"}]},{"type":"error","name":"ReentrancyGuardReentrantCall","inputs":[]},{"type":"error","name":"SenderAddressResult","inputs":[{"name":"sender","type":"address","internalType":"address"}]},{"type":"error","name":"SignatureValidationFailed","inputs":[{"name":"aggregator","type":"address","internalType":"address"}]},{"type":"error","name":"innerCallResult","inputs":[{"name":"remainingGas","type":"uint256","internalType":"uint256"}]}],"bytecode":{"object":"0x60c080604052346101075760016002556101948181016001600160401b038111838210176100f1578291614e20833903906000f080156100e5576080523060a05261004861010c565b6000815260208101906000825280602061006061010c565b600081520152600380546001600160a01b03191690555160045551600555604051614cf4908161012c823960805181818161123c0152614a92015260a051818181612d200152818161305a015281816130b5015281816132bf0152818161337a015281816133d4015281816134e5015281816135a0015281816135fa015261370b0152f35b6040513d6000823e3d90fd5b634e487b7160e01b600052604160045260246000fd5b600080fd5b60408051919082016001600160401b038111838210176100f15760405256fe60806040526004361015610023575b361561001957600080fd5b610021612e1c565b005b60003560e01c80630396cb60146101de5780630bd28e3b146101d95780630da82661146101d45780631b2e01b8146101cf578063205c2878146101ca578063212eccc6146101c557806321e60b37146101c057806322cdde4c146101bb57806335567e1a146101b657806344403473146101b15780635287ce12146101ac57806370a08231146101a7578063765e827f146101665780637da0c462146101a2578063850aaf621461019d5780639b249f6914610198578063acbe911e14610193578063aec321fb1461018e578063af32494314610189578063b760faf914610184578063bb9fe6bf1461017f578063c23a5cea1461017a578063c3bce00914610175578063c579f76b14610170578063d72f25931461016b578063dbed18e014610166578063f7e426e8146101615763fc7e286d0361000e57611a57565b611a1e565b610e95565b6119fe565b61176e565b611750565b611629565b611502565b6114d7565b611464565b61140c565b6112d8565b6111dc565b61114a565b610f5c565b610e1e565b610d0d565b610cc7565b610be7565b610bc7565b610aca565b610a7f565b61081e565b6107bd565b61069a565b6103ef565b60203660031901126103d45760043563ffffffff8116908181036103d4576103cf7fa5ae833d0bb1dcd632d98a8b70973e8516812898e19bf27b70071ebc8dc52c01916103b161029f61028f610247336001600160a01b03166000526000602052604060002090565b96610253811515611ae5565b6102806001890154916102796102708463ffffffff9060781c1690565b63ffffffff1690565b1115611b30565b60081c6001600160701b031690565b6001600160701b03349116611bb3565b946102ab861515611bc0565b6102be6001600160701b03871115611c0b565b546102c76104f9565b908152600160208201526001600160701b038616604082015263ffffffff8316606082015260006080820152610310336001600160a01b03166000526000602052604060002090565b81518155602082015160019091018054604084015160608501516080909501517fffffffffffffff0000000000000000000000000000000000000000000000000090921660ff941515949094169390931760089390931b6effffffffffffffffffffffffffff00169290921760789390931b72ffffffff000000000000000000000000000000169290921760989190911b65ffffffffffff60981b16179055565b6040805194855263ffffffff90911660208501523393918291820190565b0390a2005b600080fd5b602435906001600160c01b03821682036103d457565b346103d45760203660031901126103d4576004356001600160c01b03811681036103d45761043d903360005260016020526040600020906001600160c01b0316600052602052604060002090565b6104478154611c56565b9055005b634e487b7160e01b600052604160045260246000fd5b60a0810190811067ffffffffffffffff82111761047d57604052565b61044b565b6060810190811067ffffffffffffffff82111761047d57604052565b610140810190811067ffffffffffffffff82111761047d57604052565b6040810190811067ffffffffffffffff82111761047d57604052565b90601f8019910116810190811067ffffffffffffffff82111761047d57604052565b6040519061050860a0836104d7565b565b60405190610508610140836104d7565b60405190610508610100836104d7565b604051906105086040836104d7565b604051906105086060836104d7565b60405190610508610120836104d7565b67ffffffffffffffff811161047d57601f01601f191660200190565b92919261058082610558565b9161058e60405193846104d7565b8294818452818301116103d4578281602093846000960137010152565b9080601f830112156103d4578160206105c693359101610574565b90565b6001600160a01b038116036103d457565b3590610508826105c9565b60431901906101c082126103d4576040516105ff81610461565b6101408193126103d45761061161050a565b61061b60446105da565b81526064356020820152608435604082015260a435606082015260c435608082015260e43560a08201526101043560c08201526106596101246105da565b60e0820152610144356101008201526101643561012082015281526101843560208201526101a43560408201526101c435606082015260806101e435910152565b346103d4576102203660031901126103d45760043567ffffffffffffffff81116103d4576106cc9036906004016105ab565b3660231901906101c082126103d457610140604051926106eb84610461565b126103d4576106f861050a565b61070260246105da565b815260443560208201526064356040820152608435606082015260a435608082015260c43560a082015260e43560c082015261073f6101046105da565b60e0820152610124356101008201526101443561012082015282526101643560208301526101843560408301526101a43560608301526101c43560808301526101e4359067ffffffffffffffff82116103d4576040926107a66107b19336906004016105ab565b906102043592611c65565b82519182526020820152f35b346103d45760403660031901126103d45760206108156004356107df816105c9565b6001600160a01b036107ef6103d9565b9116600052600183526040600020906001600160c01b0316600052602052604060002090565b54604051908152f35b346103d45760403660031901126103d45760043561083b816105c9565b6024353360005260006020526040600020918254908183116108c35760008080856001600160a01b03829589610874846100219a611ed8565b9055604080516001600160a01b03831681526020810185905233917fd1c19fbcd4551a5edfb66d43d2e337c04837afda3482b42bdf569a8fccdae5fb91a2165af16108bd611efa565b50611f2a565b606460405162461bcd60e51b815260206004820152601960248201527f576974686472617720616d6f756e7420746f6f206c61726765000000000000006044820152fd5b9181601f840112156103d45782359167ffffffffffffffff83116103d4576020808501948460051b0101116103d457565b90816101209103126103d45790565b60c06003198201126103d45760043567ffffffffffffffff81116103d4578161097291600401610907565b929092916024359067ffffffffffffffff82116103d45761099591600401610938565b906044356109a2816105c9565b90606435906084359060a43590565b634e487b7160e01b600052602160045260246000fd5b60005b8381106109da5750506000910152565b81810151838201526020016109ca565b90602091610a03815180928185528580860191016109c7565b601f01601f1916010190565b6020815281516002811015610a7a57602082015260a0604080610a5e8160208701518582880152805160c08801526020810151151560e0880152015160606101008701526101208601906109ea565b9401518051606085015260208101516080850152015191015290565b6109b1565b346103d457610ac6610aba610aac610a9636610947565b9691949095610aa6949394611f94565b50612edb565b610ab581612f6a565b612ffd565b60405191829182610a0f565b0390f35b346103d4576102003660031901126103d45760243560043567ffffffffffffffff82116103d457610b02610ac6923690600401610938565b90610b0c366105e5565b600092815192610b1c84836137d2565b610b2582611fd8565b60208401526001600160a01b0360e0610b5f86610100604082015160608301510160808301510160a08301510160c0830151019101510290565b95015116610b87575b6040805160008082526020820188905291810191909152806060810188565b610b919450613a4f565b905038808080610b68565b60206003198201126103d4576004359067ffffffffffffffff82116103d4576105c691600401610938565b346103d4576020610bdf610bda36610b9c565b611fd8565b604051908152f35b346103d45760403660031901126103d4576020600435610c06816105c9565b6001600160a01b03610c166103d9565b911660005260018252610c40816040600020906001600160c01b0316600052602052604060002090565b546040805192901b67ffffffffffffffff1916178152f35b9181601f840112156103d45782359167ffffffffffffffff83116103d457602083818601950101116103d457565b9060606003198301126103d457600435610c9f816105c9565b916024359067ffffffffffffffff82116103d457610cbf91600401610c58565b909160443590565b346103d45760008080610cd936610c86565b939181604094929451948592833781018381520393f1610cf7611efa565b9015610cff57005b80519081156103d457602001fd5b346103d45760203660031901126103d4576001600160a01b03600435610d32816105c9565b60006080604051610d4281610461565b8281528260208201528260408201528260608201520152166000526000602052610ac66040600020610dca65ffffffffffff600160405193610d8385610461565b80548552015460ff8116151560208501526001600160701b038160081c16604085015263ffffffff8160781c16606085015260981c16608083019065ffffffffffff169052565b60405191829182919091608065ffffffffffff8160a0840195805185526020810151151560208601526001600160701b03604082015116604086015263ffffffff6060820151166060860152015116910152565b346103d45760203660031901126103d4576001600160a01b03600435610e43816105c9565b1660005260006020526020604060002054604051908152f35b60406003198201126103d4576004359067ffffffffffffffff82116103d457610e8791600401610907565b90916024356105c6816105c9565b346103d457610ea336610e5c565b505050608460405162461bcd60e51b815260206004820152602760248201527f53484f554c44204e4f542042452043414c4c454420445552494e472053494d556044820152664c4154494f4e5360c81b6064820152fd5b61012060e06105c6936020845280516020850152602081015160408501526040810151606085015260608101516080850152608081015160a085015260a081015160c085015260c08101511515828501520151916101008082015201906109ea565b346103d45760603660031901126103d45760043567ffffffffffffffff81116103d457610f8d903690600401610938565b602435610f99816105c9565b60443567ffffffffffffffff81116103d457610fb99036906004016105ab565b91610fc26120bb565b50600091600280541461113b57610ac69360028055610fdf612237565b610fe884612f6a565b610ff28185612955565b91955a60608501518561100860608501856122fa565b94908c60038711611133575b7fffffffff0000000000000000000000000000000000000000000000000000000016638dd7712f60e01b0361111b5750611084945061107f602083015191611071604051938492638dd7712f60e01b602085015260248401613c26565b03601f1981018352826104d7565b611c65565b9390975b80956060976001600160a01b0381166110f2575b5050509560806110d796970151976110b261051a565b988952602089015260408801526060870152608086015260a0850152151560c0840152565b60e08201526110e66001600255565b60405191829182610efa565b6110d798508280949850602083519301915af1956080611110611efa565b97959197963861109c565b61107f915061112b953691610574565b939097611088565b508035611014565b600483633ee5aeb560e01b8152fd5b346103d45760403660031901126103d4576111666004356105c9565b60243567ffffffffffffffff81116103d457611186903690600401610c58565b5050608460405162461bcd60e51b815260206004820152602760248201527f53484f554c44204e4f542042452043414c4c454420445552494e472053494d556044820152664c4154494f4e5360c81b6064820152fd5b346103d45760203660031901126103d45760043567ffffffffffffffff81116103d457602061121261122e923690600401610c58565b906040519384928392632b870d1b60e11b8452600484016122dd565b038160006001600160a01b037f0000000000000000000000000000000000000000000000000000000000000000165af180156112d3576001600160a01b03916000916112a4575b507f6ca7b806000000000000000000000000000000000000000000000000000000006000521660045260246000fd5b6112c6915060203d6020116112cc575b6112be81836104d7565b8101906122a7565b38611275565b503d6112b4565b6122ee565b346103d457610ac6610aba6112ec36610947565b9594909493919361237b565b60406003198201126103d45760043567ffffffffffffffff81116103d4578161132391600401610907565b929092916024359067ffffffffffffffff82116103d4576105c691600401610938565b6105c69060208152610100608061139f81865161014060208701528051610160870152602081015161018087015260408101516101a087015260608101516101c0870152015160a06101e08601526102008501906109ea565b6020808701518051604087015201516060850152946113cf60408201518386019060208091805184520151910152565b6060810151805160c08601526020015160e0850152015191019080516001600160a01b031682526020908101518051828401520151604090910152565b346103d45761141a366112f8565b919061142461244f565b5060005b81811061144757610ac661143b8561278f565b60405191829182611346565b8061145d61145860019385876124ec565b61278f565b5001611428565b346103d457611472366112f8565b919061147c6120bb565b5060209060005b8181106114b157610ac66110e686604051906114a06020836104d7565b600082526114ac6120bb565b612110565b806114d06114c260019385886124ec565b604051906114a087836104d7565b5001611483565b60203660031901126103d4576100216004356114f2816105c9565b612514565b60009103126103d457565b346103d45760003660031901126103d4573360005260006020526001604060002001805463ffffffff8160781c16156115e55761156e6115606102708361155461154f6115a89660ff1690565b612555565b60781c63ffffffff1690565b65ffffffffffff42166125a0565b82547fffffffffffffff000000000000ffffffffffffffffffffffffffffffffffff001665ffffffffffff60981b609883901b1617909255565b60405165ffffffffffff909116815233907ffa9b3c14cc825c412c9ed81b3ba365a5b459439403f18829e572ed53a4180f0a9080602081016103cf565b606460405162461bcd60e51b815260206004820152600a60248201527f6e6f74207374616b6564000000000000000000000000000000000000000000006044820152fd5b346103d45760203660031901126103d457610021600080808060043561164e816105c9565b6001600160a01b036001611675336001600160a01b03166000526000602052604060002090565b01916117038354936116db65ffffffffffff6116c76116ad6116a1896001600160701b039060081c1690565b6001600160701b031690565b976116b98915156125be565b60981c65ffffffffffff1690565b166116d3811515612609565b421015612654565b80547fffffffffffffff000000000000000000000000000000000000000000000000ff169055565b604080516001600160a01b03831681526020810185905233917fb7c918e0e249f999e965cafeb6c664271b3f4317d296461500e71da39f0cbda391a2165af161174a611efa565b5061269f565b346103d457610ac661143b61145836610b9c565b801515036103d457565b346103d4576102203660031901126103d45760043560243567ffffffffffffffff81116103d4576117a3903690600401610938565b906117ad366105e5565b61020435906117bb82611764565b6000935a8251936117cc85846137d2565b6117d583611fd8565b60208501526040850151956118216effffffffffffffffffffffffffffff8860c08901511760608901511760808901511760a089015117610100890151176101208901511711156128f4565b61184c86610100604082015160608301510160808301510160a08301510160c0830151019101510290565b9061185a8883888885613f86565b9761188161187d6118728a516001600160a01b031690565b60208b015190614105565b1590565b6119a9575a850311611957576060926001600160a01b036118ad60e05a9a01516001600160a01b031690565b161515908161194f575b50611918575b509360806118f49460a06118ef95610ac699956118fb99604087015260608601525a9003910135019101525a90611ed8565b61293f565b6064900490565b604051938493846040919493926060820195825260208201520152565b819850610ac69692508460a06118ef9561193d89956118fb9a6118f49a608097613a4f565b9c90969a5094985095505094506118bd565b9050386118b7565b60408051631101335b60e11b815260048101929092526024820152601e60448201527f41413236206f76657220766572696669636174696f6e4761734c696d69740000606482015280608481015b0390fd5b6119a582604051918291631101335b60e11b835260048301608091815260406020820152601a60408201527f4141323520696e76616c6964206163636f756e74206e6f6e636500000000000060608201520190565b346103d457610ac6610aba611a1236610947565b95949094939193612b65565b346103d457611a38611a2f36610c86565b92919091612cc9565b90610ac6604051928392151583526040602084015260408301906109ea565b346103d45760203660031901126103d4576001600160a01b03600435611a7c816105c9565b16600052600060205265ffffffffffff604060002060018154910154908260405193849360a0850193855260ff8116151560208601526001600160701b03808260081c1616604086015263ffffffff808260781c1616606086015260981c161660808301520390f35b15611aec57565b606460405162461bcd60e51b815260206004820152601a60248201527f6d757374207370656369667920756e7374616b652064656c61790000000000006044820152fd5b15611b3757565b606460405162461bcd60e51b815260206004820152601c60248201527f63616e6e6f7420646563726561736520756e7374616b652074696d65000000006044820152fd5b634e487b7160e01b600052601160045260246000fd5b906113888201809211611ba057565b611b7b565b9060018201809211611ba057565b91908201809211611ba057565b15611bc757565b606460405162461bcd60e51b815260206004820152601260248201527f6e6f207374616b652073706563696669656400000000000000000000000000006044820152fd5b15611c1257565b606460405162461bcd60e51b815260206004820152600e60248201527f7374616b65206f766572666c6f770000000000000000000000000000000000006044820152fd5b6000198114611ba05760010190565b93929093845190606082015181519081611e50575b505050505a900360808401510192600093845a835194611c9986614157565b92611cae60e08801516001600160a01b031690565b6001600160a01b038116919082611d7e5750505050611cd485516001600160a01b031690565b925b5a8203019460a06060820151910151019160808501928351870390818111611d69575b505085029460408501938451878110600014611d3e57505050611d3a939450611d226000612e53565b5a9003905101905183611d358295614280565b6141b1565b9190565b611d3a969295508780955060019450611d5992910390613c3d565b50611d646000612e53565b614219565b9196916064919003600a020401943880611cf9565b95928051611d8f575b505050611cd6565b9091929950611d9d82612e53565b5a9260a089015190803b15611e4c579183929187848196948f611df2604051998a97889687947f7c627b2100000000000000000000000000000000000000000000000000000000865202908660048601612e5d565b0393f19182611e32575b5050611e26576119a5611e0d612e25565b6040519182916365c8fd4d60e01b835260048301612e8f565b5a900396388080611d87565b611e3f611e4592826104d7565b806114f7565b3880611dfc565b8380fd5b600080949360206001600160a01b0383965116910192f115611e755738808080611c7a565b6119a5611e80612e25565b6040519182917f462c71b20000000000000000000000000000000000000000000000000000000083526020600484015260248301906109ea565b600319810191908211611ba057565b600019810191908211611ba057565b91908203918211611ba057565b60405190611ef46020836104d7565b60008252565b3d15611f25573d90611f0b82610558565b91611f1960405193846104d7565b82523d6000602084013e565b606090565b15611f3157565b606460405162461bcd60e51b815260206004820152601260248201527f6661696c656420746f20776974686472617700000000000000000000000000006044820152fd5b60405190611f8282610482565b60006040838281528260208201520152565b60405190611fa182610482565b8160008152604051611fb281610482565b60008152600060208201526060604082015260208201526040611fd3611f75565b910152565b602081013561208c611fed60408401846122fa565b9081604051918237209161107161200760608601866122fa565b90816040519182372060c086013560a0870135608088013561203561202f60e08b018b6122fa565b90614cb3565b936040519889976001600160a01b0360208a019c35168c94919260e096939998979491996001600160a01b0361010088019b168752602087015260408601526060850152608084015260a083015260c08201520152565b519020604080516020810192835230918101919091524660608201526120b58160808101611071565b51902090565b60405190610100820182811067ffffffffffffffff82111761047d57604052606060e08360008152600060208201526000604082015260008382015260006080820152600060a0820152600060c08201520152565b50905060028054146122265760028055608061212a612237565b9161213481612f6a565b61213e8382612955565b926000929192905a908760608101519161215b60608201826122fa565b956003871161221e575b7fffffffff0000000000000000000000000000000000000000000000000000000016638dd7712f60e01b0361220657506121c2945061107f602083015191611071604051938492638dd7712f60e01b602085015260248401613c26565b9490955b0151946121d161051a565b958652602086015260408501526060840152608083015260a0820152600060c0820152606060e0820152906105086001600255565b61107f9150612216953691610574565b9490956121c6565b508035612165565b633ee5aeb560e01b60005260046000fd5b6040519061224482610461565b60006080836040516122558161049e565b83815283602082015283604082015283606082015283838201528360a08201528360c08201528360e0820152836101008201528361012082015281528260208201528260408201528260608201520152565b908160209103126103d457516105c6816105c9565b908060209392818452848401376000828201840152601f01601f1916010190565b9160206105c69381815201916122bc565b6040513d6000823e3d90fd5b903590601e19813603018212156103d4570180359067ffffffffffffffff82116103d4576020019181360383136103d457565b6040519061233c6020836104d7565b6000808352366020840137565b9061235382610558565b61236060405191826104d7565b8281528092612371601f1991610558565b0190602036910137565b9594939291909561238a611f94565b5061239860608301836122fa565b9050156123ce576105c6966123ac91612edb565b6123c66123b7612237565b6123c083612f6a565b82612955565b50505061333b565b505050505050506123dd61232d565b604051906123ea82610482565b6000825260006020830152604082015260405161240681610482565b6000815260006020820152600060408201526040519161242583610482565b600083526020830152604082015290565b60405190612443826104bb565b60006020838281520152565b6040519061245c82610461565b8160405161246981610461565b60008152600060208201526000604082015260006060820152606060808201528152612493612436565b60208201526124a0612436565b60408201526124ad612436565b60608201526080604051916124c1836104bb565b600083526124cd612436565b60208401520152565b634e487b7160e01b600052603260045260246000fd5b919081101561250f5760051b8101359061011e19813603018212156103d4570190565b6124d6565b7f2da466a7b24304f47e87fa2e1e5a81b9831ce54fec19055ce277ca2f39ba42c460206001600160a01b036125493485613c3d565b936040519485521692a2565b1561255c57565b606460405162461bcd60e51b815260206004820152601160248201527f616c726561647920756e7374616b696e670000000000000000000000000000006044820152fd5b9065ffffffffffff8091169116019065ffffffffffff8211611ba057565b156125c557565b606460405162461bcd60e51b815260206004820152601460248201527f4e6f207374616b6520746f2077697468647261770000000000000000000000006044820152fd5b1561261057565b606460405162461bcd60e51b815260206004820152601d60248201527f6d7573742063616c6c20756e6c6f636b5374616b6528292066697273740000006044820152fd5b1561265b57565b606460405162461bcd60e51b815260206004820152601b60248201527f5374616b65207769746864726177616c206973206e6f742064756500000000006044820152fd5b156126a657565b606460405162461bcd60e51b815260206004820152601860248201527f6661696c656420746f207769746864726177207374616b6500000000000000006044820152fd5b906014116103d45790601490565b90929192836034116103d45783116103d457603401916033190190565b356bffffffffffffffffffffffff19811692919060148210612735575050565b6bffffffffffffffffffffffff1960149290920360031b82901b16169150565b60405190612762826104bb565b6003546001600160a01b0316825260405160208361277f836104bb565b6004548352600554828401520152565b61279761244f565b506127a0612237565b906127aa81612f6a565b6127b48282612955565b509190926127c28385613c65565b6127df6127da60e0835101516001600160a01b031690565b613d8d565b9161280d6127f96127da84516001600160a01b0390511690565b91612802612436565b5060408101906122fa565b90601482106128e85761282f612829612835936127da936126ea565b90612715565b60601c90565b916001600160a01b03861694608082015196606060408401519301519261285a6104f9565b9889526020890152604088015260608701526080860152612879612755565b93801515806128dd575b6128ab575b506128916104f9565b948552602085015260408401526060830152608082015290565b9093506128b781613d8d565b6128d16128c261052a565b6001600160a01b039093168352565b60208201529238612888565b506001811415612883565b50506128356000613d8d565b156128fb57565b606460405162461bcd60e51b815260206004820152601860248201527f41413934206761732076616c756573206f766572666c6f7700000000000000006044820152fd5b90607382029180830460731490151715611ba057565b90916000915a9380519161296983826137d2565b61297281611fd8565b60208301526040830151956129be6effffffffffffffffffffffffffffff8860c08701511760608701511760808701511760a087015117610100870151176101208701511711156128f4565b6129e984610100604082015160608301510160808301510160a08301510160c0830151019101510290565b6129f7888286866000613f86565b97612a1a61187d612a0f88516001600160a01b031690565b602089015190614105565b612b11575a830311612abd576060906001600160a01b03612a4660e05a9801516001600160a01b031690565b16151580612ab5575b612a82575b6118ef9360a06105c69794879460809460406118f49a015260608601525a9003910135019101525a90611ed8565b965050928260808360a06105c697612aa38b6118f4996118ef996000613a4f565b9b909598509350949750509350612a54565b506001612a4f565b604051631101335b60e11b8152806119a5600060048301608091815260406020820152601e60408201527f41413236206f76657220766572696669636174696f6e4761734c696d6974000060608201520190565b604051631101335b60e11b8152806119a5600060048301608091815260406020820152601a60408201527f4141323520696e76616c6964206163636f756e74206e6f6e636500000000000060608201520190565b95949392919095612b74611f94565b506014612b8460e08401846122fa565b905010612bbf576105c696612bb191610aa6612b9e612237565b612ba98151876137d2565b5a9086613e2a565b612bba81612f6a565b613561565b50505050505050612bce61232d565b60405190612bdb82610482565b60008252600060208301526040820152612bf3610539565b600081526000602082015260006040820152612c0d610539565b91600083526020830152604082015290565b6040906001600160a01b036105c6959316815281602082015201916122bc565b90815181101561250f570160200190565b81601f820112156103d4578051612c6681610558565b92612c7460405194856104d7565b818452602082840101116103d4576105c691602080850191016109c7565b9190916040818403126103d4578051612caa81611764565b92602082015167ffffffffffffffff81116103d4576105c69201612c50565b91926000936001600160a01b036060941691823b156103d457612d4993600080946040518097819682957f850aaf620000000000000000000000000000000000000000000000000000000084526001600160a01b037f00000000000000000000000000000000000000000000000000000000000000001660048501612c1f565b0393f19081612e07575b50612df4575050612d62611efa565b906004825110612df857612d7e612d798351611eba565b612349565b60045b8351811015612dde5780612dc0612d9a60019387612c3f565b517fff000000000000000000000000000000000000000000000000000000000000001690565b612dd7612dcc83611eba565b9160001a9185612c3f565b5301612d81565b50612df491925060208082518301019101612c92565b9091565b9050612e0261232d565b600091565b80611e3f6000612e16936104d7565b38612d53565b61050833612514565b3d6108008111612e4a575b604051906020818301016040528082526000602083013e90565b50610800612e30565b60031115610a7a57565b90949392946003811015610a7a57606092612e859183526080602084015260808301906109ea565b9460408201520152565b9060a06105c6926000815260606020820152601460608201527f4141353020706f73744f70207265766572746564000000000000000000000000608082015281604082015201906109ea565b60005b828110612eea57505050565b600190612ef5612237565b612f008286866124ec565b612f0981612f6a565b612f138282612955565b505050612f2360608201826122fa565b905015612f5957612f3d60009291602084930151906142c3565b9082602083519301915af150612f51611efa565b505b01612ede565b5050612f53565b356105c6816105c9565b612f9d90612f7b60408201826122fa565b91612f95813591612f8b836105c9565b60e08101906122fa565b93909261435d565b8051612fa65750565b6119a590604051918291631101335b60e11b8352600060048401526040602484015260448301906109ea565b939291612ff8906001600160a01b036040931686526060602087015260608601906109ea565b930152565b939094613008611f94565b5060009280156132805761304d935061301f611ee5565b5091600061302f5a8860036146f4565b5a906040519687928392631efc84dd60e31b84528c60048501612fd2565b0381836001600160a01b037f0000000000000000000000000000000000000000000000000000000000000000165af19081156112d3576000948592613262575b5081948092811561323f5750506130aa9095929394955b85611bb3565b806001600160a01b037f000000000000000000000000000000000000000000000000000000000000000016965b846130e28885611ed8565b10613210575a6130f188611b91565b116131b557918893918796959360008c8b61312461311b613115886131449f611bb3565b60011c90565b809a60036146f4565b835a936040519e8f9586948593631efc84dd60e31b855260048501612fd2565b03925af19889156112d357600090819a61318f575b501561317a5750505061316b83611ec9565b95915b939495919290926130d7565b93965093613189919750611ba5565b9461316e565b906131ad929a503d8091833e6131a581836104d7565b810190612c92565b989038613159565b509550939550505093506131c761232d565b926131d0610539565b93600085526000602086015260408501526131e9610539565b928352602083015260408201526131fe610539565b60018152916020830152604082015290565b9650965050919550506132329150613226610539565b93845215156020840152565b6040820152612bf3610539565b96509650505094505050613232613254610539565b600081529215156020840152565b909461327892503d8091833e6131a581836104d7565b90933861308d565b506132b2915a90846132945a8960036146f4565b5a906040519687928392631efc84dd60e31b84528d60048501612fd2565b0381836001600160a01b037f0000000000000000000000000000000000000000000000000000000000000000165af19384156112d357858095613317575b5050839461330081935a90611ed8565b94811561323f5750506130aa9095929394956130a4565b909194506133309295503d8091833e6131a581836104d7565b9390939238806132f0565b939094613346611f94565b5060009280156134c45761336d935061335d611ee5565b5091600061302f5a8860016146f4565b0381836001600160a01b037f0000000000000000000000000000000000000000000000000000000000000000165af19081156112d35760009485926134a6575b5081948092811561323f5750506133c990959293949585611bb3565b806001600160a01b037f000000000000000000000000000000000000000000000000000000000000000016965b846134018885611ed8565b10613210575a61341088611b91565b116131b557918893918796959360008c8b6131246134346131158861343d9f611bb3565b809a60016146f4565b03925af19889156112d357600090819a613488575b50156134735750505061346483611ec9565b95915b939495919290926133f6565b93965093613482919750611ba5565b94613467565b9061349e929a503d8091833e6131a581836104d7565b989038613452565b90946134bc92503d8091833e6131a581836104d7565b9093386133ad565b506134d8915a90846132945a8960016146f4565b0381836001600160a01b037f0000000000000000000000000000000000000000000000000000000000000000165af19384156112d35785809561353d575b5050839461352681935a90611ed8565b94811561323f5750506133c99095929394956130a4565b909194506135569295503d8091833e6131a581836104d7565b939093923880613516565b93909461356c611f94565b5060009280156136ea576135939350613583611ee5565b5091600061302f5a8860026146f4565b0381836001600160a01b037f0000000000000000000000000000000000000000000000000000000000000000165af19081156112d35760009485926136cc575b5081948092811561323f5750506135ef90959293949585611bb3565b806001600160a01b037f000000000000000000000000000000000000000000000000000000000000000016965b846136278885611ed8565b10613210575a61363688611b91565b116131b557918893918796959360008c8b61312461365a613115886136639f611bb3565b809a60026146f4565b03925af19889156112d357600090819a6136ae575b50156136995750505061368a83611ec9565b95915b9394959192909261361c565b939650936136a8919750611ba5565b9461368d565b906136c4929a503d8091833e6131a581836104d7565b989038613678565b90946136e292503d8091833e6131a581836104d7565b9093386135d3565b506136fe915a90846132945a8960026146f4565b0381836001600160a01b037f0000000000000000000000000000000000000000000000000000000000000000165af19384156112d357858095613763575b5050839461374c81935a90611ed8565b94811561323f5750506135ef9095929394956130a4565b9091945061377c9295503d8091833e6131a581836104d7565b93909392388061373c565b1561378e57565b606460405162461bcd60e51b815260206004820152601d60248201527f4141393320696e76616c6964207061796d6173746572416e64446174610000006044820152fd5b613869906137ef6137e282612f60565b6001600160a01b03168452565b6020810135602084015261381c6080820135906fffffffffffffffffffffffffffffffff8260801c921690565b6060850152604084015260a081013560c084015261385360c0820135906fffffffffffffffffffffffffffffffff8260801c921690565b61010085015261012084015260e08101906122fa565b9081156138a55761388d8260e092613888603461050897961015613787565b614930565b60a085015260808401526001600160a01b0316910152565b505060a081600060e0819401528260808201520152565b91906040838203126103d457825167ffffffffffffffff81116103d4576020916138e7918501612c50565b92015190565b9035601e19823603018112156103d457016020813591019167ffffffffffffffff82116103d45781360383136103d457565b6105c69161393d81613930846105da565b6001600160a01b03169052565b602082013560208201526139d36139c761398e61397361396060408701876138ed565b61012060408801526101208701916122bc565b61398060608701876138ed565b9086830360608801526122bc565b6080850135608085015260a085013560a085015260c085013560c08501526139b960e08601866138ed565b9085830360e08701526122bc565b926101008101906138ed565b916101008185039101526122bc565b6139fa6040929594939560608352606083019061391f565b9460208201520152565b60a0906105c69392815260606020820152600d60608201527f4141333320726576657274656400000000000000000000000000000000000000608082015281604082015201906109ea565b929390915a92815190613a6c60e08301516001600160a01b031690565b91613a8a836001600160a01b03166000526000602052604060002090565b8054898110613bd1576001600160a01b0360206080600097958d9795613aec9d9e8a960390550151970151926040519a8b96879586937f52b7512c000000000000000000000000000000000000000000000000000000008552600485016139e2565b03931686f19384600091600096613baa575b50613b295785613b0c612e25565b906119a56040519283926365c8fd4d60e01b845260048401613a04565b9491925a900311613b375750565b60408051631101335b60e11b815260048101929092526024820152602760448201527f41413336206f766572207061796d6173746572566572696669636174696f6e4760648201527f61734c696d697400000000000000000000000000000000000000000000000000608482015260a490fd5b909550613bca91503d806000833e613bc281836104d7565b8101906138bc565b9438613afe565b6119a589604051918291631101335b60e11b835260048301608091815260406020820152601e60408201527f41413331207061796d6173746572206465706f73697420746f6f206c6f77000060608201520190565b929190612ff860209160408652604086019061391f565b6001600160a01b0316600052600060205260406000208054918201809211611ba05781905590565b613c766001600160a01b0391614968565b9116613d4157613ced57613c916001600160a01b0391614968565b5016613c9957565b604051631101335b60e11b8152806119a5600060048301608091815260406020820152601460408201527f41413334207369676e6174757265206572726f7200000000000000000000000060608201520190565b604051631101335b60e11b8152806119a5600060048301608091815260406020820152601760408201527f414132322065787069726564206f72206e6f742064756500000000000000000060608201520190565b6084604051631101335b60e11b81526000600482015260406024820152601460448201527f41413234207369676e6174757265206572726f720000000000000000000000006064820152fd5b906001600160a01b03613d9e612436565b9216600052600060205263ffffffff6001604060002001546001600160701b038160081c16845260781c166020830152565b908160209103126103d4575190565b60a0906105c69392815260606020820152600d60608201527f4141323320726576657274656400000000000000000000000000000000000000608082015281604082015201906109ea565b929091613ead6020600095855193613e7760e0613e4e87516001600160a01b031690565b96613e698a8c613e6160408901896122fa565b929091614a3b565b01516001600160a01b031690565b91886001600160a01b03819416159889613f4b575b85015191604051968795869485936306608bdf60e21b8552600485016139e2565b03926001600160a01b03881690f1859181613f1a575b50613eee5784613ed1612e25565b906119a56040519283926365c8fd4d60e01b845260048401613ddf565b939192613ef9575050565b613f16906001600160a01b03166000526000602052604060002090565b5050565b613f3d91925060203d602011613f44575b613f3581836104d7565b810190613dd0565b9038613ec3565b503d613f2b565b9350613f6a876001600160a01b03166000526000602052604060002090565b548015613f7d575084815b949050613e8c565b85908203613f75565b94929193906020613ff691865193613fbd60e0613faa87516001600160a01b031690565b96613e698b8d613e6160408901896122fa565b916001600160a01b03600093161598896140c3575b84600091015191604051968795869485936306608bdf60e21b8552600485016139e2565b03926001600160a01b03881690f1600091816140a2575b5061401b5785613ed1612e25565b94929361402757505050565b614044906001600160a01b03166000526000602052604060002090565b918254908183116140555750039055565b60408051631101335b60e11b815260048101929092526024820152601760448201527f41413231206469646e2774207061792070726566756e640000000000000000006064820152608490fd5b6140bc91925060203d602011613f4457613f3581836104d7565b903861400d565b92506140e2866001600160a01b03166000526000602052604060002090565b54878111156140fa5750600084815b94915050613fd2565b8460009189036140f1565b6001600160a01b0316600052600160205267ffffffffffffffff6141438260401c6040600020906001600160c01b0316600052602052604060002090565b9182549261415084611c56565b9055161490565b6101206101008201519101518082146141ad577f59e3bb5c9eacf8e7a9c3802366751badc68d4d97d3e35b1744045784c52f20dd54806141a7575048905b01808210156141a2575090565b905090565b90614195565b5090565b9190917f49628fd1471006c1482da88028e9ce4dbb080b815c9b0344d39e5a8e6ec1419f608060208301519251946001600160a01b038651169460206001600160a01b0360e089015116970151916040519283526000602084015260408301526060820152a4565b9060807f49628fd1471006c1482da88028e9ce4dbb080b815c9b0344d39e5a8e6ec1419f9160208401519351956001600160a01b038751169560206001600160a01b0360e08a015116980151926040519384521515602084015260408301526060820152a4565b60208101519051907f67b4fa9642f42120bf031f3051d1824b0fe25627945b27b8a6a65d5761d5482e6020806001600160a01b03855116940151604051908152a3565b919082356142d0816105c9565b9260608101638dd7712f60e01b7fffffffff0000000000000000000000000000000000000000000000000000000061430883856122fa565b90600360009211614354575b50160361433f57506105c690611071604051938492638dd7712f60e01b602085015260248401613c26565b6105c6925061434d916122fa565b3691610574565b90503538614314565b50929192159081614412575b506143d5576014811015614382575b50506105c6611ee5565b6014116103d4573560601c3b1561439a573880614378565b6040516143a86040826104d7565b601b81527f41413330207061796d6173746572206e6f74206465706c6f7965640000000000602082015290565b50506040516143e56040826104d7565b601981527f41413230206163636f756e74206e6f74206465706c6f79656400000000000000602082015290565b90503b1538614369565b919091610120818403126103d457614432610548565b9261443c826105da565b845260208201356020850152604082013567ffffffffffffffff81116103d457816144689184016105ab565b6040850152606082013567ffffffffffffffff81116103d4578161448d9184016105ab565b60608501526080820135608085015260a082013560a085015260c082013560c085015260e082013567ffffffffffffffff81116103d457816144d09184016105ab565b60e085015261010082013567ffffffffffffffff81116103d4576144f492016105ab565b610100830152565b60041115610a7a57565b91926fffffffffffffffffffffffffffffffff196034959481936bffffffffffffffffffffffff199060601b16855216601484015216602482015261455482518093602086850191016109c7565b010190565b80516001600160a01b031682526105c691602082015160208201526101006145da6145aa614598604086015161012060408701526101208601906109ea565b606086015185820360608701526109ea565b6080850151608085015260a085015160a085015260c085015160c085015260e085015184820360e08601526109ea565b920151906101008184039101526109ea565b60806101a091610120815161460a8682516001600160a01b03169052565b602081015160208701526040810151604087015260608101516060870152838101518487015260a081015160a087015260c081015160c087015261465e60e082015160e08801906001600160a01b03169052565b61010081015161010087015201516101208501526020810151610140850152604081015161016085015260608101516101808501520151910152565b6146ca6146bf6102009396959496600084526102206020850152610220840190614559565b9560408301906145ec565b0152565b610200906146ca6146bf6000949695968584526102206020850152610220840190614559565b916146fd612237565b92614708368461441c565b614711826144fc565b6002821461484c57614722826144fc565b600382146147ce5750806147376001926144fc565b146147815760405162461bcd60e51b815260206004820152600c60248201527f496e76616c6964206d6f646500000000000000000000000000000000000000006044820152606490fd5b6147966105c6926020611071950151906142c3565b9390916040519485937f4440347300000000000000000000000000000000000000000000000000000000602086015260248501612fd2565b9190506fffffffffffffffffffffffffffffffff61480c61480560806105c69601356fffffffffffffffffffffffffffffffff1690565b9260801b90565b91161760808201526110716040519384927fc579f76b000000000000000000000000000000000000000000000000000000006020850152602484016146ce565b9161107191506fffffffffffffffffffffffffffffffff19846148d860e06105c697016148ca61488561487f83866122fa565b90614930565b9391905060609160e08b019660348851511161490e575b505060405196879460801b16906fffffffffffffffffffffffffffffffff198960801b169060208601614506565b03601f1981018452836104d7565b526040519485937f21e60b370000000000000000000000000000000000000000000000000000000060208601526024850161469a565b61492892935061434d91614921916122fa565b80916126f8565b90388061489c565b9091826014116103d457813591836024116103d4576014810135936034116103d45760609290921c92608090811c9260240135901c90565b8015614a3257614976611f75565b5065ffffffffffff8160a01c16908115614a24575b614a06906149ed6149e2604051946149a286610482565b6001600160a01b038416865265ffffffffffff602087019460d01c1684526149d66040870191829065ffffffffffff169052565b5165ffffffffffff1690565b65ffffffffffff1690565b4211908115614a09575b5091516001600160a01b031690565b91565b51614a1c915065ffffffffffff166149e2565b4210386149f7565b65ffffffffffff915061498b565b50600090600090565b92909181614a4a575b50505050565b8251516001600160a01b031693843b614c665760408451015160206040518092632b870d1b60e11b825281600081614a868a8a600484016122dd565b03926001600160a01b037f00000000000000000000000000000000000000000000000000000000000000001690f19081156112d357600091614c47575b506001600160a01b038116958615614bf2576001600160a01b0316809603614b9d573b15614b50575061282f6128297fd51a9c61267aa6196961883ecf5ff2da6619c37dac0fa92122513fb32c032d2d93614b1d936126ea565b602083810151935160e00151604080516001600160a01b039485168152939091169183019190915290a338808080614a44565b60408051631101335b60e11b815260048101929092526024820152602060448201527f4141313520696e6974436f6465206d757374206372656174652073656e6465726064820152608490fd5b6119a582604051918291631101335b60e11b835260048301608091815260406020820152602060408201527f4141313420696e6974436f6465206d7573742072657475726e2073656e64657260608201520190565b6119a583604051918291631101335b60e11b835260048301608091815260406020820152601b60408201527f4141313320696e6974436f6465206661696c6564206f72204f4f47000000000060608201520190565b614c60915060203d6020116112cc576112be81836104d7565b38614ac3565b60408051631101335b60e11b815260048101929092526024820152601f60448201527f414131302073656e64657220616c726561647920636f6e7374727563746564006064820152608490fd5b81604051918237209056fea264697066735822122080228f9f6eac4463a1b4dea8344571095fdb51a2ca8bae4c9e626650785172d864736f6c634300081c003360808060405234601557610179908161001b8239f35b600080fdfe6080600436101561000f57600080fd5b60003560e01c63570e1a361461002457600080fd5b3461013e57602036600319011261013e5760043567ffffffffffffffff811161013e573660238201121561013e57806004013567ffffffffffffffff811161013e57366024828401011161013e576000928160141161013a5760131982019167ffffffffffffffff831161012657600b8101601f19908116603f0116820167ffffffffffffffff8111838210176101125760246020959387600c819795829560405286845289840196603889018837830101525193013560601c5af19051901561010a575b60209073ffffffffffffffffffffffffffffffffffffffff60405191168152f35b5060006100e9565b602486634e487b7160e01b81526041600452fd5b602485634e487b7160e01b81526041600452fd5b8380fd5b600080fdfea264697066735822122072ff49753b0cbcefccc4cf4d2c3f11f5f4b5772f08790e4bbb6a09736742406764736f6c634300081c0033","linkReferences":{}},"methodIdentifiers":{"_paymasterValidation(uint256,(address,uint256,bytes,bytes,bytes32,uint256,bytes32,bytes,bytes),((address,uint256,uint256,uint256,uint256,uint256,uint256,address,uint256,uint256),bytes32,uint256,uint256,uint256))":"21e60b37","_validatePrepayment(uint256,(address,uint256,bytes,bytes,bytes32,uint256,bytes32,bytes,bytes),((address,uint256,uint256,uint256,uint256,uint256,uint256,address,uint256,uint256),bytes32,uint256,uint256,uint256),bool)":"c579f76b","addStake(uint32)":"0396cb60","balanceOf(address)":"70a08231","binarySearchCallGas((address,uint256,bytes,bytes,bytes32,uint256,bytes32,bytes,bytes)[],(address,uint256,bytes,bytes,bytes32,uint256,bytes32,bytes,bytes),address,uint256,uint256,uint256)":"acbe911e","binarySearchPaymasterVerificationGas((address,uint256,bytes,bytes,bytes32,uint256,bytes32,bytes,bytes)[],(address,uint256,bytes,bytes,bytes32,uint256,bytes32,bytes,bytes),address,uint256,uint256,uint256)":"d72f2593","binarySearchVerificationGas((address,uint256,bytes,bytes,bytes32,uint256,bytes32,bytes,bytes)[],(address,uint256,bytes,bytes,bytes32,uint256,bytes32,bytes,bytes),address,uint256,uint256,uint256)":"212eccc6","delegateAndRevert(address,bytes)":"850aaf62","depositTo(address)":"b760faf9","deposits(address)":"fc7e286d","getDepositInfo(address)":"5287ce12","getNonce(address,uint192)":"35567e1a","getSenderAddress(bytes)":"9b249f69","getUserOpHash((address,uint256,bytes,bytes,bytes32,uint256,bytes32,bytes,bytes))":"22cdde4c","handleAggregatedOps(((address,uint256,bytes,bytes,bytes32,uint256,bytes32,bytes,bytes)[],address,bytes)[],address)":"dbed18e0","handleOps((address,uint256,bytes,bytes,bytes32,uint256,bytes32,bytes,bytes)[],address)":"765e827f","incrementNonce(uint192)":"0bd28e3b","innerHandleOp(bytes,((address,uint256,uint256,uint256,uint256,uint256,uint256,address,uint256,uint256),bytes32,uint256,uint256,uint256),bytes,uint256)":"0da82661","nonceSequenceNumber(address,uint192)":"1b2e01b8","simulateCall(address,bytes,uint256)":"f7e426e8","simulateCallAndRevert(address,bytes,uint256)":"44403473","simulateHandleOp((address,uint256,bytes,bytes,bytes32,uint256,bytes32,bytes,bytes)[],(address,uint256,bytes,bytes,bytes32,uint256,bytes32,bytes,bytes))":"af324943","simulateHandleOpSingle((address,uint256,bytes,bytes,bytes32,uint256,bytes32,bytes,bytes),address,bytes)":"7da0c462","simulateValidation((address,uint256,bytes,bytes,bytes32,uint256,bytes32,bytes,bytes))":"c3bce009","simulateValidation((address,uint256,bytes,bytes,bytes32,uint256,bytes32,bytes,bytes)[],(address,uint256,bytes,bytes,bytes32,uint256,bytes32,bytes,bytes))":"aec321fb","unlockStake()":"bb9fe6bf","withdrawStake(address)":"c23a5cea","withdrawTo(address,uint256)":"205c2878"},"id":21}