{"abi":[{"type":"constructor","inputs":[],"stateMutability":"nonpayable"},{"type":"receive","stateMutability":"payable"},{"type":"function","name":"addStake","inputs":[{"name":"unstakeDelaySec","type":"uint32","internalType":"uint32"}],"outputs":[],"stateMutability":"payable"},{"type":"function","name":"balanceOf","inputs":[{"name":"account","type":"address","internalType":"address"}],"outputs":[{"name":"","type":"uint256","internalType":"uint256"}],"stateMutability":"view"},{"type":"function","name":"delegateAndRevert","inputs":[{"name":"target","type":"address","internalType":"address"},{"name":"data","type":"bytes","internalType":"bytes"}],"outputs":[],"stateMutability":"nonpayable"},{"type":"function","name":"depositTo","inputs":[{"name":"account","type":"address","internalType":"address"}],"outputs":[],"stateMutability":"payable"},{"type":"function","name":"getDepositInfo","inputs":[{"name":"account","type":"address","internalType":"address"}],"outputs":[{"name":"info","type":"tuple","internalType":"struct IStakeManager.DepositInfo","components":[{"name":"deposit","type":"uint256","internalType":"uint256"},{"name":"staked","type":"bool","internalType":"bool"},{"name":"stake","type":"uint112","internalType":"uint112"},{"name":"unstakeDelaySec","type":"uint32","internalType":"uint32"},{"name":"withdrawTime","type":"uint48","internalType":"uint48"}]}],"stateMutability":"view"},{"type":"function","name":"getDomainSeparatorV4","inputs":[],"outputs":[{"name":"","type":"bytes32","internalType":"bytes32"}],"stateMutability":"view"},{"type":"function","name":"getNonce","inputs":[{"name":"sender","type":"address","internalType":"address"},{"name":"key","type":"uint192","internalType":"uint192"}],"outputs":[{"name":"nonce","type":"uint256","internalType":"uint256"}],"stateMutability":"view"},{"type":"function","name":"getPackedUserOpTypeHash","inputs":[],"outputs":[{"name":"","type":"bytes32","internalType":"bytes32"}],"stateMutability":"pure"},{"type":"function","name":"getSenderAddress","inputs":[{"name":"initCode","type":"bytes","internalType":"bytes"}],"outputs":[],"stateMutability":"nonpayable"},{"type":"function","name":"getUserOpHash","inputs":[{"name":"userOp","type":"tuple","internalType":"struct PackedUserOperation","components":[{"name":"sender","type":"address","internalType":"address"},{"name":"nonce","type":"uint256","internalType":"uint256"},{"name":"initCode","type":"bytes","internalType":"bytes"},{"name":"callData","type":"bytes","internalType":"bytes"},{"name":"accountGasLimits","type":"bytes32","internalType":"bytes32"},{"name":"preVerificationGas","type":"uint256","internalType":"uint256"},{"name":"gasFees","type":"bytes32","internalType":"bytes32"},{"name":"paymasterAndData","type":"bytes","internalType":"bytes"},{"name":"signature","type":"bytes","internalType":"bytes"}]}],"outputs":[{"name":"","type":"bytes32","internalType":"bytes32"}],"stateMutability":"view"},{"type":"function","name":"handleAggregatedOps","inputs":[{"name":"opsPerAggregator","type":"tuple[]","internalType":"struct IEntryPoint.UserOpsPerAggregator[]","components":[{"name":"userOps","type":"tuple[]","internalType":"struct PackedUserOperation[]","components":[{"name":"sender","type":"address","internalType":"address"},{"name":"nonce","type":"uint256","internalType":"uint256"},{"name":"initCode","type":"bytes","internalType":"bytes"},{"name":"callData","type":"bytes","internalType":"bytes"},{"name":"accountGasLimits","type":"bytes32","internalType":"bytes32"},{"name":"preVerificationGas","type":"uint256","internalType":"uint256"},{"name":"gasFees","type":"bytes32","internalType":"bytes32"},{"name":"paymasterAndData","type":"bytes","internalType":"bytes"},{"name":"signature","type":"bytes","internalType":"bytes"}]},{"name":"aggregator","type":"address","internalType":"contract IAggregator"},{"name":"signature","type":"bytes","internalType":"bytes"}]},{"name":"beneficiary","type":"address","internalType":"address payable"}],"outputs":[],"stateMutability":"nonpayable"},{"type":"function","name":"handleOps","inputs":[{"name":"ops","type":"tuple[]","internalType":"struct PackedUserOperation[]","components":[{"name":"sender","type":"address","internalType":"address"},{"name":"nonce","type":"uint256","internalType":"uint256"},{"name":"initCode","type":"bytes","internalType":"bytes"},{"name":"callData","type":"bytes","internalType":"bytes"},{"name":"accountGasLimits","type":"bytes32","internalType":"bytes32"},{"name":"preVerificationGas","type":"uint256","internalType":"uint256"},{"name":"gasFees","type":"bytes32","internalType":"bytes32"},{"name":"paymasterAndData","type":"bytes","internalType":"bytes"},{"name":"signature","type":"bytes","internalType":"bytes"}]},{"name":"beneficiary","type":"address","internalType":"address payable"}],"outputs":[],"stateMutability":"nonpayable"},{"type":"function","name":"incrementNonce","inputs":[{"name":"key","type":"uint192","internalType":"uint192"}],"outputs":[],"stateMutability":"nonpayable"},{"type":"function","name":"initDomainSeparator","inputs":[],"outputs":[],"stateMutability":"nonpayable"},{"type":"function","name":"innerHandleOp","inputs":[{"name":"callData","type":"bytes","internalType":"bytes"},{"name":"opInfo","type":"tuple","internalType":"struct EntryPointFilterOpsOverride08.UserOpInfo","components":[{"name":"mUserOp","type":"tuple","internalType":"struct EntryPointFilterOpsOverride08.MemoryUserOp","components":[{"name":"sender","type":"address","internalType":"address"},{"name":"nonce","type":"uint256","internalType":"uint256"},{"name":"verificationGasLimit","type":"uint256","internalType":"uint256"},{"name":"callGasLimit","type":"uint256","internalType":"uint256"},{"name":"paymasterVerificationGasLimit","type":"uint256","internalType":"uint256"},{"name":"paymasterPostOpGasLimit","type":"uint256","internalType":"uint256"},{"name":"preVerificationGas","type":"uint256","internalType":"uint256"},{"name":"paymaster","type":"address","internalType":"address"},{"name":"maxFeePerGas","type":"uint256","internalType":"uint256"},{"name":"maxPriorityFeePerGas","type":"uint256","internalType":"uint256"}]},{"name":"userOpHash","type":"bytes32","internalType":"bytes32"},{"name":"prefund","type":"uint256","internalType":"uint256"},{"name":"contextOffset","type":"uint256","internalType":"uint256"},{"name":"preOpGas","type":"uint256","internalType":"uint256"}]},{"name":"context","type":"bytes","internalType":"bytes"}],"outputs":[{"name":"actualGasCost","type":"uint256","internalType":"uint256"}],"stateMutability":"nonpayable"},{"type":"function","name":"nonceSequenceNumber","inputs":[{"name":"","type":"address","internalType":"address"},{"name":"","type":"uint192","internalType":"uint192"}],"outputs":[{"name":"","type":"uint256","internalType":"uint256"}],"stateMutability":"view"},{"type":"function","name":"senderCreator","inputs":[],"outputs":[{"name":"","type":"address","internalType":"contract ISenderCreator"}],"stateMutability":"view"},{"type":"function","name":"supportsInterface","inputs":[{"name":"interfaceId","type":"bytes4","internalType":"bytes4"}],"outputs":[{"name":"","type":"bool","internalType":"bool"}],"stateMutability":"view"},{"type":"function","name":"unlockStake","inputs":[],"outputs":[],"stateMutability":"nonpayable"},{"type":"function","name":"withdrawStake","inputs":[{"name":"withdrawAddress","type":"address","internalType":"address payable"}],"outputs":[],"stateMutability":"nonpayable"},{"type":"function","name":"withdrawTo","inputs":[{"name":"withdrawAddress","type":"address","internalType":"address payable"},{"name":"withdrawAmount","type":"uint256","internalType":"uint256"}],"outputs":[],"stateMutability":"nonpayable"},{"type":"event","name":"AccountDeployed","inputs":[{"name":"userOpHash","type":"bytes32","indexed":true,"internalType":"bytes32"},{"name":"sender","type":"address","indexed":true,"internalType":"address"},{"name":"factory","type":"address","indexed":false,"internalType":"address"},{"name":"paymaster","type":"address","indexed":false,"internalType":"address"}],"anonymous":false},{"type":"event","name":"BeforeExecution","inputs":[],"anonymous":false},{"type":"event","name":"Deposited","inputs":[{"name":"account","type":"address","indexed":true,"internalType":"address"},{"name":"totalDeposit","type":"uint256","indexed":false,"internalType":"uint256"}],"anonymous":false},{"type":"event","name":"PostOpRevertReason","inputs":[{"name":"userOpHash","type":"bytes32","indexed":true,"internalType":"bytes32"},{"name":"sender","type":"address","indexed":true,"internalType":"address"},{"name":"nonce","type":"uint256","indexed":false,"internalType":"uint256"},{"name":"revertReason","type":"bytes","indexed":false,"internalType":"bytes"}],"anonymous":false},{"type":"event","name":"SignatureAggregatorChanged","inputs":[{"name":"aggregator","type":"address","indexed":true,"internalType":"address"}],"anonymous":false},{"type":"event","name":"StakeLocked","inputs":[{"name":"account","type":"address","indexed":true,"internalType":"address"},{"name":"totalStaked","type":"uint256","indexed":false,"internalType":"uint256"},{"name":"unstakeDelaySec","type":"uint256","indexed":false,"internalType":"uint256"}],"anonymous":false},{"type":"event","name":"StakeUnlocked","inputs":[{"name":"account","type":"address","indexed":true,"internalType":"address"},{"name":"withdrawTime","type":"uint256","indexed":false,"internalType":"uint256"}],"anonymous":false},{"type":"event","name":"StakeWithdrawn","inputs":[{"name":"account","type":"address","indexed":true,"internalType":"address"},{"name":"withdrawAddress","type":"address","indexed":false,"internalType":"address"},{"name":"amount","type":"uint256","indexed":false,"internalType":"uint256"}],"anonymous":false},{"type":"event","name":"UserOperationEvent","inputs":[{"name":"userOpHash","type":"bytes32","indexed":true,"internalType":"bytes32"},{"name":"sender","type":"address","indexed":true,"internalType":"address"},{"name":"paymaster","type":"address","indexed":true,"internalType":"address"},{"name":"nonce","type":"uint256","indexed":false,"internalType":"uint256"},{"name":"success","type":"bool","indexed":false,"internalType":"bool"},{"name":"actualGasCost","type":"uint256","indexed":false,"internalType":"uint256"},{"name":"actualGasUsed","type":"uint256","indexed":false,"internalType":"uint256"}],"anonymous":false},{"type":"event","name":"UserOperationPrefundTooLow","inputs":[{"name":"userOpHash","type":"bytes32","indexed":true,"internalType":"bytes32"},{"name":"sender","type":"address","indexed":true,"internalType":"address"},{"name":"nonce","type":"uint256","indexed":false,"internalType":"uint256"}],"anonymous":false},{"type":"event","name":"UserOperationRevertReason","inputs":[{"name":"userOpHash","type":"bytes32","indexed":true,"internalType":"bytes32"},{"name":"sender","type":"address","indexed":true,"internalType":"address"},{"name":"nonce","type":"uint256","indexed":false,"internalType":"uint256"},{"name":"revertReason","type":"bytes","indexed":false,"internalType":"bytes"}],"anonymous":false},{"type":"event","name":"Withdrawn","inputs":[{"name":"account","type":"address","indexed":true,"internalType":"address"},{"name":"withdrawAddress","type":"address","indexed":false,"internalType":"address"},{"name":"amount","type":"uint256","indexed":false,"internalType":"uint256"}],"anonymous":false},{"type":"error","name":"DelegateAndRevert","inputs":[{"name":"success","type":"bool","internalType":"bool"},{"name":"ret","type":"bytes","internalType":"bytes"}]},{"type":"error","name":"FailedOp","inputs":[{"name":"opIndex","type":"uint256","internalType":"uint256"},{"name":"reason","type":"string","internalType":"string"}]},{"type":"error","name":"FailedOpWithRevert","inputs":[{"name":"opIndex","type":"uint256","internalType":"uint256"},{"name":"reason","type":"string","internalType":"string"},{"name":"inner","type":"bytes","internalType":"bytes"}]},{"type":"error","name":"PostOpReverted","inputs":[{"name":"returnData","type":"bytes","internalType":"bytes"}]},{"type":"error","name":"ReentrancyGuardReentrantCall","inputs":[]},{"type":"error","name":"SenderAddressResult","inputs":[{"name":"sender","type":"address","internalType":"address"}]},{"type":"error","name":"SignatureValidationFailed","inputs":[{"name":"aggregator","type":"address","internalType":"address"}]}],"bytecode":{"object":"0x60808060405234601557615196908161001a8239f35b5f80fdfe6101606040526004361015610024575b3615610019575f80fd5b6100223361317b565b005b5f610140525f3560e01c806242dc531461257257806301ffc9a7146124205780630396cb601461206557806309ccb8801461200c5780630bd28e3b14611f7057806313c65a6e14611f32578063154e58dc14611ed75780631b2e01b814611e41578063205c287814611ca057806322cdde4c14611c1c57806335567e1a14611b625780635287ce1214611a4257806370a08231146119d7578063765e827f14611939578063850aaf62146118745780639b249f6914611726578063b760faf9146116e5578063bb9fe6bf146114f6578063c23a5cea14611253578063d12e825d1461114f5763dbed18e00361000f5734610ec95761012136612ce2565b6101005260e0526101306136de565b6101405190815b60e0518110610f2e575061014a82612fc1565b61012052610140516080526101405160c0525b60e05160c0511061029b577fbb47ee3e183a558b1a2ff0874b079f3fc5478b7454eacf2bfc5af2ff5878f9726101405161014051a161014051608081905290815b60e05181106101e1576101b48361010051614905565b610140517f9b779b17422d0df92223018b32b4d1fa46e071723d6817e2486d003becc55f005d6101405180f35b6102436101f18260e051856131ee565b73ffffffffffffffffffffffffffffffffffffffff61021260208301613282565b167f575ff3acadd5ab348fe1855e217e0f3678f8d767d7494c9f9fefbee2e17cca4d6101405161014051a28061322e565b9061014051915b80831061025c5750505060010161019e565b909194600190610289610270888587613090565b61027f608051610120516130fd565b5190608051614236565b0195816080510160805201919061024a565b6102aa60c05160e051836131ee565b73ffffffffffffffffffffffffffffffffffffffff6102d860206102ce848061322e565b60a0529301613282565b61014051911691905b60a05181106103055750505060a05160805101608052600160c0510160c05261015d565b6103168160805101610120516130fd565b516103248260a05185613090565b61014051915a81519273ffffffffffffffffffffffffffffffffffffffff61034b82613282565b168452602081810135908501526fffffffffffffffffffffffffffffffff6080808301358281166060880152811c604087015260a083013560c0808801919091528301359182166101008701521c6101208501526103ac60e08201826132a3565b9081610e15575b5050604051936103c282612e75565b6020850152846040526040810151946effffffffffffffffffffffffffffff8660c08401511760608401511760808401511760a084015117610100840151176101208401511711610daf5750604081015160608201510160808201510160a08201510160c0820151016101008201510294856040860152845173ffffffffffffffffffffffffffffffffffffffff60e08183511692610475898d61046960408b018b6132a3565b92909160805101614c92565b0151169661014051978015610d7e575b87516040810151905173ffffffffffffffffffffffffffffffffffffffff169061014051506040519a8b8960208d01519260208301937f19822f7c00000000000000000000000000000000000000000000000000000000855260248401926104ec9361510c565b037fffffffffffffffffffffffffffffffffffffffffffffffffffffffffffffffe081018d5261051c908d612bb9565b61014051908c5190846101405190602095f161014051519a3d602003610d73575b60405215610c80575015610c02575b505073ffffffffffffffffffffffffffffffffffffffff825116602083015190610140515260016020526040610140512077ffffffffffffffffffffffffffffffffffffffffffffffff8260401c165f5260205267ffffffffffffffff60405f20918254926105ba84612e0c565b90551603610b99575a840311610b305760e0015160609073ffffffffffffffffffffffffffffffffffffffff16610827575b73ffffffffffffffffffffffffffffffffffffffff949260a0859360809360606106219801520135905a900301910152614bbb565b911685036107be576107555761064b73ffffffffffffffffffffffffffffffffffffffff91614bbb565b91166106ec5761065d576001016102e1565b60a490604051907f220266b600000000000000000000000000000000000000000000000000000000825260805101600482015260406024820152602160448201527f41413332207061796d61737465722065787069726564206f72206e6f7420647560648201527f65000000000000000000000000000000000000000000000000000000000000006084820152fd5b608482604051907f220266b600000000000000000000000000000000000000000000000000000000825260805101600482015260406024820152601460448201527f41413334207369676e6174757265206572726f720000000000000000000000006064820152fd5b608482604051907f220266b600000000000000000000000000000000000000000000000000000000825260805101600482015260406024820152601760448201527f414132322065787069726564206f72206e6f74206475650000000000000000006064820152fd5b608483604051907f220266b600000000000000000000000000000000000000000000000000000000825260805101600482015260406024820152601460448201527f41413234207369676e6174757265206572726f720000000000000000000000006064820152fd5b9897969594505a9883519961085b73ffffffffffffffffffffffffffffffffffffffff60e08d01511660408701519061512e565b15610ac75760807f52b7512c000000000000000000000000000000000000000000000000000000009798999a9b01516040516108dc816108b060208a015160408b015190602084019d8e52896024850161510c565b037fffffffffffffffffffffffffffffffffffffffffffffffffffffffffffffffe08101835282612bb9565b8651608073ffffffffffffffffffffffffffffffffffffffff60e08301511691015161014051918b61014051928551926101405191f1983d908161014051843e51948251604084019b8c519015918215610abb575b508115610a8b575b50610a065750601f7fffffffffffffffffffffffffffffffffffffffffffffffffffffffffffffffe09101160191826040525a90031161097a5750946105ec565b80887f220266b60000000000000000000000000000000000000000000000000000000060a4935260805101600482015260406024820152602760448201527f41413336206f766572207061796d6173746572566572696669636174696f6e4760648201527f61734c696d6974000000000000000000000000000000000000000000000000006084820152fd5b8b610a87610a12613425565b6040519384937f65c8fd4d0000000000000000000000000000000000000000000000000000000085526080510160048501526024840152600d60648401527f4141333320726576657274656400000000000000000000000000000000000000608484015260a0604484015260a4830190612d75565b0390fd5b9050601f7fffffffffffffffffffffffffffffffffffffffffffffffffffffffffffffffa084019101105f610939565b6040141591505f610931565b608487604051907f220266b600000000000000000000000000000000000000000000000000000000825260805101600482015260406024820152601e60448201527f41413331207061796d6173746572206465706f73697420746f6f206c6f7700006064820152fd5b608487604051907f220266b600000000000000000000000000000000000000000000000000000000825260805101600482015260406024820152601e60448201527f41413236206f76657220766572696669636174696f6e4761734c696d697400006064820152fd5b608488604051907f220266b600000000000000000000000000000000000000000000000000000000825260805101600482015260406024820152601a60448201527f4141323520696e76616c6964206163636f756e74206e6f6e63650000000000006064820152fd5b610c0b9161512e565b15610c17578b8061054c565b608488604051907f220266b600000000000000000000000000000000000000000000000000000000825260805101600482015260406024820152601760448201527f41413231206469646e2774207061792070726566756e640000000000000000006064820152fd5b8b903b610cf057608490604051907f220266b600000000000000000000000000000000000000000000000000000000825260805101600482015260406024820152601960448201527f41413230206163636f756e74206e6f74206465706c6f796564000000000000006064820152fd5b610cf8613425565b90610a876040519283927f65c8fd4d00000000000000000000000000000000000000000000000000000000845260805101600484015260606024840152600d60648401527f4141323320726576657274656400000000000000000000000000000000000000608484015260a0604484015260a4830190612d75565b61014051915061053d565b6101408051849052516020819052604090205490985081811115610da85750610140515b97610485565b8103610da2565b80887f220266b6000000000000000000000000000000000000000000000000000000006084935260805101600482015260406024820152601860448201527f41413934206761732076616c756573206f766572666c6f7700000000000000006064820152fd5b60348210610ed05781601411610ec95780359160248110610ec957603411610ec9576024810135608090811c60a0880152601490910135811c90860152606081901c15610e6b5760601c60e085015289806103b3565b60646040517f08c379a000000000000000000000000000000000000000000000000000000000815260206004820152601660248201527f4141393820696e76616c6964207061796d6173746572000000000000000000006044820152fd5b6101405180fd5b60646040517f08c379a000000000000000000000000000000000000000000000000000000000815260206004820152601d60248201527f4141393320696e76616c6964207061796d6173746572416e64446174610000006044820152fd5b610f3b8160e051846131ee565b92610f46848061322e565b919073ffffffffffffffffffffffffffffffffffffffff610f6960208801613282565b16956001871461111d5786610f86575b5050019250600101610137565b806040610f949201906132a3565b91873b15610ec957916040519283917f2dd8113300000000000000000000000000000000000000000000000000000000835286604484016040600486015252606483019160648860051b8501019281610140517ffffffffffffffffffffffffffffffffffffffffffffffffffffffffffffffee182360301915b8b82106110c357505050505081611054917ffffffffffffffffffffffffffffffffffffffffffffffffffffffffffffffffc85809503016024850152610140519561313d565b0381610140518a5af190816110a8575b5061109b57847f86a9f750000000000000000000000000000000000000000000000000000000006101405152600452602461014051fd5b929350839260015f610f79565b610140516110b591612bb9565b61014051610ec9575f611064565b9193967fffffffffffffffffffffffffffffffffffffffffffffffffffffffffffffff9c90879294969703018552863584811215610ec957602061110c60019385839401613344565b98019501920188969594939161100e565b867f86a9f750000000000000000000000000000000000000000000000000000000006101405152600452602461014051fd5b34610ec957610140517ffffffffffffffffffffffffffffffffffffffffffffffffffffffffffffffffc360112610ec957604080516007906020906111948482612bb9565b8281527f455243343333370000000000000000000000000000000000000000000000000091019081522081516001906020906111d08582612bb9565b828152017f310000000000000000000000000000000000000000000000000000000000000081522082519160208301937f8b73c3c69bb8fe3d512ecc4cf759cc79239f7b179b0ffacaa9a75d522b39400f855283015260608201524660808201523060a082015260a0815261124660c082612bb9565b5190206002556101405180f35b34610ec95760207ffffffffffffffffffffffffffffffffffffffffffffffffffffffffffffffffc360112610ec95761128a612c6a565b3361014051526101405160205260016040610140512001908154916dffffffffffffffffffffffffffff8360081c169283156114985760981c65ffffffffffff16801561143a5742106113dc5780547fffffffffffffff000000000000000000000000000000000000000000000000ff1690556040805173ffffffffffffffffffffffffffffffffffffffff831681526020810184905233917fb7c918e0e249f999e965cafeb6c664271b3f4317d296461500e71da39f0cbda391a2610140519182918291829173ffffffffffffffffffffffffffffffffffffffff165af1611371612e46565b501561137e576101405180f35b60646040517f08c379a000000000000000000000000000000000000000000000000000000000815260206004820152601860248201527f6661696c656420746f207769746864726177207374616b6500000000000000006044820152fd5b60646040517f08c379a000000000000000000000000000000000000000000000000000000000815260206004820152601b60248201527f5374616b65207769746864726177616c206973206e6f742064756500000000006044820152fd5b60646040517f08c379a000000000000000000000000000000000000000000000000000000000815260206004820152601d60248201527f6d7573742063616c6c20756e6c6f636b5374616b6528292066697273740000006044820152fd5b60646040517f08c379a000000000000000000000000000000000000000000000000000000000815260206004820152601460248201527f4e6f207374616b6520746f2077697468647261770000000000000000000000006044820152fd5b34610ec957610140517ffffffffffffffffffffffffffffffffffffffffffffffffffffffffffffffffc360112610ec9573361014051526101405160205260016040610140512001805463ffffffff8160781c169081156116875760ff16156116295765ffffffffffff4216019065ffffffffffff82116115f65780547fffffffffffffff000000000000ffffffffffffffffffffffffffffffffffff001678ffffffffffff00000000000000000000000000000000000000609884901b1617905560405165ffffffffffff909116815233907ffa9b3c14cc825c412c9ed81b3ba365a5b459439403f18829e572ed53a4180f0a90602090a26101405180f35b7f4e487b710000000000000000000000000000000000000000000000000000000061014051526011600452602461014051fd5b60646040517f08c379a000000000000000000000000000000000000000000000000000000000815260206004820152601160248201527f616c726561647920756e7374616b696e670000000000000000000000000000006044820152fd5b60646040517f08c379a000000000000000000000000000000000000000000000000000000000815260206004820152600a60248201527f6e6f74207374616b6564000000000000000000000000000000000000000000006044820152fd5b60207ffffffffffffffffffffffffffffffffffffffffffffffffffffffffffffffffc360112610ec95761171f61171a612c6a565b61317b565b6101405180f35b34610ec95760207ffffffffffffffffffffffffffffffffffffffffffffffffffffffffffffffffc360112610ec95760043567ffffffffffffffff8111610ec957602061177a6117d5923690600401612c8d565b73ffffffffffffffffffffffffffffffffffffffff611797613452565b16906040518095819482937f570e1a36000000000000000000000000000000000000000000000000000000008452876004850152602484019161313d565b039161014051905af180156118665773ffffffffffffffffffffffffffffffffffffffff916101405191611837575b507f6ca7b80600000000000000000000000000000000000000000000000000000000610140515216600452602461014051fd5b611859915060203d60201161185f575b6118518183612bb9565b810190613111565b82611804565b503d611847565b6040513d61014051823e3d90fd5b34610ec95760407ffffffffffffffffffffffffffffffffffffffffffffffffffffffffffffffffc360112610ec9576118ab612c6a565b60243567ffffffffffffffff8111610ec9576118cb903690600401612c8d565b604051929181908437820190610140518252610140519280610140519303915af46118f4612e46565b90610a876040519283927f9941055400000000000000000000000000000000000000000000000000000000845215156004840152604060248401526044830190612d75565b34610ec95761194736612ce2565b6119529291926136de565b61195b83612fc1565b611966818585613752565b5061014051927fbb47ee3e183a558b1a2ff0874b079f3fc5478b7454eacf2bfc5af2ff5878f9728480a161014051915b8583106119a7576101b48585614905565b9091936001906119cd6119bb878987613090565b6119c588866130fd565b519088614236565b0194019190611996565b34610ec95760207ffffffffffffffffffffffffffffffffffffffffffffffffffffffffffffffffc360112610ec95773ffffffffffffffffffffffffffffffffffffffff611a23612c6a565b1661014051526101405160205260206040610140512054604051908152f35b34610ec95760207ffffffffffffffffffffffffffffffffffffffffffffffffffffffffffffffffc360112610ec95773ffffffffffffffffffffffffffffffffffffffff611a8e612c6a565b604051611a9a81612b37565b6101405181526101405160208201526101405160408201526101405160608201526080610140519101521661014051526101405160205260a06040610140512065ffffffffffff604051611aed81612b37565b63ffffffff60018454948584520154916dffffffffffffffffffffffffffff6020820160ff8516151581526040830190828660081c1682528660806060860195878960781c168752019660981c1686526040519788525115156020880152511660408601525116606084015251166080820152f35b34610ec95760407ffffffffffffffffffffffffffffffffffffffffffffffffffffffffffffffffc360112610ec9576020611b9b612c6a565b73ffffffffffffffffffffffffffffffffffffffff611bb8612cbb565b91166101405152600182526040610140512077ffffffffffffffffffffffffffffffffffffffffffffffff82165f52825260405f20547fffffffffffffffffffffffffffffffffffffffffffffffff00000000000000006040519260401b16178152f35b34610ec95760207ffffffffffffffffffffffffffffffffffffffffffffffffffffffffffffffffc360112610ec95760043567ffffffffffffffff8111610ec9576101207ffffffffffffffffffffffffffffffffffffffffffffffffffffffffffffffffc8236030112610ec957611c98602091600401612e75565b604051908152f35b34610ec95760407ffffffffffffffffffffffffffffffffffffffffffffffffffffffffffffffffc360112610ec957611cd7612c6a565b6024359033610140515261014051602052604061014051208054808411611de35783611d0291612e39565b90556040805173ffffffffffffffffffffffffffffffffffffffff831681526020810184905233917fd1c19fbcd4551a5edfb66d43d2e337c04837afda3482b42bdf569a8fccdae5fb91a2610140519182918291829173ffffffffffffffffffffffffffffffffffffffff165af1611d78612e46565b5015611d85576101405180f35b60646040517f08c379a000000000000000000000000000000000000000000000000000000000815260206004820152601260248201527f6661696c656420746f20776974686472617700000000000000000000000000006044820152fd5b60646040517f08c379a000000000000000000000000000000000000000000000000000000000815260206004820152601960248201527f576974686472617720616d6f756e7420746f6f206c61726765000000000000006044820152fd5b34610ec95760407ffffffffffffffffffffffffffffffffffffffffffffffffffffffffffffffffc360112610ec957611e78612c6a565b73ffffffffffffffffffffffffffffffffffffffff611e95612cbb565b91166101405152600160205277ffffffffffffffffffffffffffffffffffffffffffffffff6040610140512091165f52602052602060405f2054604051908152f35b34610ec957610140517ffffffffffffffffffffffffffffffffffffffffffffffffffffffffffffffffc360112610ec95760206040517f29a0bca4af4be3421398da00295e58e6d7de38cb492214754cb6a47507dd6f8e8152f35b34610ec957610140517ffffffffffffffffffffffffffffffffffffffffffffffffffffffffffffffffc360112610ec9576020600254604051908152f35b34610ec95760207ffffffffffffffffffffffffffffffffffffffffffffffffffffffffffffffffc360112610ec95760043577ffffffffffffffffffffffffffffffffffffffffffffffff81168103610ec957336101405152600160205277ffffffffffffffffffffffffffffffffffffffffffffffff6040610140512091165f5260205260405f206120038154612e0c565b90556101405180f35b34610ec957610140517ffffffffffffffffffffffffffffffffffffffffffffffffffffffffffffffffc360112610ec957602073ffffffffffffffffffffffffffffffffffffffff61205c613452565b16604051908152f35b60207ffffffffffffffffffffffffffffffffffffffffffffffffffffffffffffffffc360112610ec95760043563ffffffff8116809103610ec95733610140515261014051602052604061014051209080156123c257600182015463ffffffff8160781c168210612364576120ee906dffffffffffffffffffffffffffff349160081c16612dd2565b918215612306576dffffffffffffffffffffffffffff83116122a857546040516122709161211b82612b37565b815265ffffffffffff602082019160018352604081016dffffffffffffffffffffffffffff87168152606082019086825260016080840193610140518552336101405152610140516020526040610140512090518155019451151560ff7fffffffffffffffffffffffffffffffffffffffffffffffffffffffffffffff008754169116178555517fffffffffffffffffffffffffffffffffff0000000000000000000000000000ff6effffffffffffffffffffffffffff008087549360081b16169116178455517fffffffffffffffffffffffffff00000000ffffffffffffffffffffffffffffff72ffffffff0000000000000000000000000000008086549360781b1616911617835551167fffffffffffffff000000000000ffffffffffffffffffffffffffffffffffffff78ffffffffffff0000000000000000000000000000000000000083549260981b169116179055565b60405191825260208201527fa5ae833d0bb1dcd632d98a8b70973e8516812898e19bf27b70071ebc8dc52c0160403392a26101405180f35b60646040517f08c379a000000000000000000000000000000000000000000000000000000000815260206004820152600e60248201527f7374616b65206f766572666c6f770000000000000000000000000000000000006044820152fd5b60646040517f08c379a000000000000000000000000000000000000000000000000000000000815260206004820152601260248201527f6e6f207374616b652073706563696669656400000000000000000000000000006044820152fd5b60646040517f08c379a000000000000000000000000000000000000000000000000000000000815260206004820152601c60248201527f63616e6e6f7420646563726561736520756e7374616b652074696d65000000006044820152fd5b60646040517f08c379a000000000000000000000000000000000000000000000000000000000815260206004820152601a60248201527f6d757374207370656369667920756e7374616b652064656c61790000000000006044820152fd5b34610ec95760207ffffffffffffffffffffffffffffffffffffffffffffffffffffffffffffffffc360112610ec9576004357fffffffff000000000000000000000000000000000000000000000000000000008116809103610ec957807f6930d3ee0000000000000000000000000000000000000000000000000000000060209214908115612548575b811561251e575b81156124f4575b81156124ca575b506040519015158152f35b7f01ffc9a700000000000000000000000000000000000000000000000000000000915014826124bf565b7f3e84f02100000000000000000000000000000000000000000000000000000000811491506124b8565b7fcf28ef9700000000000000000000000000000000000000000000000000000000811491506124b1565b7f989ccc5800000000000000000000000000000000000000000000000000000000811491506124aa565b346129e0576102007ffffffffffffffffffffffffffffffffffffffffffffffffffffffffffffffffc3601126129e05760043567ffffffffffffffff81116129e057366023820112156129e0576125d3903690602481600401359101612c34565b7fffffffffffffffffffffffffffffffffffffffffffffffffffffffffffffffdc36016101c081126129e0576101406040519161260f83612b37565b126129e05760405161262081612b80565b60243573ffffffffffffffffffffffffffffffffffffffff811681036129e057815260443560208201526064356040820152608435606082015260a435608082015260c43560a082015260e43560c08201526101043573ffffffffffffffffffffffffffffffffffffffff811681036129e05760e082015261012435610100820152610144356101208201528152602081019161016435835260408201906101843582526101a435606084015260808301916101c43583526101e43567ffffffffffffffff81116129e0576126f9903690600401612c8d565b955a90303303612ad95786516060810151955f9681519182612a1f575b50505050509061272e915a9003855101963691612c34565b925a9385516101008101516101208201517f59e3bb5c9eacf8e7a9c3802366751badc68d4d97d3e35b1744045784c52f20dd5480155f14612a19575048905b0180821015612a115750975b6127a673ffffffffffffffffffffffffffffffffffffffff60e084015116945182036060840151906149f5565b01925f92816128bc5750505173ffffffffffffffffffffffffffffffffffffffff16945b5a900301019485029051928184105f146128685750506003811015612835576002036128075760209281611c98929361280281614b16565b614a14565b7fdeadaa51000000000000000000000000000000000000000000000000000000006101405152602061014051fd5b7f4e487b710000000000000000000000000000000000000000000000000000000061014051526021600452602461014051fd5b8161289e929594969396039073ffffffffffffffffffffffffffffffffffffffff165f525f60205260405f209081540180915590565b50600384101561283557826128b7926020951590614a95565b611c98565b9096918782516128cf575b5050506127ca565b90919293505a9260038810156129e45760028803612905575b505060a06128fc925a9003910151906149f5565b908880806128c7565b60a083015191803b156129e0578b925f9283612961938c8b88604051998a98899788957f7c627b210000000000000000000000000000000000000000000000000000000087526004870152608060248701526084860190612d75565b9202604484015260648301520393f190816129cb575b506129c157610a87612987613425565b6040519182917fad7954bc000000000000000000000000000000000000000000000000000000008352602060048401526024830190612d75565b60a06128fc6128e8565b5f6129d591612bb9565b5f610140528a612977565b5f80fd5b7f4e487b71000000000000000000000000000000000000000000000000000000005f52602160045260245ffd5b905097612779565b9061276d565b915f9291838093602073ffffffffffffffffffffffffffffffffffffffff885116910192f115612a52575b808080612716565b61272e9392955060405191612a65613425565b908151612a7e575b505050604052600193909188612a4a565b7f1c4fada7374c0a9ee8841fc38afe82932dc0f8e69012e927f061a8bae611a201905191602073ffffffffffffffffffffffffffffffffffffffff855116940151612ace60405192839283612db8565b0390a3888080612a6d565b60646040517f08c379a000000000000000000000000000000000000000000000000000000000815260206004820152601760248201527f4141393220696e7465726e616c2063616c6c206f6e6c790000000000000000006044820152fd5b60a0810190811067ffffffffffffffff821117612b5357604052565b7f4e487b71000000000000000000000000000000000000000000000000000000005f52604160045260245ffd5b610140810190811067ffffffffffffffff821117612b5357604052565b6060810190811067ffffffffffffffff821117612b5357604052565b90601f7fffffffffffffffffffffffffffffffffffffffffffffffffffffffffffffffe0910116810190811067ffffffffffffffff821117612b5357604052565b67ffffffffffffffff8111612b5357601f017fffffffffffffffffffffffffffffffffffffffffffffffffffffffffffffffe01660200190565b929192612c4082612bfa565b91612c4e6040519384612bb9565b8294818452818301116129e0578281602093845f960137010152565b6004359073ffffffffffffffffffffffffffffffffffffffff821682036129e057565b9181601f840112156129e05782359167ffffffffffffffff83116129e057602083818601950101116129e057565b6024359077ffffffffffffffffffffffffffffffffffffffffffffffff821682036129e057565b9060407ffffffffffffffffffffffffffffffffffffffffffffffffffffffffffffffffc8301126129e05760043567ffffffffffffffff81116129e05760040182601f820112156129e05780359267ffffffffffffffff84116129e0576020808301928560051b0101116129e057919060243573ffffffffffffffffffffffffffffffffffffffff811681036129e05790565b907fffffffffffffffffffffffffffffffffffffffffffffffffffffffffffffffe0601f602080948051918291828752018686015e5f8582860101520116010190565b604090612dcf939281528160208201520190612d75565b90565b91908201809211612ddf57565b7f4e487b71000000000000000000000000000000000000000000000000000000005f52601160045260245ffd5b7fffffffffffffffffffffffffffffffffffffffffffffffffffffffffffffffff8114612ddf5760010190565b91908203918211612ddf57565b3d15612e70573d90612e5782612bfa565b91612e656040519384612bb9565b82523d5f602084013e565b606090565b604290612e81816134a8565b60025491612e8e81613282565b918015612f8c57905b60c0612ea660608301836132a3565b90816040519182372091612ebd60e08201826132a3565b908160405191823720926040519473ffffffffffffffffffffffffffffffffffffffff60208701977f29a0bca4af4be3421398da00295e58e6d7de38cb492214754cb6a47507dd6f8e895216604087015260208301356060870152608086015260a085015260808101358285015260a081013560e085015201356101008301526101208201526101208152612f5461014082612bb9565b519020604051917f19010000000000000000000000000000000000000000000000000000000000008352600283015260228201522090565b50612f9a60408201826132a3565b90816040519182372090612e97565b67ffffffffffffffff8111612b535760051b60200190565b90612fcb82612fa9565b612fd86040519182612bb9565b8281527fffffffffffffffffffffffffffffffffffffffffffffffffffffffffffffffe06130068294612fa9565b01905f5b82811061301657505050565b60209060405161302581612b37565b60405161303181612b80565b5f81525f848201525f60408201525f60608201525f60808201525f60a08201525f60c08201525f60e08201525f6101008201525f61012082015281525f838201525f60408201525f60608201525f60808201528282850101520161300a565b91908110156130d05760051b810135907ffffffffffffffffffffffffffffffffffffffffffffffffffffffffffffffee1813603018212156129e0570190565b7f4e487b71000000000000000000000000000000000000000000000000000000005f52603260045260245ffd5b80518210156130d05760209160051b010190565b908160209103126129e0575173ffffffffffffffffffffffffffffffffffffffff811681036129e05790565b601f82602094937fffffffffffffffffffffffffffffffffffffffffffffffffffffffffffffffe093818652868601375f8582860101520116010190565b7f2da466a7b24304f47e87fa2e1e5a81b9831ce54fec19055ce277ca2f39ba42c4602073ffffffffffffffffffffffffffffffffffffffff6131e2348573ffffffffffffffffffffffffffffffffffffffff165f525f60205260405f209081540180915590565b936040519485521692a2565b91908110156130d05760051b810135907fffffffffffffffffffffffffffffffffffffffffffffffffffffffffffffffa1813603018212156129e0570190565b9035907fffffffffffffffffffffffffffffffffffffffffffffffffffffffffffffffe1813603018212156129e0570180359067ffffffffffffffff82116129e057602001918160051b360383136129e057565b3573ffffffffffffffffffffffffffffffffffffffff811681036129e05790565b9035907fffffffffffffffffffffffffffffffffffffffffffffffffffffffffffffffe1813603018212156129e0570180359067ffffffffffffffff82116129e0576020019181360383136129e057565b90357fffffffffffffffffffffffffffffffffffffffffffffffffffffffffffffffe1823603018112156129e057016020813591019167ffffffffffffffff82116129e05781360383136129e057565b80359173ffffffffffffffffffffffffffffffffffffffff831683036129e05773ffffffffffffffffffffffffffffffffffffffff612dcf931681526020820135602082015261341661340a6133d16133b66133a360408701876132f4565b610120604088015261012087019161313d565b6133c360608701876132f4565b90868303606088015261313d565b6080850135608085015260a085013560a085015260c085013560c08501526133fc60e08601866132f4565b9085830360e087015261313d565b926101008101906132f4565b9161010081850391015261313d565b3d6108008111613449575b604051906020818301016040528082525f602083013e90565b50610800613430565b7fbc79d710c27c417daea28cbdc16e638da2309ea2f5542218b102827c395d15d45473ffffffffffffffffffffffffffffffffffffffff1680612dcf575073449ed7c3e6fee6a97311d4b55475df59c44add3390565b6134b560408201826132a3565b90916134c18284614b66565b156136d7576134cf90613282565b60175f80833c5f51907fef010000000000000000000000000000000000000000000000000000000000007fffffff0000000000000000000000000000000000000000000000000000000000831603613615575060181b91601482116135755750506040517fffffffffffffffffffffffffffffffffffffffff0000000000000000000000008080602084019416161682526014815261356f603482612bb9565b51902090565b816014116129e057602061356f916040519384917fffffffffffffffffffffffffffffffffffffffff000000000000000000000000808086860199161616875260147fffffffffffffffffffffffffffffffffffffffffffffffffffffffffffffffec83019101603484013781015f8382015203017fffffffffffffffffffffffffffffffffffffffffffffffffffffffffffffffe08101835282612bb9565b3b156136795760646040517f08c379a000000000000000000000000000000000000000000000000000000000815260206004820152601860248201527f6e6f7420616e204549502d373730322064656c656761746500000000000000006044820152fd5b60646040517f08c379a000000000000000000000000000000000000000000000000000000000815260206004820152601260248201527f73656e64657220686173206e6f20636f646500000000000000000000000000006044820152fd5b5050505f90565b7f9b779b17422d0df92223018b32b4d1fa46e071723d6817e2486d003becc55f005c61372a5760017f9b779b17422d0df92223018b32b4d1fa46e071723d6817e2486d003becc55f005d565b7f3ee5aeb5000000000000000000000000000000000000000000000000000000005f5260045ffd5b92919092835f5b8181106137665750505050565b61377081856130fd565b5161377c828486613090565b5f915a81519273ffffffffffffffffffffffffffffffffffffffff6137a082613282565b168452602081013560208501526080810135936fffffffffffffffffffffffffffffffff8560801c951694604082019060608301968752815260c0820160a0840135815260c0840135906fffffffffffffffffffffffffffffffff8260801c9216916101208501906101008601938452815261381f60e08701876132a3565b90816141d0575b505060405161383487612e75565b9960208a019a8b528160405285519586855117825117926effffffffffffffffffffffffffffff60808a01948551179560a08b01968751178951179051171161416e5750519051019051019051019051019051029560408601918783528973ffffffffffffffffffffffffffffffffffffffff60e089516138c98b84835116956138c160408d018d6132a3565b929091614c92565b015116985f998015614147575b89516040810151905173ffffffffffffffffffffffffffffffffffffffff1680916040519d8e808d8b519360208301947f19822f7c00000000000000000000000000000000000000000000000000000000865260248401926139379361510c565b037fffffffffffffffffffffffffffffffffffffffffffffffffffffffffffffffe0810182526139679082612bb9565b51905f6020948194f15f519c3d60200361413f575b60405215614054575015613fda575b505073ffffffffffffffffffffffffffffffffffffffff8451166020850151905f52600160205260405f2077ffffffffffffffffffffffffffffffffffffffffffffffff8260401c165f5260205267ffffffffffffffff60405f20918254926139f384612e0c565b90551603613f75575a860311613f105773ffffffffffffffffffffffffffffffffffffffff60e0606094015116613c50575b505073ffffffffffffffffffffffffffffffffffffffff949260a085936080936060613a5c9801520135905a900301910152614bbb565b9116613beb57613b8657613a8473ffffffffffffffffffffffffffffffffffffffff91614bbb565b9116613b2157613a9657600101613759565b60a490604051907f220266b6000000000000000000000000000000000000000000000000000000008252600482015260406024820152602160448201527f41413332207061796d61737465722065787069726564206f72206e6f7420647560648201527f65000000000000000000000000000000000000000000000000000000000000006084820152fd5b608482604051907f220266b6000000000000000000000000000000000000000000000000000000008252600482015260406024820152601460448201527f41413334207369676e6174757265206572726f720000000000000000000000006064820152fd5b608482604051907f220266b6000000000000000000000000000000000000000000000000000000008252600482015260406024820152601760448201527f414132322065787069726564206f72206e6f74206475650000000000000000006064820152fd5b608483604051907f220266b6000000000000000000000000000000000000000000000000000000008252600482015260406024820152601460448201527f41413234207369676e6174757265206572726f720000000000000000000000006064820152fd5b909c9b9a99989796505a9085519d60e08f015173ffffffffffffffffffffffffffffffffffffffff168151613c849161512e565b15613eab57613cd77f52b7512c00000000000000000000000000000000000000000000000000000000999a9b9c9d9e9f60800151926108b060405193849251905190602084019d8e52896024850161510c565b5f8088518b82608073ffffffffffffffffffffffffffffffffffffffff60e08501511693015192865193f1983d90815f843e51948251604084019b8c519015918215613e9f575b508115613e6f575b50613df25750601f7fffffffffffffffffffffffffffffffffffffffffffffffffffffffffffffffe09101160191826040525a900311613d6a5750948260a0613a25565b80887f220266b60000000000000000000000000000000000000000000000000000000060a49352600482015260406024820152602760448201527f41413336206f766572207061796d6173746572566572696669636174696f6e4760648201527f61734c696d6974000000000000000000000000000000000000000000000000006084820152fd5b8b610a87613dfe613425565b6040519384937f65c8fd4d00000000000000000000000000000000000000000000000000000000855260048501526024840152600d60648401527f4141333320726576657274656400000000000000000000000000000000000000608484015260a0604484015260a4830190612d75565b9050601f7fffffffffffffffffffffffffffffffffffffffffffffffffffffffffffffffa084019101105f613d26565b6040141591505f613d1e565b608489604051907f220266b6000000000000000000000000000000000000000000000000000000008252600482015260406024820152601e60448201527f41413331207061796d6173746572206465706f73697420746f6f206c6f7700006064820152fd5b608489604051907f220266b6000000000000000000000000000000000000000000000000000000008252600482015260406024820152601e60448201527f41413236206f76657220766572696669636174696f6e4761734c696d697400006064820152fd5b60848a604051907f220266b6000000000000000000000000000000000000000000000000000000008252600482015260406024820152601a60448201527f4141323520696e76616c6964206163636f756e74206e6f6e63650000000000006064820152fd5b613fe39161512e565b15613fef575f8061398b565b60848a604051907f220266b6000000000000000000000000000000000000000000000000000000008252600482015260406024820152601760448201527f41413231206469646e2774207061792070726566756e640000000000000000006064820152fd5b8d903b6140c057608490604051907f220266b6000000000000000000000000000000000000000000000000000000008252600482015260406024820152601960448201527f41413230206163636f756e74206e6f74206465706c6f796564000000000000006064820152fd5b6140c8613425565b90610a876040519283927f65c8fd4d000000000000000000000000000000000000000000000000000000008452600484015260606024840152600d60648401527f4141323320726576657274656400000000000000000000000000000000000000608484015260a0604484015260a4830190612d75565b5f915061397c565b9950815f525f60205260405f20548181115f1461416757505f5b996138d6565b8103614161565b808f7f220266b60000000000000000000000000000000000000000000000000000000060849352600482015260406024820152601860448201527f41413934206761732076616c756573206f766572666c6f7700000000000000006064820152fd5b60348210610ed057816014116129e057803560601c91602481106129e0576014820135906034116129e0576fffffffffffffffffffffffffffffffff60248193013560801c1660a089015260801c1660808701528015610e6b5760e08601525f80613826565b9092915a6060820151604051958661425160608301836132a3565b5f600382116148fd575b7fffffffff00000000000000000000000000000000000000000000000000000000167f8dd7712f000000000000000000000000000000000000000000000000000000000361478f575050505f61436861445c6142f6614328602095868a01516040519384927f8dd7712f000000000000000000000000000000000000000000000000000000008a850152604060248501526064840190613344565b906044830152037fffffffffffffffffffffffffffffffffffffffffffffffffffffffffffffffe08101835282612bb9565b6108b06040519384927e42dc5300000000000000000000000000000000000000000000000000000000888501526102006024850152610224840190612d75565b61442b604484018b60806101a091610120815173ffffffffffffffffffffffffffffffffffffffff8151168652602081015160208701526040810151604087015260608101516060870152838101518487015260a081015160a087015260c081015160c087015273ffffffffffffffffffffffffffffffffffffffff60e08201511660e087015261010081015161010087015201516101208501526020810151610140850152604081015161016085015260608101516101808501520151910152565b7fffffffffffffffffffffffffffffffffffffffffffffffffffffffffffffffdc8382030161020484015287612d75565b828151910182305af15f519660405215614477575b50505050565b9091929394505f3d602014614782575b7fdeaddead00000000000000000000000000000000000000000000000000000000810361451357608485604051907f220266b6000000000000000000000000000000000000000000000000000000008252600482015260406024820152600f60448201527f41413935206f7574206f662067617300000000000000000000000000000000006064820152fd5b92935090917fdeadaa510000000000000000000000000000000000000000000000000000000003614576575061455b61455061456b925a90612e39565b608084015190612dd2565b6040830151836128028295614b16565b905b5f808080614471565b906145e99060405160208501518551907ff62676f440ff169a3a9afdbf812e89e7f95975ee8e5c31214ffdef631c5f4792602073ffffffffffffffffffffffffffffffffffffffff8451169301516145cc613425565b906145dc60405192839283612db8565b0390a36040525a90612e39565b6145f96080840191825190612dd2565b915f905a9285516101008101516101208201517f59e3bb5c9eacf8e7a9c3802366751badc68d4d97d3e35b1744045784c52f20dd5480155f1461477c575048905b01808210156147745750955b61467373ffffffffffffffffffffffffffffffffffffffff60e084015116935182036060840151906149f5565b01925f92806147455750505173ffffffffffffffffffffffffffffffffffffffff16935b5a900301019283026040850151928184105f146146f9575050806146cc575090816146c6929361280281614b16565b9061456d565b807f4e487b7100000000000000000000000000000000000000000000000000000000602492526021600452fd5b61472e908284939795039073ffffffffffffffffffffffffffffffffffffffff165f525f60205260405f209081540180915590565b506146cc575090825f61474093614a95565b6146c6565b95919051614754575b50614697565b9350905061476d5a9360a05f955a9003910151906149f5565b905f61474e565b905095614646565b9061463a565b5060205f803e5f51614487565b6148f493506148c8916147d4917e42dc53000000000000000000000000000000000000000000000000000000006020860152610200602486015261022485019161313d565b614897604484018860806101a091610120815173ffffffffffffffffffffffffffffffffffffffff8151168652602081015160208701526040810151604087015260608101516060870152838101518487015260a081015160a087015260c081015160c087015273ffffffffffffffffffffffffffffffffffffffff60e08201511660e087015261010081015161010087015201516101208501526020810151610140850152604081015161016085015260608101516101808501520151910152565b7fffffffffffffffffffffffffffffffffffffffffffffffffffffffffffffffdc8382030161020484015284612d75565b037fffffffffffffffffffffffffffffffffffffffffffffffffffffffffffffffe08101885287612bb9565b60205f8761445c565b50813561425b565b73ffffffffffffffffffffffffffffffffffffffff168015614997575f80809381935af1614931612e46565b501561493957565b60646040517f08c379a000000000000000000000000000000000000000000000000000000000815260206004820152601f60248201527f41413931206661696c65642073656e6420746f2062656e6566696369617279006044820152fd5b60646040517f08c379a000000000000000000000000000000000000000000000000000000000815260206004820152601860248201527f4141393020696e76616c69642062656e656669636961727900000000000000006044820152fd5b90619c408201811115614a0e57606491600a9103020490565b50505f90565b9190917f49628fd1471006c1482da88028e9ce4dbb080b815c9b0344d39e5a8e6ec1419f6080602083015192519473ffffffffffffffffffffffffffffffffffffffff86511694602073ffffffffffffffffffffffffffffffffffffffff60e089015116970151916040519283525f602084015260408301526060820152a4565b9060807f49628fd1471006c1482da88028e9ce4dbb080b815c9b0344d39e5a8e6ec1419f91602084015193519573ffffffffffffffffffffffffffffffffffffffff87511695602073ffffffffffffffffffffffffffffffffffffffff60e08a015116980151926040519384521515602084015260408301526060820152a4565b60208101519051907f67b4fa9642f42120bf031f3051d1824b0fe25627945b27b8a6a65d5761d5482e60208073ffffffffffffffffffffffffffffffffffffffff855116940151604051908152a3565b90600211614bb657357fffffffffffffffffffffffffffffffffffffffff000000000000000000000000167f77020000000000000000000000000000000000000000000000000000000000001490565b505f90565b8015614c8b575f60408051614bcf81612b9d565b8281528260208201520152604073ffffffffffffffffffffffffffffffffffffffff82169165ffffffffffff8160a01c16908115614c7d575b60d01c9065ffffffffffff835191614c1f83612b9d565b8583528360208401521692839101527f182d361d27e8fee91541f8630840b9272bdb770c7bb6239b09cd74563c4053415480155f14614c77575042915b8211918215614c6c575b50509091565b111590505f80614c66565b91614c5c565b65ffffffffffff9150614c08565b505f905f90565b929190915f9080614ca5575b5050505050565b83519473ffffffffffffffffffffffffffffffffffffffff86511695614ccb8386614b66565b6150245750853b614fbf5760148210614f5a5782602073ffffffffffffffffffffffffffffffffffffffff614cfe613452565b16604088510151604051809481937f570e1a3600000000000000000000000000000000000000000000000000000000835285600484015282614d458c8b602484019161313d565b0393f1908115614f4f578491614f30575b5073ffffffffffffffffffffffffffffffffffffffff81168015614ecb578703614e66573b15614e015750601411614dfe577fd51a9c61267aa6196961883ecf5ff2da6619c37dac0fa92122513fb32c032d2d91604091503573ffffffffffffffffffffffffffffffffffffffff60e06020860151955101511673ffffffffffffffffffffffffffffffffffffffff83519260601c1682526020820152a35f80808080614c9e565b80fd5b608490604051907f220266b6000000000000000000000000000000000000000000000000000000008252600482015260406024820152602060448201527f4141313520696e6974436f6465206d757374206372656174652073656e6465726064820152fd5b608482604051907f220266b6000000000000000000000000000000000000000000000000000000008252600482015260406024820152602060448201527f4141313420696e6974436f6465206d7573742072657475726e2073656e6465726064820152fd5b608483604051907f220266b6000000000000000000000000000000000000000000000000000000008252600482015260406024820152601b60448201527f4141313320696e6974436f6465206661696c6564206f72204f4f4700000000006064820152fd5b614f49915060203d60201161185f576118518183612bb9565b5f614d56565b6040513d86823e3d90fd5b608490604051907f220266b6000000000000000000000000000000000000000000000000000000008252600482015260406024820152601760448201527f4141393920696e6974436f646520746f6f20736d616c6c0000000000000000006064820152fd5b608490604051907f220266b6000000000000000000000000000000000000000000000000000000008252600482015260406024820152601f60448201527f414131302073656e64657220616c726561647920636f6e7374727563746564006064820152fd5b945050919050601482116150385750505050565b604073ffffffffffffffffffffffffffffffffffffffff615057613452565b1693015190826014116129e057833b156129e0575f80946150db96604051978896879586937fc09ad0d900000000000000000000000000000000000000000000000000000000855260048501526040602485015260147fffffffffffffffffffffffffffffffffffffffffffffffffffffffffffffffec604486019301910161313d565b0393f18015615101576150f1575b808080614471565b5f6150fb91612bb9565b5f6150e9565b6040513d5f823e3d90fd5b61512460409295949395606083526060830190613344565b9460208201520152565b73ffffffffffffffffffffffffffffffffffffffff165f525f60205260405f209081548181106136d75703905560019056fea26469706673582212201936bf1c271d098be1339413f2a9a20221d64c650a6c1b2e70c0b0f207fa038f64736f6c634300081c0033","linkReferences":{}},"methodIdentifiers":{"addStake(uint32)":"0396cb60","balanceOf(address)":"70a08231","delegateAndRevert(address,bytes)":"850aaf62","depositTo(address)":"b760faf9","getDepositInfo(address)":"5287ce12","getDomainSeparatorV4()":"13c65a6e","getNonce(address,uint192)":"35567e1a","getPackedUserOpTypeHash()":"154e58dc","getSenderAddress(bytes)":"9b249f69","getUserOpHash((address,uint256,bytes,bytes,bytes32,uint256,bytes32,bytes,bytes))":"22cdde4c","handleAggregatedOps(((address,uint256,bytes,bytes,bytes32,uint256,bytes32,bytes,bytes)[],address,bytes)[],address)":"dbed18e0","handleOps((address,uint256,bytes,bytes,bytes32,uint256,bytes32,bytes,bytes)[],address)":"765e827f","incrementNonce(uint192)":"0bd28e3b","initDomainSeparator()":"d12e825d","innerHandleOp(bytes,((address,uint256,uint256,uint256,uint256,uint256,uint256,address,uint256,uint256),bytes32,uint256,uint256,uint256),bytes)":"0042dc53","nonceSequenceNumber(address,uint192)":"1b2e01b8","senderCreator()":"09ccb880","supportsInterface(bytes4)":"01ffc9a7","unlockStake()":"bb9fe6bf","withdrawStake(address)":"c23a5cea","withdrawTo(address,uint256)":"205c2878"},"id":32}