{"abi":[{"type":"receive","stateMutability":"payable"},{"type":"function","name":"SIG_VALIDATION_FAILED","inputs":[],"outputs":[{"name":"","type":"uint256","internalType":"uint256"}],"stateMutability":"view"},{"type":"function","name":"_validateSenderAndPaymaster","inputs":[{"name":"initCode","type":"bytes","internalType":"bytes"},{"name":"sender","type":"address","internalType":"address"},{"name":"paymasterAndData","type":"bytes","internalType":"bytes"}],"outputs":[],"stateMutability":"view"},{"type":"function","name":"addStake","inputs":[{"name":"unstakeDelaySec","type":"uint32","internalType":"uint32"}],"outputs":[],"stateMutability":"payable"},{"type":"function","name":"balanceOf","inputs":[{"name":"account","type":"address","internalType":"address"}],"outputs":[{"name":"","type":"uint256","internalType":"uint256"}],"stateMutability":"view"},{"type":"function","name":"depositTo","inputs":[{"name":"account","type":"address","internalType":"address"}],"outputs":[],"stateMutability":"payable"},{"type":"function","name":"deposits","inputs":[{"name":"","type":"address","internalType":"address"}],"outputs":[{"name":"deposit","type":"uint112","internalType":"uint112"},{"name":"staked","type":"bool","internalType":"bool"},{"name":"stake","type":"uint112","internalType":"uint112"},{"name":"unstakeDelaySec","type":"uint32","internalType":"uint32"},{"name":"withdrawTime","type":"uint48","internalType":"uint48"}],"stateMutability":"view"},{"type":"function","name":"getDepositInfo","inputs":[{"name":"account","type":"address","internalType":"address"}],"outputs":[{"name":"info","type":"tuple","internalType":"struct IStakeManager.DepositInfo","components":[{"name":"deposit","type":"uint112","internalType":"uint112"},{"name":"staked","type":"bool","internalType":"bool"},{"name":"stake","type":"uint112","internalType":"uint112"},{"name":"unstakeDelaySec","type":"uint32","internalType":"uint32"},{"name":"withdrawTime","type":"uint48","internalType":"uint48"}]}],"stateMutability":"view"},{"type":"function","name":"getNonce","inputs":[{"name":"sender","type":"address","internalType":"address"},{"name":"key","type":"uint192","internalType":"uint192"}],"outputs":[{"name":"nonce","type":"uint256","internalType":"uint256"}],"stateMutability":"view"},{"type":"function","name":"getSenderAddress","inputs":[{"name":"initCode","type":"bytes","internalType":"bytes"}],"outputs":[],"stateMutability":"nonpayable"},{"type":"function","name":"getUserOpHash","inputs":[{"name":"userOp","type":"tuple","internalType":"struct UserOperation","components":[{"name":"sender","type":"address","internalType":"address"},{"name":"nonce","type":"uint256","internalType":"uint256"},{"name":"initCode","type":"bytes","internalType":"bytes"},{"name":"callData","type":"bytes","internalType":"bytes"},{"name":"callGasLimit","type":"uint256","internalType":"uint256"},{"name":"verificationGasLimit","type":"uint256","internalType":"uint256"},{"name":"preVerificationGas","type":"uint256","internalType":"uint256"},{"name":"maxFeePerGas","type":"uint256","internalType":"uint256"},{"name":"maxPriorityFeePerGas","type":"uint256","internalType":"uint256"},{"name":"paymasterAndData","type":"bytes","internalType":"bytes"},{"name":"signature","type":"bytes","internalType":"bytes"}]}],"outputs":[{"name":"","type":"bytes32","internalType":"bytes32"}],"stateMutability":"view"},{"type":"function","name":"handleAggregatedOps","inputs":[{"name":"opsPerAggregator","type":"tuple[]","internalType":"struct IEntryPoint.UserOpsPerAggregator[]","components":[{"name":"userOps","type":"tuple[]","internalType":"struct UserOperation[]","components":[{"name":"sender","type":"address","internalType":"address"},{"name":"nonce","type":"uint256","internalType":"uint256"},{"name":"initCode","type":"bytes","internalType":"bytes"},{"name":"callData","type":"bytes","internalType":"bytes"},{"name":"callGasLimit","type":"uint256","internalType":"uint256"},{"name":"verificationGasLimit","type":"uint256","internalType":"uint256"},{"name":"preVerificationGas","type":"uint256","internalType":"uint256"},{"name":"maxFeePerGas","type":"uint256","internalType":"uint256"},{"name":"maxPriorityFeePerGas","type":"uint256","internalType":"uint256"},{"name":"paymasterAndData","type":"bytes","internalType":"bytes"},{"name":"signature","type":"bytes","internalType":"bytes"}]},{"name":"aggregator","type":"address","internalType":"contract IAggregator"},{"name":"signature","type":"bytes","internalType":"bytes"}]},{"name":"beneficiary","type":"address","internalType":"address payable"}],"outputs":[],"stateMutability":"nonpayable"},{"type":"function","name":"handleOps","inputs":[{"name":"ops","type":"tuple[]","internalType":"struct UserOperation[]","components":[{"name":"sender","type":"address","internalType":"address"},{"name":"nonce","type":"uint256","internalType":"uint256"},{"name":"initCode","type":"bytes","internalType":"bytes"},{"name":"callData","type":"bytes","internalType":"bytes"},{"name":"callGasLimit","type":"uint256","internalType":"uint256"},{"name":"verificationGasLimit","type":"uint256","internalType":"uint256"},{"name":"preVerificationGas","type":"uint256","internalType":"uint256"},{"name":"maxFeePerGas","type":"uint256","internalType":"uint256"},{"name":"maxPriorityFeePerGas","type":"uint256","internalType":"uint256"},{"name":"paymasterAndData","type":"bytes","internalType":"bytes"},{"name":"signature","type":"bytes","internalType":"bytes"}]},{"name":"beneficiary","type":"address","internalType":"address payable"}],"outputs":[],"stateMutability":"nonpayable"},{"type":"function","name":"incrementNonce","inputs":[{"name":"key","type":"uint192","internalType":"uint192"}],"outputs":[],"stateMutability":"nonpayable"},{"type":"function","name":"innerHandleOp","inputs":[{"name":"callData","type":"bytes","internalType":"bytes"},{"name":"opInfo","type":"tuple","internalType":"struct EntryPointFilterOpsOverride06.UserOpInfo","components":[{"name":"mUserOp","type":"tuple","internalType":"struct EntryPointFilterOpsOverride06.MemoryUserOp","components":[{"name":"sender","type":"address","internalType":"address"},{"name":"nonce","type":"uint256","internalType":"uint256"},{"name":"callGasLimit","type":"uint256","internalType":"uint256"},{"name":"verificationGasLimit","type":"uint256","internalType":"uint256"},{"name":"preVerificationGas","type":"uint256","internalType":"uint256"},{"name":"paymaster","type":"address","internalType":"address"},{"name":"maxFeePerGas","type":"uint256","internalType":"uint256"},{"name":"maxPriorityFeePerGas","type":"uint256","internalType":"uint256"}]},{"name":"userOpHash","type":"bytes32","internalType":"bytes32"},{"name":"prefund","type":"uint256","internalType":"uint256"},{"name":"contextOffset","type":"uint256","internalType":"uint256"},{"name":"preOpGas","type":"uint256","internalType":"uint256"}]},{"name":"context","type":"bytes","internalType":"bytes"}],"outputs":[{"name":"actualGasCost","type":"uint256","internalType":"uint256"}],"stateMutability":"nonpayable"},{"type":"function","name":"nonceSequenceNumber","inputs":[{"name":"","type":"address","internalType":"address"},{"name":"","type":"uint192","internalType":"uint192"}],"outputs":[{"name":"","type":"uint256","internalType":"uint256"}],"stateMutability":"view"},{"type":"function","name":"simulateHandleOp","inputs":[{"name":"op","type":"tuple","internalType":"struct UserOperation","components":[{"name":"sender","type":"address","internalType":"address"},{"name":"nonce","type":"uint256","internalType":"uint256"},{"name":"initCode","type":"bytes","internalType":"bytes"},{"name":"callData","type":"bytes","internalType":"bytes"},{"name":"callGasLimit","type":"uint256","internalType":"uint256"},{"name":"verificationGasLimit","type":"uint256","internalType":"uint256"},{"name":"preVerificationGas","type":"uint256","internalType":"uint256"},{"name":"maxFeePerGas","type":"uint256","internalType":"uint256"},{"name":"maxPriorityFeePerGas","type":"uint256","internalType":"uint256"},{"name":"paymasterAndData","type":"bytes","internalType":"bytes"},{"name":"signature","type":"bytes","internalType":"bytes"}]},{"name":"target","type":"address","internalType":"address"},{"name":"targetCallData","type":"bytes","internalType":"bytes"}],"outputs":[],"stateMutability":"nonpayable"},{"type":"function","name":"simulateValidation","inputs":[{"name":"userOp","type":"tuple","internalType":"struct UserOperation","components":[{"name":"sender","type":"address","internalType":"address"},{"name":"nonce","type":"uint256","internalType":"uint256"},{"name":"initCode","type":"bytes","internalType":"bytes"},{"name":"callData","type":"bytes","internalType":"bytes"},{"name":"callGasLimit","type":"uint256","internalType":"uint256"},{"name":"verificationGasLimit","type":"uint256","internalType":"uint256"},{"name":"preVerificationGas","type":"uint256","internalType":"uint256"},{"name":"maxFeePerGas","type":"uint256","internalType":"uint256"},{"name":"maxPriorityFeePerGas","type":"uint256","internalType":"uint256"},{"name":"paymasterAndData","type":"bytes","internalType":"bytes"},{"name":"signature","type":"bytes","internalType":"bytes"}]}],"outputs":[],"stateMutability":"nonpayable"},{"type":"function","name":"unlockStake","inputs":[],"outputs":[],"stateMutability":"nonpayable"},{"type":"function","name":"withdrawStake","inputs":[{"name":"withdrawAddress","type":"address","internalType":"address payable"}],"outputs":[],"stateMutability":"nonpayable"},{"type":"function","name":"withdrawTo","inputs":[{"name":"withdrawAddress","type":"address","internalType":"address payable"},{"name":"withdrawAmount","type":"uint256","internalType":"uint256"}],"outputs":[],"stateMutability":"nonpayable"},{"type":"event","name":"AccountDeployed","inputs":[{"name":"userOpHash","type":"bytes32","indexed":true,"internalType":"bytes32"},{"name":"sender","type":"address","indexed":true,"internalType":"address"},{"name":"factory","type":"address","indexed":false,"internalType":"address"},{"name":"paymaster","type":"address","indexed":false,"internalType":"address"}],"anonymous":false},{"type":"event","name":"BeforeExecution","inputs":[],"anonymous":false},{"type":"event","name":"Deposited","inputs":[{"name":"account","type":"address","indexed":true,"internalType":"address"},{"name":"totalDeposit","type":"uint256","indexed":false,"internalType":"uint256"}],"anonymous":false},{"type":"event","name":"SignatureAggregatorChanged","inputs":[{"name":"aggregator","type":"address","indexed":true,"internalType":"address"}],"anonymous":false},{"type":"event","name":"StakeLocked","inputs":[{"name":"account","type":"address","indexed":true,"internalType":"address"},{"name":"totalStaked","type":"uint256","indexed":false,"internalType":"uint256"},{"name":"unstakeDelaySec","type":"uint256","indexed":false,"internalType":"uint256"}],"anonymous":false},{"type":"event","name":"StakeUnlocked","inputs":[{"name":"account","type":"address","indexed":true,"internalType":"address"},{"name":"withdrawTime","type":"uint256","indexed":false,"internalType":"uint256"}],"anonymous":false},{"type":"event","name":"StakeWithdrawn","inputs":[{"name":"account","type":"address","indexed":true,"internalType":"address"},{"name":"withdrawAddress","type":"address","indexed":false,"internalType":"address"},{"name":"amount","type":"uint256","indexed":false,"internalType":"uint256"}],"anonymous":false},{"type":"event","name":"UserOperationEvent","inputs":[{"name":"userOpHash","type":"bytes32","indexed":true,"internalType":"bytes32"},{"name":"sender","type":"address","indexed":true,"internalType":"address"},{"name":"paymaster","type":"address","indexed":true,"internalType":"address"},{"name":"nonce","type":"uint256","indexed":false,"internalType":"uint256"},{"name":"success","type":"bool","indexed":false,"internalType":"bool"},{"name":"actualGasCost","type":"uint256","indexed":false,"internalType":"uint256"},{"name":"actualGasUsed","type":"uint256","indexed":false,"internalType":"uint256"}],"anonymous":false},{"type":"event","name":"UserOperationRevertReason","inputs":[{"name":"userOpHash","type":"bytes32","indexed":true,"internalType":"bytes32"},{"name":"sender","type":"address","indexed":true,"internalType":"address"},{"name":"nonce","type":"uint256","indexed":false,"internalType":"uint256"},{"name":"revertReason","type":"bytes","indexed":false,"internalType":"bytes"}],"anonymous":false},{"type":"event","name":"Withdrawn","inputs":[{"name":"account","type":"address","indexed":true,"internalType":"address"},{"name":"withdrawAddress","type":"address","indexed":false,"internalType":"address"},{"name":"amount","type":"uint256","indexed":false,"internalType":"uint256"}],"anonymous":false},{"type":"error","name":"ExecutionResult","inputs":[{"name":"preOpGas","type":"uint256","internalType":"uint256"},{"name":"paid","type":"uint256","internalType":"uint256"},{"name":"validAfter","type":"uint48","internalType":"uint48"},{"name":"validUntil","type":"uint48","internalType":"uint48"},{"name":"targetSuccess","type":"bool","internalType":"bool"},{"name":"targetResult","type":"bytes","internalType":"bytes"}]},{"type":"error","name":"FailedOp","inputs":[{"name":"opIndex","type":"uint256","internalType":"uint256"},{"name":"reason","type":"string","internalType":"string"}]},{"type":"error","name":"SenderAddressResult","inputs":[{"name":"sender","type":"address","internalType":"address"}]},{"type":"error","name":"SignatureValidationFailed","inputs":[{"name":"aggregator","type":"address","internalType":"address"}]},{"type":"error","name":"ValidationResult","inputs":[{"name":"returnInfo","type":"tuple","internalType":"struct IEntryPoint.ReturnInfo","components":[{"name":"preOpGas","type":"uint256","internalType":"uint256"},{"name":"prefund","type":"uint256","internalType":"uint256"},{"name":"sigFailed","type":"bool","internalType":"bool"},{"name":"validAfter","type":"uint48","internalType":"uint48"},{"name":"validUntil","type":"uint48","internalType":"uint48"},{"name":"paymasterContext","type":"bytes","internalType":"bytes"}]},{"name":"senderInfo","type":"tuple","internalType":"struct IStakeManager.StakeInfo","components":[{"name":"stake","type":"uint256","internalType":"uint256"},{"name":"unstakeDelaySec","type":"uint256","internalType":"uint256"}]},{"name":"factoryInfo","type":"tuple","internalType":"struct IStakeManager.StakeInfo","components":[{"name":"stake","type":"uint256","internalType":"uint256"},{"name":"unstakeDelaySec","type":"uint256","internalType":"uint256"}]},{"name":"paymasterInfo","type":"tuple","internalType":"struct IStakeManager.StakeInfo","components":[{"name":"stake","type":"uint256","internalType":"uint256"},{"name":"unstakeDelaySec","type":"uint256","internalType":"uint256"}]}]},{"type":"error","name":"ValidationResultWithAggregation","inputs":[{"name":"returnInfo","type":"tuple","internalType":"struct IEntryPoint.ReturnInfo","components":[{"name":"preOpGas","type":"uint256","internalType":"uint256"},{"name":"prefund","type":"uint256","internalType":"uint256"},{"name":"sigFailed","type":"bool","internalType":"bool"},{"name":"validAfter","type":"uint48","internalType":"uint48"},{"name":"validUntil","type":"uint48","internalType":"uint48"},{"name":"paymasterContext","type":"bytes","internalType":"bytes"}]},{"name":"senderInfo","type":"tuple","internalType":"struct IStakeManager.StakeInfo","components":[{"name":"stake","type":"uint256","internalType":"uint256"},{"name":"unstakeDelaySec","type":"uint256","internalType":"uint256"}]},{"name":"factoryInfo","type":"tuple","internalType":"struct IStakeManager.StakeInfo","components":[{"name":"stake","type":"uint256","internalType":"uint256"},{"name":"unstakeDelaySec","type":"uint256","internalType":"uint256"}]},{"name":"paymasterInfo","type":"tuple","internalType":"struct IStakeManager.StakeInfo","components":[{"name":"stake","type":"uint256","internalType":"uint256"},{"name":"unstakeDelaySec","type":"uint256","internalType":"uint256"}]},{"name":"aggregatorInfo","type":"tuple","internalType":"struct IEntryPoint.AggregatorStakeInfo","components":[{"name":"aggregator","type":"address","internalType":"address"},{"name":"stakeInfo","type":"tuple","internalType":"struct IStakeManager.StakeInfo","components":[{"name":"stake","type":"uint256","internalType":"uint256"},{"name":"unstakeDelaySec","type":"uint256","internalType":"uint256"}]}]}]}],"bytecode":{"object":"0x6080806040523461001c576001600255615bfa9081620000228239f35b600080fdfe60806040526004361015610023575b361561001957600080fd5b610021611cd7565b005b60003560e01c80630396cb60146101b35780630bd28e3b146101aa5780631b2e01b8146101a15780631d732756146101985780631fad948c1461018f578063205c28781461018657806335567e1a1461017d5780634b1d7cf5146101745780635287ce121461016b57806370a08231146101625780638f41ec5a14610159578063957122ab146101505780639b249f6914610147578063a61935311461013e578063b760faf914610135578063bb9fe6bf1461012c578063c23a5cea14610123578063d6383f941461011a578063ee219423146101115763fc7e286d0361000e5761010c611bb7565b61000e565b5061010c61199f565b5061010c611837565b5061010c61169e565b5061010c611520565b5061010c6114e1565b5061010c6114c0565b5061010c611337565b5061010c611164565b5061010c611129565b5061010c6110a4565b5061010c610f54565b5061010c610bf8565b5061010c610b33565b5061010c610994565b5061010c6108ba565b5061010c6106e7565b5061010c610467565b5061010c610385565b5060207ffffffffffffffffffffffffffffffffffffffffffffffffffffffffffffffffc3601126103595760043563ffffffff8116808203610359576103547fa5ae833d0bb1dcd632d98a8b70973e8516812898e19bf27b70071ebc8dc52c01916102716102413373ffffffffffffffffffffffffffffffffffffffff166000526000602052604060002090565b9161024d811515611e4e565b61026a610261600185015463ffffffff1690565b63ffffffff1690565b1115611eb3565b54926103366dffffffffffffffffffffffffffff946102f461029834888460781c16611d48565b966102a4881515611f18565b6102b081891115611f7d565b6102d4816102bc6105ec565b941684906dffffffffffffffffffffffffffff169052565b6001602084015287166dffffffffffffffffffffffffffff166040830152565b63ffffffff83166060820152600060808201526103313373ffffffffffffffffffffffffffffffffffffffff166000526000602052604060002090565b611fe2565b6040805194855263ffffffff90911660208501523393918291820190565b0390a2005b600080fd5b6024359077ffffffffffffffffffffffffffffffffffffffffffffffff8216820361035957565b50346103595760207ffffffffffffffffffffffffffffffffffffffffffffffffffffffffffffffffc3601126103595760043577ffffffffffffffffffffffffffffffffffffffffffffffff81168103610359576104149033600052600160205260406000209077ffffffffffffffffffffffffffffffffffffffffffffffff16600052602052604060002090565b61041e8154611c9d565b9055005b73ffffffffffffffffffffffffffffffffffffffff81160361035957565b6024359061044d82610422565b565b60c4359061044d82610422565b359061044d82610422565b50346103595760407ffffffffffffffffffffffffffffffffffffffffffffffffffffffffffffffffc3601126103595760206104fc6004356104a881610422565b73ffffffffffffffffffffffffffffffffffffffff6104c561035e565b91166000526001835260406000209077ffffffffffffffffffffffffffffffffffffffffffffffff16600052602052604060002090565b54604051908152f35b507f4e487b7100000000000000000000000000000000000000000000000000000000600052604160045260246000fd5b60a0810190811067ffffffffffffffff82111761055157604052565b610559610505565b604052565b610100810190811067ffffffffffffffff82111761055157604052565b67ffffffffffffffff811161055157604052565b6060810190811067ffffffffffffffff82111761055157604052565b90601f7fffffffffffffffffffffffffffffffffffffffffffffffffffffffffffffffe0910116810190811067ffffffffffffffff82111761055157604052565b6040519061044d82610535565b6040519060c0820182811067ffffffffffffffff82111761055157604052565b604051906040820182811067ffffffffffffffff82111761055157604052565b7fffffffffffffffffffffffffffffffffffffffffffffffffffffffffffffffe0601f60209267ffffffffffffffff8111610675575b01160190565b61067d610505565b61066f565b92919261068e82610639565b9161069c60405193846105ab565b829481845281830111610359578281602093846000960137010152565b9181601f840112156103595782359167ffffffffffffffff8311610359576020838186019501011161035957565b5034610359576101c07ffffffffffffffffffffffffffffffffffffffffffffffffffffffffffffffffc3601126103595767ffffffffffffffff60043581811161035957366023820112156103595761074a903690602481600401359101610682565b907fffffffffffffffffffffffffffffffffffffffffffffffffffffffffffffffdc36016101808112610359576101006040519161078783610535565b12610359576040516107988161055e565b6107a0610440565b815260443560208201526064356040820152608435606082015260a43560808201526107ca61044f565b60a082015260e43560c08201526101043560e082015281526101243560208201526101443560408201526101643560608201526101843560808201526101a4359182116103595761083e9261082661082e9336906004016106b9565b929091612f85565b6040519081529081906020820190565b0390f35b9060407ffffffffffffffffffffffffffffffffffffffffffffffffffffffffffffffffc8301126103595760043567ffffffffffffffff9283821161035957806023830112156103595781600401359384116103595760248460051b830101116103595760240191906024356108b781610422565b90565b5034610359576108c936610842565b6108d49291926125b2565b6108dd836124a5565b60005b84811061095d57506000927fbb47ee3e183a558b1a2ff0874b079f3fc5478b7454eacf2bfc5af2ff5878f9728480a183915b85831061092d57610923858561261f565b6100216001600255565b909193600190610953610941878987612564565b61094b8886612542565b5190886129ad565b0194019190610912565b8061098b610984610972600194869896612542565b5161097e848a88612564565b84613c5a565b90836136fb565b019290926108e0565b50346103595760407ffffffffffffffffffffffffffffffffffffffffffffffffffffffffffffffffc360112610359576004356109d081610422565b6024359060009133835282602052604083206dffffffffffffffffffffffffffff81541692838311610ad557848373ffffffffffffffffffffffffffffffffffffffff829593610a788496610a3f610a2c8798610ad29c612389565b6dffffffffffffffffffffffffffff1690565b6dffffffffffffffffffffffffffff167fffffffffffffffffffffffffffffffffffff0000000000000000000000000000825416179055565b6040805173ffffffffffffffffffffffffffffffffffffffff831681526020810185905233917fd1c19fbcd4551a5edfb66d43d2e337c04837afda3482b42bdf569a8fccdae5fb91a2165af1610acc6122f4565b50612396565b80f35b60646040517f08c379a000000000000000000000000000000000000000000000000000000000815260206004820152601960248201527f576974686472617720616d6f756e7420746f6f206c61726765000000000000006044820152fd5b50346103595760407ffffffffffffffffffffffffffffffffffffffffffffffffffffffffffffffffc360112610359576020600435610b7181610422565b73ffffffffffffffffffffffffffffffffffffffff610b8e61035e565b911660005260018252610bc98160406000209077ffffffffffffffffffffffffffffffffffffffffffffffff16600052602052604060002090565b547fffffffffffffffffffffffffffffffffffffffffffffffff00000000000000006040519260401b16178152f35b503461035957610c0736610842565b610c0f6125b2565b6000805b838210610df657610c2491506124a5565b7fbb47ee3e183a558b1a2ff0874b079f3fc5478b7454eacf2bfc5af2ff5878f972600080a16000805b848110610d5c57505060008093815b818110610c9357610923868660007f575ff3acadd5ab348fe1855e217e0f3678f8d767d7494c9f9fefbee2e17cca4d8180a261261f565b610cf7610ca182848a612a73565b610ccc610cb3610cb360208401612b15565b73ffffffffffffffffffffffffffffffffffffffff1690565b7f575ff3acadd5ab348fe1855e217e0f3678f8d767d7494c9f9fefbee2e17cca4d600080a280612ac1565b906000915b808310610d1457505050610d0f90611c9d565b610c5c565b90919497610d4f610d49610d5592610d438c8b610d3c82610d368e8b8d612564565b92612542565b51916129ad565b90611d48565b99611c9d565b95611c9d565b9190610cfc565b610d67818688612a73565b6020610d7f610d768380612ac1565b92909301612b15565b9173ffffffffffffffffffffffffffffffffffffffff60009316905b828410610db45750505050610daf90611c9d565b610c4d565b90919294610d4f81610de985610de2610dd0610dee968d612542565b51610ddc8c8b8a612564565b85613c5a565b908b613913565b611c9d565b929190610d9b565b610e01828587612a73565b90610e0c8280612ac1565b92610e1c610cb360208301612b15565b9173ffffffffffffffffffffffffffffffffffffffff8316610e416001821415612b1f565b610e62575b505050610e5c91610e5691611d48565b91611c9d565b90610c13565b909592610e7b6040999693999895989788810190612710565b92908a3b156103595789938b918a5193849283927fe3563a4f00000000000000000000000000000000000000000000000000000000845260049e8f850193610ec294612cb9565b03815a93600094fa9081610f3b575b50610f255786517f86a9f75000000000000000000000000000000000000000000000000000000000815273ffffffffffffffffffffffffffffffffffffffff8a16818a0190815281906020010390fd5b0390fd5b9497509295509093509181610e56610e5c610e46565b80610f48610f4e9261057b565b8061111e565b38610ed1565b50346103595760207ffffffffffffffffffffffffffffffffffffffffffffffffffffffffffffffffc3601126103595761083e73ffffffffffffffffffffffffffffffffffffffff600435610fa881610422565b608060409283928351610fba81610535565b60009381858093528260208201528287820152826060820152015216815280602052209061104965ffffffffffff6001835194610ff686610535565b80546dffffffffffffffffffffffffffff8082168852607082901c60ff161515602089015260789190911c1685870152015463ffffffff8116606086015260201c16608084019065ffffffffffff169052565b5191829182919091608065ffffffffffff8160a08401956dffffffffffffffffffffffffffff808251168652602082015115156020870152604082015116604086015263ffffffff6060820151166060860152015116910152565b50346103595760207ffffffffffffffffffffffffffffffffffffffffffffffffffffffffffffffffc3601126103595773ffffffffffffffffffffffffffffffffffffffff6004356110f581610422565b16600052600060205260206dffffffffffffffffffffffffffff60406000205416604051908152f35b600091031261035957565b50346103595760007ffffffffffffffffffffffffffffffffffffffffffffffffffffffffffffffffc36011261035957602060405160018152f35b50346103595760607ffffffffffffffffffffffffffffffffffffffffffffffffffffffffffffffffc36011261035957600467ffffffffffffffff8135818111610359576111b590369084016106b9565b9050602435916111c483610422565b604435908111610359576111db90369085016106b9565b92909115908161132d575b506112c6576014821015611236575b610f21836040519182917f08c379a0000000000000000000000000000000000000000000000000000000008352820160409060208152600060208201520190565b6112466112529261124c926132a8565b906132b6565b60601c90565b3b1561125f5738806111f5565b610f21906040519182917f08c379a0000000000000000000000000000000000000000000000000000000008352820160609060208152601b60208201527f41413330207061796d6173746572206e6f74206465706c6f796564000000000060408201520190565b610f21836040519182917f08c379a0000000000000000000000000000000000000000000000000000000008352820160609060208152601960208201527f41413230206163636f756e74206e6f74206465706c6f7965640000000000000060408201520190565b90503b15386111e6565b50346103595760207ffffffffffffffffffffffffffffffffffffffffffffffffffffffffffffffffc3601126103595760043567ffffffffffffffff8111610359576113e7602061138e60249336906004016106b9565b73ffffffffffffffffffffffffffffffffffffffff9291836113ae6134b2565b169060006040518097819582947f570e1a36000000000000000000000000000000000000000000000000000000008452600484016134a1565b03925af191821561145b575b60009261142b575b50604051917f6ca7b806000000000000000000000000000000000000000000000000000000008352166004820152fd5b61144d91925060203d8111611454575b61144581836105ab565b81019061348c565b90386113fb565b503d61143b565b6114636128cb565b6113f3565b90816101609103126103595790565b60207ffffffffffffffffffffffffffffffffffffffffffffffffffffffffffffffffc820112610359576004359067ffffffffffffffff8211610359576108b791600401611468565b50346103595760206114d96114d436611477565b613121565b604051908152f35b5060207ffffffffffffffffffffffffffffffffffffffffffffffffffffffffffffffffc3601126103595761002160043561151b81610422565b611cdc565b5034610359576000807ffffffffffffffffffffffffffffffffffffffffffffffffffffffffffffffffc36011261169b573381528060205260408120600181019063ffffffff82541690811561163d576115da61159f6116029361159161158c855460ff9060701c1690565b612146565b65ffffffffffff42166121ab565b84547fffffffffffffffffffffffffffffffffffffffffffff000000000000ffffffff16602082901b69ffffffffffff000000001617909455565b7fffffffffffffffffffffffffffffffffff00ffffffffffffffffffffffffffff8154169055565b60405165ffffffffffff91909116815233907ffa9b3c14cc825c412c9ed81b3ba365a5b459439403f18829e572ed53a4180f0a90602090a280f35b60646040517f08c379a000000000000000000000000000000000000000000000000000000000815260206004820152600a60248201527f6e6f74207374616b6564000000000000000000000000000000000000000000006044820152fd5b80fd5b50346103595760207ffffffffffffffffffffffffffffffffffffffffffffffffffffffffffffffffc360112610359576004356116da81610422565b610ad273ffffffffffffffffffffffffffffffffffffffff61171c3373ffffffffffffffffffffffffffffffffffffffff166000526000602052604060002090565b926117d461173f610a2c86546dffffffffffffffffffffffffffff9060781c1690565b9461174b8615156121c5565b6117ac6001820161178465ffffffffffff611770835465ffffffffffff9060201c1690565b1661177c81151561222a565b42101561228f565b80547fffffffffffffffffffffffffffffffffffffffffffff00000000000000000000169055565b7fffffff0000000000000000000000000000ffffffffffffffffffffffffffffff8154169055565b6040805173ffffffffffffffffffffffffffffffffffffffff831681526020810186905233917fb7c918e0e249f999e965cafeb6c664271b3f4317d296461500e71da39f0cbda391a2600080809581948294165af16118316122f4565b50612324565b50346103595760607ffffffffffffffffffffffffffffffffffffffffffffffffffffffffffffffffc3601126103595767ffffffffffffffff60043581811161035957611888903690600401611468565b6024359161189583610422565b604435908111610359576118b0610f219136906004016106b9565b6118b8612422565b6118c1856135f6565b6118d46118ce8287613a52565b90612de4565b946118e4826000924384526128d8565b96438252819360609573ffffffffffffffffffffffffffffffffffffffff831661196b575b505050506080015193611938604061192a602084015165ffffffffffff1690565b92015165ffffffffffff1690565b906040519687967f8b7ac98000000000000000000000000000000000000000000000000000000000885260048801612d89565b839550839496506119856040949293945180948193612d7b565b03925af19060806119946122f4565b929190388080611909565b5034610359576119ae36611477565b6119b6612422565b6119bf826135f6565b6119c98183613a52565b825160a001519193916119f69073ffffffffffffffffffffffffffffffffffffffff16613437565b613437565b90611a1a6119f1855173ffffffffffffffffffffffffffffffffffffffff90511690565b94611a23613270565b50611a52611a3660409586810190612710565b90600060148310611baf57506112466119f19261124c926132a8565b91611a5c91612de4565b805173ffffffffffffffffffffffffffffffffffffffff169073ffffffffffffffffffffffffffffffffffffffff821660018114916080880151978781015191886020820151611ab19065ffffffffffff1690565b91015165ffffffffffff16916060015192611aca6105f9565b9a8b5260208b0152841515898b015265ffffffffffff1660608a015265ffffffffffff16608089015260a088015215159081611ba6575b50611b3b5750610f2192519485947fe0cff05f000000000000000000000000000000000000000000000000000000008652600486016133dd565b9190610f2193611b4a84613437565b611b71611b55610619565b73ffffffffffffffffffffffffffffffffffffffff9096168652565b6020850152519586957ffaecb4e40000000000000000000000000000000000000000000000000000000087526004870161334b565b90501538611b01565b915050613437565b50346103595760207ffffffffffffffffffffffffffffffffffffffffffffffffffffffffffffffffc3601126103595773ffffffffffffffffffffffffffffffffffffffff600435611c0881610422565b16600052600060205260a0604060002065ffffffffffff60018254920154604051926dffffffffffffffffffffffffffff90818116855260ff8160701c161515602086015260781c16604084015263ffffffff8116606084015260201c166080820152f35b507f4e487b7100000000000000000000000000000000000000000000000000000000600052601160045260246000fd5b6001907fffffffffffffffffffffffffffffffffffffffffffffffffffffffffffffffff8114611ccb570190565b611cd3611c6d565b0190565b61044d335b73ffffffffffffffffffffffffffffffffffffffff90611cfc3482611d5d565b168060005260006020527f2da466a7b24304f47e87fa2e1e5a81b9831ce54fec19055ce277ca2f39ba42c460206dffffffffffffffffffffffffffff60406000205416604051908152a2565b91908201809211611d5557565b61044d611c6d565b73ffffffffffffffffffffffffffffffffffffffff16600052600060205260406000206dffffffffffffffffffffffffffff80825416928301809311611e41575b808311611de35761044d92166dffffffffffffffffffffffffffff167fffffffffffffffffffffffffffffffffffff0000000000000000000000000000825416179055565b60646040517f08c379a000000000000000000000000000000000000000000000000000000000815260206004820152601060248201527f6465706f736974206f766572666c6f77000000000000000000000000000000006044820152fd5b611e49611c6d565b611d9e565b15611e5557565b60646040517f08c379a000000000000000000000000000000000000000000000000000000000815260206004820152601a60248201527f6d757374207370656369667920756e7374616b652064656c61790000000000006044820152fd5b15611eba57565b60646040517f08c379a000000000000000000000000000000000000000000000000000000000815260206004820152601c60248201527f63616e6e6f7420646563726561736520756e7374616b652074696d65000000006044820152fd5b15611f1f57565b60646040517f08c379a000000000000000000000000000000000000000000000000000000000815260206004820152601260248201527f6e6f207374616b652073706563696669656400000000000000000000000000006044820152fd5b15611f8457565b60646040517f08c379a000000000000000000000000000000000000000000000000000000000815260206004820152600e60248201527f7374616b65206f766572666c6f770000000000000000000000000000000000006044820152fd5b9065ffffffffffff6080600161044d946120426dffffffffffffffffffffffffffff86511682906dffffffffffffffffffffffffffff167fffffffffffffffffffffffffffffffffffff0000000000000000000000000000825416179055565b602085015115156eff000000000000000000000000000082549160701b16807fffffffffffffffffffffffffffffffffff00ffffffffffffffffffffffffffff83161783557fffffff000000000000000000000000000000ffffffffffffffffffffffffffff7cffffffffffffffffffffffffffff000000000000000000000000000000604089015160781b16921617178155019263ffffffff6060820151167fffffffffffffffffffffffffffffffffffffffffffffffffffffffff000000008554161784550151167fffffffffffffffffffffffffffffffffffffffffffff000000000000ffffffff69ffffffffffff0000000083549260201b169116179055565b1561214d57565b60646040517f08c379a000000000000000000000000000000000000000000000000000000000815260206004820152601160248201527f616c726561647920756e7374616b696e670000000000000000000000000000006044820152fd5b91909165ffffffffffff80809416911601918211611d5557565b156121cc57565b60646040517f08c379a000000000000000000000000000000000000000000000000000000000815260206004820152601460248201527f4e6f207374616b6520746f2077697468647261770000000000000000000000006044820152fd5b1561223157565b60646040517f08c379a000000000000000000000000000000000000000000000000000000000815260206004820152601d60248201527f6d7573742063616c6c20756e6c6f636b5374616b6528292066697273740000006044820152fd5b1561229657565b60646040517f08c379a000000000000000000000000000000000000000000000000000000000815260206004820152601b60248201527f5374616b65207769746864726177616c206973206e6f742064756500000000006044820152fd5b3d1561231f573d9061230582610639565b9161231360405193846105ab565b82523d6000602084013e565b606090565b1561232b57565b60646040517f08c379a000000000000000000000000000000000000000000000000000000000815260206004820152601860248201527f6661696c656420746f207769746864726177207374616b6500000000000000006044820152fd5b91908203918211611d5557565b1561239d57565b60646040517f08c379a000000000000000000000000000000000000000000000000000000000815260206004820152601260248201527f6661696c656420746f20776974686472617700000000000000000000000000006044820152fd5b60209067ffffffffffffffff8111612415575b60051b0190565b61241d610505565b61240e565b6040519061242f82610535565b604051608083610100830167ffffffffffffffff811184821017612498575b60405260009283815283602082015283604082015283606082015283838201528360a08201528360c08201528360e082015281528260208201528260408201528260608201520152565b6124a0610505565b61244e565b906124af826123fb565b6124bc60405191826105ab565b8281527fffffffffffffffffffffffffffffffffffffffffffffffffffffffffffffffe06124ea82946123fb565b019060005b8281106124fb57505050565b602090612506612422565b828285010152016124ef565b507f4e487b7100000000000000000000000000000000000000000000000000000000600052603260045260246000fd5b6020918151811015612557575b60051b010190565b61255f612512565b61254f565b91908110156125a5575b60051b810135907ffffffffffffffffffffffffffffffffffffffffffffffffffffffffffffffea181360301821215610359570190565b6125ad612512565b61256e565b60028054146125c15760028055565b60646040517f08c379a000000000000000000000000000000000000000000000000000000000815260206004820152601f60248201527f5265656e7472616e637947756172643a207265656e7472616e742063616c6c006044820152fd5b73ffffffffffffffffffffffffffffffffffffffff1680156126b257600080809381935af161264c6122f4565b501561265457565b60646040517f08c379a000000000000000000000000000000000000000000000000000000000815260206004820152601f60248201527f41413931206661696c65642073656e6420746f2062656e6566696369617279006044820152fd5b60646040517f08c379a000000000000000000000000000000000000000000000000000000000815260206004820152601860248201527f4141393020696e76616c69642062656e656669636961727900000000000000006044820152fd5b9035907fffffffffffffffffffffffffffffffffffffffffffffffffffffffffffffffe181360301821215610359570180359067ffffffffffffffff82116103595760200191813603831361035957565b90816020910312610359575190565b601f82602094937fffffffffffffffffffffffffffffffffffffffffffffffffffffffffffffffe0938186528686013760008582860101520116010190565b60005b8381106127c25750506000910152565b81810151838201526020016127b2565b907fffffffffffffffffffffffffffffffffffffffffffffffffffffffffffffffe0601f60209361280e815180928187528780880191016127af565b0116010190565b9061282f6080916108b796946101c0808652850191612770565b9360e0815173ffffffffffffffffffffffffffffffffffffffff80825116602087015260208201516040870152604082015160608701526060820151858701528482015160a087015260a08201511660c086015260c081015182860152015161010084015260208101516101208401526040810151610140840152606081015161016084015201516101808201526101a08184039101526127d2565b506040513d6000823e3d90fd5b905a918160206128f16060830151936060810190612710565b9061292a8560405195869485947f1d73275600000000000000000000000000000000000000000000000000000000865260048601612815565b03816000305af16000918161297d575b5061297657506129636108b79360206000803e5a8103908111612969575b608084015190611d48565b91615350565b612971611c6d565b612958565b9250505090565b61299f91925060203d81116129a6575b61299781836105ab565b810190612761565b903861293a565b503d61298d565b905a928060206129c66060830151946060810190612710565b906129ff8660405195869485947f1d73275600000000000000000000000000000000000000000000000000000000865260048601612815565b03816000305af160009181612a53575b50612a4b5750612a386108b79460206000803e5a8103908111612a3e575b608083015190611d48565b92615633565b612a46611c6d565b612a2d565b935050505090565b612a6c91925060203d81116129a65761299781836105ab565b9038612a0f565b9190811015612ab4575b60051b810135907fffffffffffffffffffffffffffffffffffffffffffffffffffffffffffffffa181360301821215610359570190565b612abc612512565b612a7d565b9035907fffffffffffffffffffffffffffffffffffffffffffffffffffffffffffffffe181360301821215610359570180359067ffffffffffffffff821161035957602001918160051b3603831361035957565b356108b781610422565b15612b2657565b60646040517f08c379a000000000000000000000000000000000000000000000000000000000815260206004820152601760248201527f4141393620696e76616c69642061676772656761746f720000000000000000006044820152fd5b90357fffffffffffffffffffffffffffffffffffffffffffffffffffffffffffffffe18236030181121561035957016020813591019167ffffffffffffffff821161035957813603831361035957565b6108b791612bff81612be58461045c565b73ffffffffffffffffffffffffffffffffffffffff169052565b60208201356020820152612c9a612c4b612c30612c1f6040860186612b84565b610160806040880152860191612770565b612c3d6060860186612b84565b908583036060870152612770565b6080840135608084015260a084013560a084015260c084013560c084015260e084013560e08401526101008085013590840152610120612c8d81860186612b84565b9185840390860152612770565b91612cab6101409182810190612b84565b929091818503910152612770565b949391929083604087016040885252606086019360608160051b8801019482600090815b848310612cfc575050505050508460206108b795968503910152612770565b9091929394977fffffffffffffffffffffffffffffffffffffffffffffffffffffffffffffffa08b820301855288357ffffffffffffffffffffffffffffffffffffffffffffffffffffffffffffffea184360301811215612d775760019184612d659201612bd4565b98602090810196950193019190612cdd565b8280fd5b908092918237016000815290565b9290936108b796959260c0958552602085015265ffffffffffff8092166040850152166060830152151560808201528160a082015201906127d2565b60405190612dd28261058f565b60006040838281528260208201520152565b612df9612dff91612df3612dc5565b50612e96565b91612e96565b9073ffffffffffffffffffffffffffffffffffffffff9182825116928315612e8b575b65ffffffffffff928391826040816020850151169301511693836040816020840151169201511690808410612e83575b50808511612e7b575b5060405195612e698761058f565b16855216602084015216604082015290565b935038612e5b565b925038612e52565b815181169350612e22565b612e9e612dc5565b5065ffffffffffff808260a01c168015612eea575b60405192612ec08461058f565b73ffffffffffffffffffffffffffffffffffffffff8116845260d01c602084015216604082015290565b5080612eb3565b15612ef857565b60646040517f08c379a000000000000000000000000000000000000000000000000000000000815260206004820152601760248201527f4141393220696e7465726e616c2063616c6c206f6e6c790000000000000000006044820152fd5b9060406108b7926000815281602082015201906127d2565b6040906108b79392815281602082015201906127d2565b909291925a93612f96303314612ef1565b8151946040860151955a6113886060830151890101116130b6576108b7966000958051612fdd575b50505090612fd7915a9003608084015101943691610682565b9161589b565b61300c9161300891613003855173ffffffffffffffffffffffffffffffffffffffff1690565b6130e0565b1590565b613018575b8080612fbe565b612fd7929194506130276130f2565b90815161303b575b50506001939091613011565b7f1c4fada7374c0a9ee8841fc38afe82932dc0f8e69012e927f061a8bae611a20173ffffffffffffffffffffffffffffffffffffffff6020870151926130ac602061309a835173ffffffffffffffffffffffffffffffffffffffff1690565b92015195604051938493169683612f6e565b0390a3388061302f565b7fdeaddead0000000000000000000000000000000000000000000000000000000060005260206000fd5b9060009283809360208451940192f190565b3d610800808211613119575b50604051906020818301016040528082526000602083013e90565b9050386130fe565b6131376131316040830183612710565b90613265565b906131486131316060830183612710565b906131fe61315d613131610120840184612710565b60405194859360208501956101008201359260e08301359260c08101359260a08201359260808301359273ffffffffffffffffffffffffffffffffffffffff60208201359135168c9693909a9998959261012098959273ffffffffffffffffffffffffffffffffffffffff6101408a019d168952602089015260408801526060870152608086015260a085015260c084015260e08301526101008201520152565b03916132307fffffffffffffffffffffffffffffffffffffffffffffffffffffffffffffffe0938481018352826105ab565b5190206040805160208101928352309181019190915246606082015260809283018152909161325f90826105ab565b51902090565b816040519182372090565b604051906040820182811067ffffffffffffffff82111761329b575b60405260006020838281520152565b6132a3610505565b61328c565b906014116103595790601490565b7fffffffffffffffffffffffffffffffffffffffff00000000000000000000000090358181169392601481106132eb57505050565b60140360031b82901b16169150565b9060c060a06108b793805184526020810151602085015260408101511515604085015265ffffffffffff80606083015116606086015260808201511660808501520151918160a082015201906127d2565b92946133ac61044d9561339a610100959998613388613374602097610140808c528b01906132fa565b9b878a019060208091805184520151910152565b80516060890152602001516080880152565b805160a08701526020015160c0860152565b73ffffffffffffffffffffffffffffffffffffffff81511660e0850152015191019060208091805184520151910152565b61342661044d946134146133ff60a0959998969960e0865260e08601906132fa565b98602085019060208091805184520151910152565b80516060840152602001516080830152565b019060208091805184520151910152565b9073ffffffffffffffffffffffffffffffffffffffff613455613270565b9216600052600060205263ffffffff600160406000206dffffffffffffffffffffffffffff815460781c1685520154166020830152565b9081602091031261035957516108b781610422565b9160206108b7938181520191612770565b7fbc79d710c27c417daea28cbdc16e638da2309ea2f5542218b102827c395d15d45473ffffffffffffffffffffffffffffffffffffffff16806108b75750737fc98430eaedbb6070b35b39d79872504908834890565b9061353773ffffffffffffffffffffffffffffffffffffffff916108b797959694606085526060850191612770565b941660208201526040818503910152612770565b60009060033d1161355857565b905060046000803e60005160e01c90565b600060443d106108b7576040517ffffffffffffffffffffffffffffffffffffffffffffffffffffffffffffffffc91823d016004833e815167ffffffffffffffff918282113d6024840111176135e5578184019485519384116135ed573d850101602084870101116135e557506108b7929101602001906105ab565b949350505050565b50949350505050565b6136036040820182612710565b61361b61360f84612b15565b93610120810190612710565b9290303b156103595760009361365f9160405196879586957f957122ab00000000000000000000000000000000000000000000000000000000875260048701613508565b0381305afa90816136e8575b5061044d57600161367a61354b565b6308c379a014613693575b61368b57565b61044d6128cb565b61369b613569565b806136a7575b50613685565b805160009250156136a157610f21906040519182917f220266b600000000000000000000000000000000000000000000000000000000835260048301612f56565b80610f486136f59261057b565b3861366b565b91906137069061394a565b73ffffffffffffffffffffffffffffffffffffffff929183166138a557613837576137309061394a565b91166137c95761373d5750565b604080517f220266b600000000000000000000000000000000000000000000000000000000815260048101929092526024820152602160448201527f41413332207061796d61737465722065787069726564206f72206e6f7420647560648201527f6500000000000000000000000000000000000000000000000000000000000000608482015260a490fd5b610f21826040519182917f220266b600000000000000000000000000000000000000000000000000000000835260048301608091815260406020820152601460408201527f41413334207369676e6174757265206572726f7200000000000000000000000060608201520190565b610f21836040519182917f220266b600000000000000000000000000000000000000000000000000000000835260048301608091815260406020820152601760408201527f414132322065787069726564206f72206e6f742064756500000000000000000060608201520190565b610f21846040519182917f220266b600000000000000000000000000000000000000000000000000000000835260048301608091815260406020820152601460408201527f41413234207369676e6174757265206572726f7200000000000000000000000060608201520190565b92919061391f9061394a565b909273ffffffffffffffffffffffffffffffffffffffff808095169116036138a55761383757613730905b80156139e45761395990612e96565b7f182d361d27e8fee91541f8630840b9272bdb770c7bb6239b09cd74563c40534154806139c9575073ffffffffffffffffffffffffffffffffffffffff425b65ffffffffffff908160408501511681119182156139b9575b505091511691565b60208501511611905038806139b1565b73ffffffffffffffffffffffffffffffffffffffff90613998565b50600090600090565b156139f457565b60646040517f08c379a000000000000000000000000000000000000000000000000000000000815260206004820152601860248201527f41413934206761732076616c756573206f766572666c6f7700000000000000006044820152fd5b916000915a93815190613a658282613f35565b613a6e81613121565b6020840152613aac6effffffffffffffffffffffffffffff60808401516060850151176040850151176101008401359060e0850135171711156139ed565b613ab582613ff7565b613ac08185846140b8565b9790613af1613008613ae6875173ffffffffffffffffffffffffffffffffffffffff1690565b602088015190613e60565b613bed57613afe43600052565b73ffffffffffffffffffffffffffffffffffffffff613b3660a0606097015173ffffffffffffffffffffffffffffffffffffffff1690565b16613bd3575b505a810360a084013510613b665760809360c092604087015260608601525a900391013501910152565b6040517f220266b600000000000000000000000000000000000000000000000000000000815280610f21600482016080906000815260406020820152601e60408201527f41413430206f76657220766572696669636174696f6e4761734c696d6974000060608201520190565b90935081613be49297508584614db0565b95909238613b3c565b6040517f220266b600000000000000000000000000000000000000000000000000000000815280610f21600482016080906000815260406020820152601a60408201527f4141323520696e76616c6964206163636f756e74206e6f6e636500000000000060608201520190565b9290916000925a8251613c6d8184613f35565b613c7683613121565b6020850152613cb46effffffffffffffffffffffffffffff60808301516060840151176040840151176101008601359060e0870135171711156139ed565b613cbd81613ff7565b613cc98186868b614424565b9890613cfa613008613cef865173ffffffffffffffffffffffffffffffffffffffff1690565b602087015190613e60565b613df257613d0743600052565b73ffffffffffffffffffffffffffffffffffffffff613d3f60a0606096015173ffffffffffffffffffffffffffffffffffffffff1690565b16613dd7575b505a840360a086013510613d715750604085015260608401526080919060c0905a900391013501910152565b604080517f220266b600000000000000000000000000000000000000000000000000000000815260048101929092526024820152601e60448201527f41413430206f76657220766572696669636174696f6e4761734c696d697400006064820152608490fd5b90925081613de9929850868685615043565b96909138613d45565b610f21826040519182917f220266b600000000000000000000000000000000000000000000000000000000835260048301608091815260406020820152601a60408201527f4141323520696e76616c6964206163636f756e74206e6f6e636500000000000060608201520190565b73ffffffffffffffffffffffffffffffffffffffff16600052600160205267ffffffffffffffff613ebc8260401c60406000209077ffffffffffffffffffffffffffffffffffffffffffffffff16600052602052604060002090565b91825492613ec984611c9d565b9055161490565b15613ed757565b60646040517f08c379a000000000000000000000000000000000000000000000000000000000815260206004820152601d60248201527f4141393320696e76616c6964207061796d6173746572416e64446174610000006044820152fd5b613fa790613f5f613f4582612b15565b73ffffffffffffffffffffffffffffffffffffffff168452565b602081013560208401526080810135604084015260a0810135606084015260c0810135608084015260e081013560c084015261010081013560e0840152610120810190612710565b908115613fec57613fd161124c6112468460a094613fcc601461044d99981015613ed0565b6132a8565b73ffffffffffffffffffffffffffffffffffffffff16910152565b505060a06000910152565b60a081015173ffffffffffffffffffffffffffffffffffffffff16156140395760c060035b60ff60408401519116606084015102016080830151019101510290565b60c0600161401c565b61405a60409295949395606083526060830190612bd4565b9460208201520152565b9061044d602f60405180947f414132332072657665727465643a20000000000000000000000000000000000060208301526140a881518092602086860191016127af565b810103600f8101855201836105ab565b916000926000925a9361418660208351936140e7855173ffffffffffffffffffffffffffffffffffffffff1690565b956140ff6140f86040830183612710565b908461468f565b60a086015173ffffffffffffffffffffffffffffffffffffffff169061412443600052565b85809373ffffffffffffffffffffffffffffffffffffffff8094161598896143bc575b60600151908601516040517f3a871cdd000000000000000000000000000000000000000000000000000000008152978896879586939060048501614042565b03938a1690f182918161439c575b5061439357506001906141a561354b565b6308c379a01461433f575b506142d2575b6141c3575b50505a900391565b6141ed9073ffffffffffffffffffffffffffffffffffffffff166000526000602052604060002090565b614208610a2c82546dffffffffffffffffffffffffffff1690565b8083116142655761425e926dffffffffffffffffffffffffffff9103166dffffffffffffffffffffffffffff167fffffffffffffffffffffffffffffffffffff0000000000000000000000000000825416179055565b38806141bb565b6040517f220266b600000000000000000000000000000000000000000000000000000000815280610f21600482016080906000815260406020820152601760408201527f41413231206469646e2774207061792070726566756e6400000000000000000060608201520190565b6040517f220266b600000000000000000000000000000000000000000000000000000000815280610f21600482016080906000815260406020820152601660408201527f4141323320726576657274656420286f72204f4f47290000000000000000000060608201520190565b614347613569565b908161435357506141b0565b610f21916143619150614064565b6040519182917f220266b600000000000000000000000000000000000000000000000000000000835260048301612f56565b95506141b69050565b6143b591925060203d81116129a65761299781836105ab565b9038614194565b9450614402610a2c6143ee8c73ffffffffffffffffffffffffffffffffffffffff166000526000602052604060002090565b546dffffffffffffffffffffffffffff1690565b8b8111156144195750856060835b96915050614147565b606087918d03614410565b90926000936000935a9461446d6020835193614454855173ffffffffffffffffffffffffffffffffffffffff1690565b956140ff6144656040830183612710565b90848c614996565b03938a1690f182918161466f575b50614666575060019061448c61354b565b6308c379a014614610575b506145a2575b6144ab575b5050505a900391565b6144d59073ffffffffffffffffffffffffffffffffffffffff166000526000602052604060002090565b916144f1610a2c84546dffffffffffffffffffffffffffff1690565b9081831161453c575082547fffffffffffffffffffffffffffffffffffff0000000000000000000000000000169190036dffffffffffffffffffffffffffff161790553880806144a2565b604080517f220266b600000000000000000000000000000000000000000000000000000000815260048101929092526024820152601760448201527f41413231206469646e2774207061792070726566756e640000000000000000006064820152608490fd5b610f21846040519182917f220266b600000000000000000000000000000000000000000000000000000000835260048301608091815260406020820152601660408201527f4141323320726576657274656420286f72204f4f47290000000000000000000060608201520190565b614618613569565b90816146245750614497565b86916146309150614064565b90610f216040519283927f220266b600000000000000000000000000000000000000000000000000000000845260048401612f6e565b965061449d9050565b61468891925060203d81116129a65761299781836105ab565b903861447b565b90918061469b57505050565b81515173ffffffffffffffffffffffffffffffffffffffff1692833b61492957600060206146cd610cb3610cb36134b2565b606086510151604051809481937f570e1a360000000000000000000000000000000000000000000000000000000083528261470c8a8a600484016134a1565b0393f190811561491c575b6000916148fe575b5073ffffffffffffffffffffffffffffffffffffffff8082169586156148915716809503614824573b156147b75761124c6112467fd51a9c61267aa6196961883ecf5ff2da6619c37dac0fa92122513fb32c032d2d9361477e936132a8565b602083810151935160a001516040805173ffffffffffffffffffffffffffffffffffffffff9485168152939091169183019190915290a3565b6040517f220266b600000000000000000000000000000000000000000000000000000000815280610f21600482016080906000815260406020820152602060408201527f4141313520696e6974436f6465206d757374206372656174652073656e64657260608201520190565b6040517f220266b600000000000000000000000000000000000000000000000000000000815280610f21600482016080906000815260406020820152602060408201527f4141313420696e6974436f6465206d7573742072657475726e2073656e64657260608201520190565b6040517f220266b600000000000000000000000000000000000000000000000000000000815280610f21600482016080906000815260406020820152601b60408201527f4141313320696e6974436f6465206661696c6564206f72204f4f47000000000060608201520190565b614916915060203d81116114545761144581836105ab565b3861471f565b6149246128cb565b614717565b6040517f220266b600000000000000000000000000000000000000000000000000000000815280610f21600482016080906000815260406020820152601f60408201527f414131302073656e64657220616c726561647920636f6e73747275637465640060608201520190565b929091816149a5575b50505050565b82515173ffffffffffffffffffffffffffffffffffffffff1693843b614c3657600060206149d7610cb3610cb36134b2565b606087510151604051809481937f570e1a3600000000000000000000000000000000000000000000000000000000835282614a168b8b600484016134a1565b0393f1908115614c29575b600091614c0b575b5073ffffffffffffffffffffffffffffffffffffffff808216968715614b9d5716809603614b2f573b15614ac9575061124c6112467fd51a9c61267aa6196961883ecf5ff2da6619c37dac0fa92122513fb32c032d2d93614a89936132a8565b602083810151935160a001516040805173ffffffffffffffffffffffffffffffffffffffff9485168152939091169183019190915290a33880808061499f565b604080517f220266b600000000000000000000000000000000000000000000000000000000815260048101929092526024820152602060448201527f4141313520696e6974436f6465206d757374206372656174652073656e6465726064820152608490fd5b610f21826040519182917f220266b600000000000000000000000000000000000000000000000000000000835260048301608091815260406020820152602060408201527f4141313420696e6974436f6465206d7573742072657475726e2073656e64657260608201520190565b610f21846040519182917f220266b600000000000000000000000000000000000000000000000000000000835260048301608091815260406020820152601b60408201527f4141313320696e6974436f6465206661696c6564206f72204f4f47000000000060608201520190565b614c23915060203d81116114545761144581836105ab565b38614a29565b614c316128cb565b614a21565b604080517f220266b600000000000000000000000000000000000000000000000000000000815260048101929092526024820152601f60448201527f414131302073656e64657220616c726561647920636f6e7374727563746564006064820152608490fd5b15614ca357565b60646040517f08c379a000000000000000000000000000000000000000000000000000000000815260206004820152601f60248201527f4141343120746f6f206c6974746c6520766572696669636174696f6e476173006044820152fd5b919060408382031261035957825167ffffffffffffffff81116103595783019080601f8301121561035957815191614d3883610639565b91614d4660405193846105ab565b8383526020848301011161035957602092614d66918480850191016127af565b92015190565b9061044d602f60405180947f414133332072657665727465643a20000000000000000000000000000000000060208301526140a881518092602086860191016127af565b939192606094600094600093805192614def60a08a86015195614dd4888811614c9c565b015173ffffffffffffffffffffffffffffffffffffffff1690565b91614e1a8373ffffffffffffffffffffffffffffffffffffffff166000526000602052604060002090565b94614e36610a2c87546dffffffffffffffffffffffffffff1690565b96858810614fd65773ffffffffffffffffffffffffffffffffffffffff60208a9894614eac8a966dffffffffffffffffffffffffffff8b614ee59e03166dffffffffffffffffffffffffffff167fffffffffffffffffffffffffffffffffffff0000000000000000000000000000825416179055565b015194604051998a98899788937ff465c77e00000000000000000000000000000000000000000000000000000000855260048501614042565b0395169103f1908183918493614fb0575b50614fa9575050600190614f0861354b565b6308c379a014614f87575b50614f1a57565b6040517f220266b600000000000000000000000000000000000000000000000000000000815280610f21600482016080906000815260406020820152601660408201527f4141333320726576657274656420286f72204f4f47290000000000000000000060608201520190565b614f8f613569565b9081614f9b5750614f13565b610f21916143619150614d6c565b9450925050565b909250614fcf91503d8085833e614fc781836105ab565b810190614d01565b9138614ef6565b6040517f220266b600000000000000000000000000000000000000000000000000000000815280610f21600482016080906000815260406020820152601e60408201527f41413331207061796d6173746572206465706f73697420746f6f206c6f77000060608201520190565b91949293909360609560009560009382519061506a60a08b84015193614dd4848611614c9c565b936150958573ffffffffffffffffffffffffffffffffffffffff166000526000602052604060002090565b6150b0610a2c82546dffffffffffffffffffffffffffff1690565b87811061520b579273ffffffffffffffffffffffffffffffffffffffff60208a98969394614eac8a966dffffffffffffffffffffffffffff8d61512a9e9c9a03166dffffffffffffffffffffffffffff167fffffffffffffffffffffffffffffffffffff0000000000000000000000000000825416179055565b0395169103f19081839184936151ed575b506151e557505060019061514d61354b565b6308c379a0146151c6575b506151605750565b604080517f220266b600000000000000000000000000000000000000000000000000000000815260048101929092526024820152601660448201527f4141333320726576657274656420286f72204f4f4729000000000000000000006064820152608490fd5b6151ce613569565b90816151da5750615158565b614630925050614d6c565b955093505050565b90925061520491503d8085833e614fc781836105ab565b913861513b565b610f218a6040519182917f220266b600000000000000000000000000000000000000000000000000000000835260048301608091815260406020820152601e60408201527f41413331207061796d6173746572206465706f73697420746f6f206c6f77000060608201520190565b6003111561528357565b7f4e487b7100000000000000000000000000000000000000000000000000000000600052602160045260246000fd5b9291906152d0604091600286526060602087015260608601906127d2565b930152565b939291906003811015615283576040916152d09186526060602087015260608601906127d2565b9061044d603660405180947f4141353020706f73744f702072657665727465643a2000000000000000000000602083015261534081518092602086860191016127af565b81010360168101855201836105ab565b929190925a9360009180519161536583615b6c565b9260a0810195615389875173ffffffffffffffffffffffffffffffffffffffff1690565b73ffffffffffffffffffffffffffffffffffffffff939084811690816154f8575050506153ca825173ffffffffffffffffffffffffffffffffffffffff1690565b985b5a9003019384029760408401908982511061548b577f49628fd1471006c1482da88028e9ce4dbb080b815c9b0344d39e5a8e6ec1419f946154166020928c61548695510390611d5d565b01519489602061545861543d865173ffffffffffffffffffffffffffffffffffffffff1690565b9a5173ffffffffffffffffffffffffffffffffffffffff1690565b9401519785604051968796169a16988590949392606092608083019683521515602083015260408201520152565b0390a4565b6040517f220266b600000000000000000000000000000000000000000000000000000000815280610f21600482016080906000815260406020820152602060408201527f414135312070726566756e642062656c6f772061637475616c476173436f737460608201520190565b9a918051615508575b50506153cc565b6060850151600099509091803b1561562f57918991898361555b956040518097819682957fa9a234090000000000000000000000000000000000000000000000000000000084528c0290600484016152b2565b0393f1908161561c575b5061561757600161557461354b565b6308c379a0146155f8575b61558b575b3880615501565b6040517f220266b600000000000000000000000000000000000000000000000000000000815280610f21600482016080906000815260406020820152601260408201527f4141353020706f73744f7020726576657274000000000000000000000000000060608201520190565b615600613569565b8061560b575061557f565b614361610f21916152fc565b615584565b80610f486156299261057b565b38615565565b8980fd5b9392915a9060009280519061564782615b6c565b9360a083019661566b885173ffffffffffffffffffffffffffffffffffffffff1690565b73ffffffffffffffffffffffffffffffffffffffff95908681169081615761575050506156ac845173ffffffffffffffffffffffffffffffffffffffff1690565b915b5a9003019485029860408301908a8251106156fb57507f49628fd1471006c1482da88028e9ce4dbb080b815c9b0344d39e5a8e6ec1419f949392615416615486938c602094510390611d5d565b604080517f220266b600000000000000000000000000000000000000000000000000000000815260048101929092526024820152602060448201527f414135312070726566756e642062656c6f772061637475616c476173436f73746064820152608490fd5b93918051615771575b50506156ae565b606087015160009a509091803b1561589757918a918a836157c4956040518097819682957fa9a234090000000000000000000000000000000000000000000000000000000084528c0290600484016152b2565b0393f19081615884575b5061587f5760016157dd61354b565b6308c379a014615862575b6157f4575b388061576a565b610f218b6040519182917f220266b600000000000000000000000000000000000000000000000000000000835260048301608091815260406020820152601260408201527f4141353020706f73744f7020726576657274000000000000000000000000000060608201520190565b61586a613569565b8061587557506157e8565b6146308d916152fc565b6157ed565b80610f486158919261057b565b386157ce565b8a80fd5b909392915a948051916158ad83615b6c565b9260a08101956158d1875173ffffffffffffffffffffffffffffffffffffffff1690565b73ffffffffffffffffffffffffffffffffffffffff9381851691826159b957505050615911825173ffffffffffffffffffffffffffffffffffffffff1690565b985b5a9003019384029760408401908982511061548b577f49628fd1471006c1482da88028e9ce4dbb080b815c9b0344d39e5a8e6ec1419f9461595d6020928c61548695510390611d5d565b61596688615279565b01519489602061598d61543d865173ffffffffffffffffffffffffffffffffffffffff1690565b940151604080519182529815602082015297880152606087015290821695909116939081906080820190565b9a9181516159c9575b5050615913565b8784026159d58a615279565b60028a14615a60576060860151823b1561035957615a2893600080948d604051978896879586937fa9a23409000000000000000000000000000000000000000000000000000000008552600485016152d5565b0393f18015615a53575b615a40575b505b38806159c2565b80610f48615a4d9261057b565b38615a37565b615a5b6128cb565b615a32565b6060860151823b1561035957615aab93600080948d604051978896879586937fa9a23409000000000000000000000000000000000000000000000000000000008552600485016152d5565b0393f19081615b59575b50615b54576001615ac461354b565b6308c379a014615b41575b15615a39576040517f220266b600000000000000000000000000000000000000000000000000000000815280610f21600482016080906000815260406020820152601260408201527f4141353020706f73744f7020726576657274000000000000000000000000000060608201520190565b615b49613569565b8061560b5750615acf565b615a39565b80610f48615b669261057b565b38615ab5565b60e060c0820151910151808214615bc0577f59e3bb5c9eacf8e7a9c3802366751badc68d4d97d3e35b1744045784c52f20dd5480615bba575048905b0180821015615bb5575090565b905090565b90615ba8565b509056fea2646970667358221220ea48e176eaf9dee1e9da292ccdbc13c0a58baf4f5c54f79b028836fc2d6fbef464736f6c63430008110033","linkReferences":{}},"methodIdentifiers":{"SIG_VALIDATION_FAILED()":"8f41ec5a","_validateSenderAndPaymaster(bytes,address,bytes)":"957122ab","addStake(uint32)":"0396cb60","balanceOf(address)":"70a08231","depositTo(address)":"b760faf9","deposits(address)":"fc7e286d","getDepositInfo(address)":"5287ce12","getNonce(address,uint192)":"35567e1a","getSenderAddress(bytes)":"9b249f69","getUserOpHash((address,uint256,bytes,bytes,uint256,uint256,uint256,uint256,uint256,bytes,bytes))":"a6193531","handleAggregatedOps(((address,uint256,bytes,bytes,uint256,uint256,uint256,uint256,uint256,bytes,bytes)[],address,bytes)[],address)":"4b1d7cf5","handleOps((address,uint256,bytes,bytes,uint256,uint256,uint256,uint256,uint256,bytes,bytes)[],address)":"1fad948c","incrementNonce(uint192)":"0bd28e3b","innerHandleOp(bytes,((address,uint256,uint256,uint256,uint256,address,uint256,uint256),bytes32,uint256,uint256,uint256),bytes)":"1d732756","nonceSequenceNumber(address,uint192)":"1b2e01b8","simulateHandleOp((address,uint256,bytes,bytes,uint256,uint256,uint256,uint256,uint256,bytes,bytes),address,bytes)":"d6383f94","simulateValidation((address,uint256,bytes,bytes,uint256,uint256,uint256,uint256,uint256,bytes,bytes))":"ee219423","unlockStake()":"bb9fe6bf","withdrawStake(address)":"c23a5cea","withdrawTo(address,uint256)":"205c2878"},"id":15}