{"abi":[{"type":"constructor","inputs":[],"stateMutability":"nonpayable"},{"type":"function","name":"binarySearchCallGas","inputs":[{"name":"entryPointSimulation","type":"address","internalType":"address"},{"name":"entryPoint","type":"address","internalType":"address"},{"name":"queuedUserOps","type":"tuple[]","internalType":"struct PackedUserOperation[]","components":[{"name":"sender","type":"address","internalType":"address"},{"name":"nonce","type":"uint256","internalType":"uint256"},{"name":"initCode","type":"bytes","internalType":"bytes"},{"name":"callData","type":"bytes","internalType":"bytes"},{"name":"accountGasLimits","type":"bytes32","internalType":"bytes32"},{"name":"preVerificationGas","type":"uint256","internalType":"uint256"},{"name":"gasFees","type":"bytes32","internalType":"bytes32"},{"name":"paymasterAndData","type":"bytes","internalType":"bytes"},{"name":"signature","type":"bytes","internalType":"bytes"}]},{"name":"targetUserOp","type":"tuple","internalType":"struct PackedUserOperation","components":[{"name":"sender","type":"address","internalType":"address"},{"name":"nonce","type":"uint256","internalType":"uint256"},{"name":"initCode","type":"bytes","internalType":"bytes"},{"name":"callData","type":"bytes","internalType":"bytes"},{"name":"accountGasLimits","type":"bytes32","internalType":"bytes32"},{"name":"preVerificationGas","type":"uint256","internalType":"uint256"},{"name":"gasFees","type":"bytes32","internalType":"bytes32"},{"name":"paymasterAndData","type":"bytes","internalType":"bytes"},{"name":"signature","type":"bytes","internalType":"bytes"}]},{"name":"initialMinGas","type":"uint256","internalType":"uint256"},{"name":"toleranceDelta","type":"uint256","internalType":"uint256"},{"name":"gasAllowance","type":"uint256","internalType":"uint256"}],"outputs":[{"name":"","type":"tuple","internalType":"struct IEntryPointSimulations.BinarySearchResult","components":[{"name":"resultType","type":"uint8","internalType":"enum IEntryPointSimulations.BinarySearchResultType"},{"name":"successData","type":"tuple","internalType":"struct IEntryPointSimulations.BinarySearchSuccess","components":[{"name":"gasUsed","type":"uint256","internalType":"uint256"},{"name":"success","type":"bool","internalType":"bool"},{"name":"returnData","type":"bytes","internalType":"bytes"}]},{"name":"outOfGasData","type":"tuple","internalType":"struct IEntryPointSimulations.BinarySearchOutOfGas","components":[{"name":"optimalGas","type":"uint256","internalType":"uint256"},{"name":"minGas","type":"uint256","internalType":"uint256"},{"name":"maxGas","type":"uint256","internalType":"uint256"}]}]}],"stateMutability":"nonpayable"},{"type":"function","name":"binarySearchPaymasterVerificationGas","inputs":[{"name":"entryPointSimulation","type":"address","internalType":"address"},{"name":"entryPoint","type":"address","internalType":"address payable"},{"name":"queuedUserOps","type":"tuple[]","internalType":"struct PackedUserOperation[]","components":[{"name":"sender","type":"address","internalType":"address"},{"name":"nonce","type":"uint256","internalType":"uint256"},{"name":"initCode","type":"bytes","internalType":"bytes"},{"name":"callData","type":"bytes","internalType":"bytes"},{"name":"accountGasLimits","type":"bytes32","internalType":"bytes32"},{"name":"preVerificationGas","type":"uint256","internalType":"uint256"},{"name":"gasFees","type":"bytes32","internalType":"bytes32"},{"name":"paymasterAndData","type":"bytes","internalType":"bytes"},{"name":"signature","type":"bytes","internalType":"bytes"}]},{"name":"targetUserOp","type":"tuple","internalType":"struct PackedUserOperation","components":[{"name":"sender","type":"address","internalType":"address"},{"name":"nonce","type":"uint256","internalType":"uint256"},{"name":"initCode","type":"bytes","internalType":"bytes"},{"name":"callData","type":"bytes","internalType":"bytes"},{"name":"accountGasLimits","type":"bytes32","internalType":"bytes32"},{"name":"preVerificationGas","type":"uint256","internalType":"uint256"},{"name":"gasFees","type":"bytes32","internalType":"bytes32"},{"name":"paymasterAndData","type":"bytes","internalType":"bytes"},{"name":"signature","type":"bytes","internalType":"bytes"}]},{"name":"initialMinGas","type":"uint256","internalType":"uint256"},{"name":"toleranceDelta","type":"uint256","internalType":"uint256"},{"name":"gasAllowance","type":"uint256","internalType":"uint256"}],"outputs":[{"name":"","type":"tuple","internalType":"struct IEntryPointSimulations.BinarySearchResult","components":[{"name":"resultType","type":"uint8","internalType":"enum IEntryPointSimulations.BinarySearchResultType"},{"name":"successData","type":"tuple","internalType":"struct IEntryPointSimulations.BinarySearchSuccess","components":[{"name":"gasUsed","type":"uint256","internalType":"uint256"},{"name":"success","type":"bool","internalType":"bool"},{"name":"returnData","type":"bytes","internalType":"bytes"}]},{"name":"outOfGasData","type":"tuple","internalType":"struct IEntryPointSimulations.BinarySearchOutOfGas","components":[{"name":"optimalGas","type":"uint256","internalType":"uint256"},{"name":"minGas","type":"uint256","internalType":"uint256"},{"name":"maxGas","type":"uint256","internalType":"uint256"}]}]}],"stateMutability":"nonpayable"},{"type":"function","name":"binarySearchVerificationGas","inputs":[{"name":"entryPointSimulation","type":"address","internalType":"address"},{"name":"entryPoint","type":"address","internalType":"address payable"},{"name":"queuedUserOps","type":"tuple[]","internalType":"struct PackedUserOperation[]","components":[{"name":"sender","type":"address","internalType":"address"},{"name":"nonce","type":"uint256","internalType":"uint256"},{"name":"initCode","type":"bytes","internalType":"bytes"},{"name":"callData","type":"bytes","internalType":"bytes"},{"name":"accountGasLimits","type":"bytes32","internalType":"bytes32"},{"name":"preVerificationGas","type":"uint256","internalType":"uint256"},{"name":"gasFees","type":"bytes32","internalType":"bytes32"},{"name":"paymasterAndData","type":"bytes","internalType":"bytes"},{"name":"signature","type":"bytes","internalType":"bytes"}]},{"name":"targetUserOp","type":"tuple","internalType":"struct PackedUserOperation","components":[{"name":"sender","type":"address","internalType":"address"},{"name":"nonce","type":"uint256","internalType":"uint256"},{"name":"initCode","type":"bytes","internalType":"bytes"},{"name":"callData","type":"bytes","internalType":"bytes"},{"name":"accountGasLimits","type":"bytes32","internalType":"bytes32"},{"name":"preVerificationGas","type":"uint256","internalType":"uint256"},{"name":"gasFees","type":"bytes32","internalType":"bytes32"},{"name":"paymasterAndData","type":"bytes","internalType":"bytes"},{"name":"signature","type":"bytes","internalType":"bytes"}]},{"name":"initialMinGas","type":"uint256","internalType":"uint256"},{"name":"toleranceDelta","type":"uint256","internalType":"uint256"},{"name":"gasAllowance","type":"uint256","internalType":"uint256"}],"outputs":[{"name":"","type":"tuple","internalType":"struct IEntryPointSimulations.BinarySearchResult","components":[{"name":"resultType","type":"uint8","internalType":"enum IEntryPointSimulations.BinarySearchResultType"},{"name":"successData","type":"tuple","internalType":"struct IEntryPointSimulations.BinarySearchSuccess","components":[{"name":"gasUsed","type":"uint256","internalType":"uint256"},{"name":"success","type":"bool","internalType":"bool"},{"name":"returnData","type":"bytes","internalType":"bytes"}]},{"name":"outOfGasData","type":"tuple","internalType":"struct IEntryPointSimulations.BinarySearchOutOfGas","components":[{"name":"optimalGas","type":"uint256","internalType":"uint256"},{"name":"minGas","type":"uint256","internalType":"uint256"},{"name":"maxGas","type":"uint256","internalType":"uint256"}]}]}],"stateMutability":"nonpayable"},{"type":"function","name":"filterOps06","inputs":[{"name":"userOps","type":"tuple[]","internalType":"struct UserOperation[]","components":[{"name":"sender","type":"address","internalType":"address"},{"name":"nonce","type":"uint256","internalType":"uint256"},{"name":"initCode","type":"bytes","internalType":"bytes"},{"name":"callData","type":"bytes","internalType":"bytes"},{"name":"callGasLimit","type":"uint256","internalType":"uint256"},{"name":"verificationGasLimit","type":"uint256","internalType":"uint256"},{"name":"preVerificationGas","type":"uint256","internalType":"uint256"},{"name":"maxFeePerGas","type":"uint256","internalType":"uint256"},{"name":"maxPriorityFeePerGas","type":"uint256","internalType":"uint256"},{"name":"paymasterAndData","type":"bytes","internalType":"bytes"},{"name":"signature","type":"bytes","internalType":"bytes"}]},{"name":"beneficiary","type":"address","internalType":"address payable"},{"name":"entryPoint","type":"address","internalType":"contract IEntryPoint"}],"outputs":[{"name":"","type":"tuple","internalType":"struct PimlicoSimulations.FilterOpsResult","components":[{"name":"gasUsed","type":"uint256","internalType":"uint256"},{"name":"balanceChange","type":"uint256","internalType":"uint256"},{"name":"rejectedUserOps","type":"tuple[]","internalType":"struct PimlicoSimulations.RejectedUserOp[]","components":[{"name":"userOpHash","type":"bytes32","internalType":"bytes32"},{"name":"revertReason","type":"bytes","internalType":"bytes"}]}]}],"stateMutability":"nonpayable"},{"type":"function","name":"filterOps07","inputs":[{"name":"userOps","type":"tuple[]","internalType":"struct PackedUserOperation[]","components":[{"name":"sender","type":"address","internalType":"address"},{"name":"nonce","type":"uint256","internalType":"uint256"},{"name":"initCode","type":"bytes","internalType":"bytes"},{"name":"callData","type":"bytes","internalType":"bytes"},{"name":"accountGasLimits","type":"bytes32","internalType":"bytes32"},{"name":"preVerificationGas","type":"uint256","internalType":"uint256"},{"name":"gasFees","type":"bytes32","internalType":"bytes32"},{"name":"paymasterAndData","type":"bytes","internalType":"bytes"},{"name":"signature","type":"bytes","internalType":"bytes"}]},{"name":"beneficiary","type":"address","internalType":"address payable"},{"name":"entryPoint","type":"address","internalType":"contract IEntryPoint"}],"outputs":[{"name":"","type":"tuple","internalType":"struct PimlicoSimulations.FilterOpsResult","components":[{"name":"gasUsed","type":"uint256","internalType":"uint256"},{"name":"balanceChange","type":"uint256","internalType":"uint256"},{"name":"rejectedUserOps","type":"tuple[]","internalType":"struct PimlicoSimulations.RejectedUserOp[]","components":[{"name":"userOpHash","type":"bytes32","internalType":"bytes32"},{"name":"revertReason","type":"bytes","internalType":"bytes"}]}]}],"stateMutability":"nonpayable"},{"type":"function","name":"filterOps08","inputs":[{"name":"userOps","type":"tuple[]","internalType":"struct PackedUserOperation[]","components":[{"name":"sender","type":"address","internalType":"address"},{"name":"nonce","type":"uint256","internalType":"uint256"},{"name":"initCode","type":"bytes","internalType":"bytes"},{"name":"callData","type":"bytes","internalType":"bytes"},{"name":"accountGasLimits","type":"bytes32","internalType":"bytes32"},{"name":"preVerificationGas","type":"uint256","internalType":"uint256"},{"name":"gasFees","type":"bytes32","internalType":"bytes32"},{"name":"paymasterAndData","type":"bytes","internalType":"bytes"},{"name":"signature","type":"bytes","internalType":"bytes"}]},{"name":"beneficiary","type":"address","internalType":"address payable"},{"name":"entryPoint","type":"address","internalType":"contract IEntryPoint"}],"outputs":[{"name":"","type":"tuple","internalType":"struct PimlicoSimulations.FilterOpsResult","components":[{"name":"gasUsed","type":"uint256","internalType":"uint256"},{"name":"balanceChange","type":"uint256","internalType":"uint256"},{"name":"rejectedUserOps","type":"tuple[]","internalType":"struct PimlicoSimulations.RejectedUserOp[]","components":[{"name":"userOpHash","type":"bytes32","internalType":"bytes32"},{"name":"revertReason","type":"bytes","internalType":"bytes"}]}]}],"stateMutability":"nonpayable"},{"type":"function","name":"getBalances","inputs":[{"name":"addresses","type":"address[]","internalType":"address[]"},{"name":"tokens","type":"address[]","internalType":"address[]"}],"outputs":[{"name":"","type":"tuple[]","internalType":"struct PimlicoSimulations.AssetBalance[]","components":[{"name":"addr","type":"address","internalType":"address"},{"name":"token","type":"address","internalType":"address"},{"name":"amount","type":"uint256","internalType":"uint256"}]}],"stateMutability":"view"},{"type":"function","name":"simulateAndEstimateGas","inputs":[{"name":"entryPointSimulation","type":"address","internalType":"address"},{"name":"entryPoint","type":"address","internalType":"address payable"},{"name":"queuedUserOps","type":"tuple[]","internalType":"struct PackedUserOperation[]","components":[{"name":"sender","type":"address","internalType":"address"},{"name":"nonce","type":"uint256","internalType":"uint256"},{"name":"initCode","type":"bytes","internalType":"bytes"},{"name":"callData","type":"bytes","internalType":"bytes"},{"name":"accountGasLimits","type":"bytes32","internalType":"bytes32"},{"name":"preVerificationGas","type":"uint256","internalType":"uint256"},{"name":"gasFees","type":"bytes32","internalType":"bytes32"},{"name":"paymasterAndData","type":"bytes","internalType":"bytes"},{"name":"signature","type":"bytes","internalType":"bytes"}]},{"name":"targetUserOp","type":"tuple","internalType":"struct PackedUserOperation","components":[{"name":"sender","type":"address","internalType":"address"},{"name":"nonce","type":"uint256","internalType":"uint256"},{"name":"initCode","type":"bytes","internalType":"bytes"},{"name":"callData","type":"bytes","internalType":"bytes"},{"name":"accountGasLimits","type":"bytes32","internalType":"bytes32"},{"name":"preVerificationGas","type":"uint256","internalType":"uint256"},{"name":"gasFees","type":"bytes32","internalType":"bytes32"},{"name":"paymasterAndData","type":"bytes","internalType":"bytes"},{"name":"signature","type":"bytes","internalType":"bytes"}]},{"name":"initialMinGas","type":"uint256","internalType":"uint256"},{"name":"toleranceDelta","type":"uint256","internalType":"uint256"},{"name":"gasAllowance","type":"uint256","internalType":"uint256"}],"outputs":[{"name":"result","type":"tuple","internalType":"struct PimlicoSimulations.SimulateAndEstimateGasResult","components":[{"name":"simulationResult","type":"tuple","internalType":"struct IEntryPointSimulations.ExecutionResult","components":[{"name":"preOpGas","type":"uint256","internalType":"uint256"},{"name":"paid","type":"uint256","internalType":"uint256"},{"name":"accountValidationData","type":"uint256","internalType":"uint256"},{"name":"paymasterValidationData","type":"uint256","internalType":"uint256"},{"name":"paymasterVerificationGasLimit","type":"uint256","internalType":"uint256"},{"name":"paymasterPostOpGasLimit","type":"uint256","internalType":"uint256"},{"name":"targetSuccess","type":"bool","internalType":"bool"},{"name":"targetResult","type":"bytes","internalType":"bytes"}]},{"name":"verificationGasLimit","type":"tuple","internalType":"struct IEntryPointSimulations.BinarySearchResult","components":[{"name":"resultType","type":"uint8","internalType":"enum IEntryPointSimulations.BinarySearchResultType"},{"name":"successData","type":"tuple","internalType":"struct IEntryPointSimulations.BinarySearchSuccess","components":[{"name":"gasUsed","type":"uint256","internalType":"uint256"},{"name":"success","type":"bool","internalType":"bool"},{"name":"returnData","type":"bytes","internalType":"bytes"}]},{"name":"outOfGasData","type":"tuple","internalType":"struct IEntryPointSimulations.BinarySearchOutOfGas","components":[{"name":"optimalGas","type":"uint256","internalType":"uint256"},{"name":"minGas","type":"uint256","internalType":"uint256"},{"name":"maxGas","type":"uint256","internalType":"uint256"}]}]},{"name":"paymasterVerificationGasLimit","type":"tuple","internalType":"struct IEntryPointSimulations.BinarySearchResult","components":[{"name":"resultType","type":"uint8","internalType":"enum IEntryPointSimulations.BinarySearchResultType"},{"name":"successData","type":"tuple","internalType":"struct IEntryPointSimulations.BinarySearchSuccess","components":[{"name":"gasUsed","type":"uint256","internalType":"uint256"},{"name":"success","type":"bool","internalType":"bool"},{"name":"returnData","type":"bytes","internalType":"bytes"}]},{"name":"outOfGasData","type":"tuple","internalType":"struct IEntryPointSimulations.BinarySearchOutOfGas","components":[{"name":"optimalGas","type":"uint256","internalType":"uint256"},{"name":"minGas","type":"uint256","internalType":"uint256"},{"name":"maxGas","type":"uint256","internalType":"uint256"}]}]}]}],"stateMutability":"nonpayable"},{"type":"function","name":"simulateAssetChange06","inputs":[{"name":"userOp","type":"tuple","internalType":"struct UserOperation","components":[{"name":"sender","type":"address","internalType":"address"},{"name":"nonce","type":"uint256","internalType":"uint256"},{"name":"initCode","type":"bytes","internalType":"bytes"},{"name":"callData","type":"bytes","internalType":"bytes"},{"name":"callGasLimit","type":"uint256","internalType":"uint256"},{"name":"verificationGasLimit","type":"uint256","internalType":"uint256"},{"name":"preVerificationGas","type":"uint256","internalType":"uint256"},{"name":"maxFeePerGas","type":"uint256","internalType":"uint256"},{"name":"maxPriorityFeePerGas","type":"uint256","internalType":"uint256"},{"name":"paymasterAndData","type":"bytes","internalType":"bytes"},{"name":"signature","type":"bytes","internalType":"bytes"}]},{"name":"entryPoint","type":"address","internalType":"contract IEntryPoint"},{"name":"addresses","type":"address[]","internalType":"address[]"},{"name":"tokens","type":"address[]","internalType":"address[]"}],"outputs":[{"name":"","type":"tuple[]","internalType":"struct PimlicoSimulations.AssetChange[]","components":[{"name":"addr","type":"address","internalType":"address"},{"name":"token","type":"address","internalType":"address"},{"name":"balanceBefore","type":"uint256","internalType":"uint256"},{"name":"balanceAfter","type":"uint256","internalType":"uint256"}]}],"stateMutability":"nonpayable"},{"type":"function","name":"simulateAssetChange07","inputs":[{"name":"userOp","type":"tuple","internalType":"struct PackedUserOperation","components":[{"name":"sender","type":"address","internalType":"address"},{"name":"nonce","type":"uint256","internalType":"uint256"},{"name":"initCode","type":"bytes","internalType":"bytes"},{"name":"callData","type":"bytes","internalType":"bytes"},{"name":"accountGasLimits","type":"bytes32","internalType":"bytes32"},{"name":"preVerificationGas","type":"uint256","internalType":"uint256"},{"name":"gasFees","type":"bytes32","internalType":"bytes32"},{"name":"paymasterAndData","type":"bytes","internalType":"bytes"},{"name":"signature","type":"bytes","internalType":"bytes"}]},{"name":"entryPoint","type":"address","internalType":"contract IEntryPoint"},{"name":"entryPointSimulations","type":"address","internalType":"address"},{"name":"addresses","type":"address[]","internalType":"address[]"},{"name":"tokens","type":"address[]","internalType":"address[]"}],"outputs":[{"name":"","type":"tuple[]","internalType":"struct PimlicoSimulations.AssetChange[]","components":[{"name":"addr","type":"address","internalType":"address"},{"name":"token","type":"address","internalType":"address"},{"name":"balanceBefore","type":"uint256","internalType":"uint256"},{"name":"balanceAfter","type":"uint256","internalType":"uint256"}]}],"stateMutability":"nonpayable"},{"type":"function","name":"simulateAssetChange08","inputs":[{"name":"userOp","type":"tuple","internalType":"struct PackedUserOperation","components":[{"name":"sender","type":"address","internalType":"address"},{"name":"nonce","type":"uint256","internalType":"uint256"},{"name":"initCode","type":"bytes","internalType":"bytes"},{"name":"callData","type":"bytes","internalType":"bytes"},{"name":"accountGasLimits","type":"bytes32","internalType":"bytes32"},{"name":"preVerificationGas","type":"uint256","internalType":"uint256"},{"name":"gasFees","type":"bytes32","internalType":"bytes32"},{"name":"paymasterAndData","type":"bytes","internalType":"bytes"},{"name":"signature","type":"bytes","internalType":"bytes"}]},{"name":"entryPoint","type":"address","internalType":"contract IEntryPoint"},{"name":"entryPointSimulations","type":"address","internalType":"address"},{"name":"addresses","type":"address[]","internalType":"address[]"},{"name":"tokens","type":"address[]","internalType":"address[]"}],"outputs":[{"name":"","type":"tuple[]","internalType":"struct PimlicoSimulations.AssetChange[]","components":[{"name":"addr","type":"address","internalType":"address"},{"name":"token","type":"address","internalType":"address"},{"name":"balanceBefore","type":"uint256","internalType":"uint256"},{"name":"balanceAfter","type":"uint256","internalType":"uint256"}]}],"stateMutability":"nonpayable"},{"type":"function","name":"simulateEntryPointBulk","inputs":[{"name":"entryPointSimulation","type":"address","internalType":"address"},{"name":"entryPoint","type":"address","internalType":"address payable"},{"name":"data","type":"bytes[]","internalType":"bytes[]"}],"outputs":[{"name":"","type":"bytes[]","internalType":"bytes[]"}],"stateMutability":"nonpayable"},{"type":"function","name":"simulateHandleOp","inputs":[{"name":"entryPointSimulation","type":"address","internalType":"address"},{"name":"entryPoint","type":"address","internalType":"address payable"},{"name":"queuedUserOps","type":"tuple[]","internalType":"struct PackedUserOperation[]","components":[{"name":"sender","type":"address","internalType":"address"},{"name":"nonce","type":"uint256","internalType":"uint256"},{"name":"initCode","type":"bytes","internalType":"bytes"},{"name":"callData","type":"bytes","internalType":"bytes"},{"name":"accountGasLimits","type":"bytes32","internalType":"bytes32"},{"name":"preVerificationGas","type":"uint256","internalType":"uint256"},{"name":"gasFees","type":"bytes32","internalType":"bytes32"},{"name":"paymasterAndData","type":"bytes","internalType":"bytes"},{"name":"signature","type":"bytes","internalType":"bytes"}]},{"name":"targetUserOp","type":"tuple","internalType":"struct PackedUserOperation","components":[{"name":"sender","type":"address","internalType":"address"},{"name":"nonce","type":"uint256","internalType":"uint256"},{"name":"initCode","type":"bytes","internalType":"bytes"},{"name":"callData","type":"bytes","internalType":"bytes"},{"name":"accountGasLimits","type":"bytes32","internalType":"bytes32"},{"name":"preVerificationGas","type":"uint256","internalType":"uint256"},{"name":"gasFees","type":"bytes32","internalType":"bytes32"},{"name":"paymasterAndData","type":"bytes","internalType":"bytes"},{"name":"signature","type":"bytes","internalType":"bytes"}]}],"outputs":[{"name":"","type":"tuple","internalType":"struct IEntryPointSimulations.ExecutionResult","components":[{"name":"preOpGas","type":"uint256","internalType":"uint256"},{"name":"paid","type":"uint256","internalType":"uint256"},{"name":"accountValidationData","type":"uint256","internalType":"uint256"},{"name":"paymasterValidationData","type":"uint256","internalType":"uint256"},{"name":"paymasterVerificationGasLimit","type":"uint256","internalType":"uint256"},{"name":"paymasterPostOpGasLimit","type":"uint256","internalType":"uint256"},{"name":"targetSuccess","type":"bool","internalType":"bool"},{"name":"targetResult","type":"bytes","internalType":"bytes"}]}],"stateMutability":"nonpayable"},{"type":"function","name":"simulateValidation","inputs":[{"name":"entryPointSimulation","type":"address","internalType":"address"},{"name":"entryPoint","type":"address","internalType":"address payable"},{"name":"queuedUserOps","type":"tuple[]","internalType":"struct PackedUserOperation[]","components":[{"name":"sender","type":"address","internalType":"address"},{"name":"nonce","type":"uint256","internalType":"uint256"},{"name":"initCode","type":"bytes","internalType":"bytes"},{"name":"callData","type":"bytes","internalType":"bytes"},{"name":"accountGasLimits","type":"bytes32","internalType":"bytes32"},{"name":"preVerificationGas","type":"uint256","internalType":"uint256"},{"name":"gasFees","type":"bytes32","internalType":"bytes32"},{"name":"paymasterAndData","type":"bytes","internalType":"bytes"},{"name":"signature","type":"bytes","internalType":"bytes"}]},{"name":"targetUserOp","type":"tuple","internalType":"struct PackedUserOperation","components":[{"name":"sender","type":"address","internalType":"address"},{"name":"nonce","type":"uint256","internalType":"uint256"},{"name":"initCode","type":"bytes","internalType":"bytes"},{"name":"callData","type":"bytes","internalType":"bytes"},{"name":"accountGasLimits","type":"bytes32","internalType":"bytes32"},{"name":"preVerificationGas","type":"uint256","internalType":"uint256"},{"name":"gasFees","type":"bytes32","internalType":"bytes32"},{"name":"paymasterAndData","type":"bytes","internalType":"bytes"},{"name":"signature","type":"bytes","internalType":"bytes"}]}],"outputs":[{"name":"","type":"tuple","internalType":"struct IEntryPointSimulations.ValidationResult","components":[{"name":"returnInfo","type":"tuple","internalType":"struct IEntryPoint.ReturnInfo","components":[{"name":"preOpGas","type":"uint256","internalType":"uint256"},{"name":"prefund","type":"uint256","internalType":"uint256"},{"name":"accountValidationData","type":"uint256","internalType":"uint256"},{"name":"paymasterValidationData","type":"uint256","internalType":"uint256"},{"name":"paymasterContext","type":"bytes","internalType":"bytes"}]},{"name":"senderInfo","type":"tuple","internalType":"struct IStakeManager.StakeInfo","components":[{"name":"stake","type":"uint256","internalType":"uint256"},{"name":"unstakeDelaySec","type":"uint256","internalType":"uint256"}]},{"name":"factoryInfo","type":"tuple","internalType":"struct IStakeManager.StakeInfo","components":[{"name":"stake","type":"uint256","internalType":"uint256"},{"name":"unstakeDelaySec","type":"uint256","internalType":"uint256"}]},{"name":"paymasterInfo","type":"tuple","internalType":"struct IStakeManager.StakeInfo","components":[{"name":"stake","type":"uint256","internalType":"uint256"},{"name":"unstakeDelaySec","type":"uint256","internalType":"uint256"}]},{"name":"aggregatorInfo","type":"tuple","internalType":"struct IEntryPoint.AggregatorStakeInfo","components":[{"name":"aggregator","type":"address","internalType":"address"},{"name":"stakeInfo","type":"tuple","internalType":"struct IStakeManager.StakeInfo","components":[{"name":"stake","type":"uint256","internalType":"uint256"},{"name":"unstakeDelaySec","type":"uint256","internalType":"uint256"}]}]}]}],"stateMutability":"nonpayable"},{"type":"event","name":"PimlicoSimulationDeployed","inputs":[],"anonymous":false}],"bytecode":{"object":"0x60808060405234603a577f20d4cb4d83077ae7f93cbc84f032f6918d99772c5bb321c4333007d83641ab7e600080a161389490816100408239f35b600080fdfe60a0604052600436101561001257600080fd5b60006080526080513560e01c8063141eb033146122a75780632e5a0a9314612238578063685f602614611e345780637134990314611d26578063861d9d5914611ac757806390d81dfb146118b3578063959c4cb7146112a75780639f2d378914611215578063a4968eab14610ff0578063b21b38c814610d54578063de040de114610a3d578063ef5bfc371461079e578063f1143043146107165763fccb5ff6146100bc57600080fd5b3461048b57606036600319011261048b5760043567ffffffffffffffff811161048b576100ed9036906004016126c5565b906100f66124c3565b906100ff6124d9565b90610108612a2e565b5061011161306b565b8051906801000000000000000082116106fe576080515482608051558083106105ee575b5060808051805251939493907f290decd9548b62a8d60345a988386fc84ba6bc95484008f6362f93160ef3e563906020015b8383106105ca575050505060805192608051916001600160a01b038060805195169216956040945b8181106101c9576101c58787878151926101a884612535565b835260208301526101b76132be565b81830152519182918261286b565b0390f35b85516101d587826125e0565b600181526080515b601f198801811061055c57506101f4828486613581565b6101208136031261048b5787519061020b826125a6565b610214816124ef565b8252602081013560208301528881013567ffffffffffffffff811161048b576102409036908301612636565b89830152606081013567ffffffffffffffff811161048b576102659036908301612636565b60608301526080810135608083015260a081013560a083015260c081013560c083015260e081013567ffffffffffffffff811161048b576102a99036908301612636565b60e08301526101008101359067ffffffffffffffff821161048b576102d091369101612636565b6101008201526102df826129d7565b526102e9816129d7565b5084315a918a3b1561048b578851907f765e827f000000000000000000000000000000000000000000000000000000008252604482018a600484015281518091526064830190602060648260051b860101930191608051905b8282106104915750505050876024830152818c8180608051940391608051905af19081610472575b506104445750506103c261037c612f82565b6020610389848688613581565b8951809481927f22cdde4c0000000000000000000000000000000000000000000000000000000083528460048401526024830190612aef565b03818d5afa91821561043857608051926103fe575b50600192916103f8918951916103ec83612551565b82526020820152613266565b0161018f565b90915060203d8111610431575b61041581836125e0565b6020826000928101031261042e575051906103f86103d7565b80fd5b503d61040b565b88513d608051823e3d90fd5b956104606001939761046661046c949b6104605a8b319e613236565b90613259565b9a613236565b946103f8565b60805161047e916125e0565b60805161048b573861036a565b60805180fd5b909192936020989e9798808f9e9c9f610542909c9e999c6001946063198b82030187526101006105306105006104ee8d51956001600160a01b038751168652888701518987015261012081880151918701526101208601906126a0565b606086015185820360608701526126a0565b6080850151608085015260a085015160a085015260c085015160c085015260e085015184820360e08601526126a0565b920151906101008184039101526126a0565b9601920192019092919d97969d9c999b9c9a98959a610342565b602090889795989992939996949651610574816125a6565b608051815260805183820152606089820152606080820152608051608082015260805160a082015260805160c0820152606060e082015260606101008201528282860101520197919097969395969492946101dd565b60026020826105df6001949a999a5186613104565b01920192019190959495610167565b6001600160ff1b03811681036106e6576001600160ff1b03831683036106e6576080516080515260011b7f290decd9548b62a8d60345a988386fc84ba6bc95484008f6362f93160ef3e563018260011b7f290decd9548b62a8d60345a988386fc84ba6bc95484008f6362f93160ef3e563015b81811061066e5750610135565b60805181556001810180546002929190610687906130b3565b80610695575b505001610661565b601f81116001146106ae575060805190555b388061068d565b6106cf9082608051526001601f602060805120920160051c820191016130ed565b6080805182905251602081209181905590556106a7565b634e487b7160e01b6080515260116004526024608051fd5b634e487b7160e01b6080515260416004526024608051fd5b3461048b576101c561078a61077b6107746107666001600160a01b0361073b36612957565b6107499793949691976133d8565b5060405197889363af32494360e01b60208601526024850161341b565b03601f1981018652856125e0565b16906135a4565b60208082518301019101613441565b6040519182916020835260208301906128f8565b3461048b57604036600319011261048b5760043567ffffffffffffffff811161048b576107cf9036906004016126c5565b9060243567ffffffffffffffff811161048b576107f09036906004016126c5565b838102939192918015818604831417156106e65761080d85612602565b9461081b60405196876125e0565b80865261082a601f1991612602565b016080515b818110610a2657505060805190815b8181106108b557866040518091602082016020835281518091526020604084019201906080515b818110610873575050500390f35b9193509160206060600192604087516001600160a01b0381511683526001600160a01b0385820151168584015201516040820152019401910191849392610865565b6108c86108c382848861355d565b61356d565b608051906001600160a01b038116915b8681106108ea5750505060010161083e565b86898273eeeeeeeeeeeeeeeeeeeeeeeeeeeeeeeeeeeeeeee6001600160a01b036109186108c384878761355d565b1603610984575050508131905b6109336108c3828a8d61355d565b916001600160a01b036040519361094985612535565b86855216602084015260408301528660001981146106e657876001936109768e9a8661097d95019b6129fa565b528c6129fa565b50016108d8565b61099e6108c36001600160a01b039260249560209561355d565b16604051928380927f70a082310000000000000000000000000000000000000000000000000000000082528860048301525afa908115610a1957608051916109e8575b5090610925565b90506020813d8211610a11575b81610a02602093836125e0565b8101031261048b57518b6109e1565b3d91506109f5565b6040513d608051823e3d90fd5b602090610a31612a4f565b82828a0101520161082f565b3461048b57610b5a6107746107666001600160a01b03610a5c36612957565b604097939496919751610a6e8161258a565b604051610a7a8161258a565b6080518152608051602082015260805160408201526080516060820152606060808201528152604051610aac81612551565b60008152600060208201526020820152604051610ac881612551565b60008152600060208201526040820152604051610ae481612551565b60008152600060208201526060820152608060405191610b0383612551565b81518352604051610b1381612551565b6000815260006020820152602084015201526040519788937faec321fb0000000000000000000000000000000000000000000000000000000060208601526024850161341b565b80518101602081019160208183031261048b5760208101519067ffffffffffffffff821161048b5701808203601f19810192906101401361048b5760405190610ba28261258a565b602083015167ffffffffffffffff811161048b578301602081019160a09190031261048b5760405190610bd48261258a565b8051825260208101516020830152604081015160408301526060810151606083015260808101519067ffffffffffffffff821161048b57610c1791879101612c6a565b60808201528152610c2b8460408401613535565b9160208201928352610c408560808301613535565b90604083019182526060610c578760c08401613535565b8482019081529560bf19011261048b57602080958180959481610cfe60808298610ca36101409e6101206040519b610c8e8d612551565b610c9b6101008201612d95565b8d5201613535565b848a01528181019889526040519d848f9e928f938452519201528c61016082519101528c610180858301519101528c6101a060408301519101528c6101c06060830151910152015160a06101e08d01526102008c01906126a0565b9851805160408c0152015160608a015251805160808a0152015160a088015251805160c0880152015160e0860152516001600160a01b038151166101008601520151805161012085015201516101408301520390f35b3461048b5760a036600319011261048b5760043567ffffffffffffffff811161048b57610120600319823603011261048b57610d8e6124c3565b610d966124d9565b9060643567ffffffffffffffff811161048b57610db79036906004016126c5565b60849491943567ffffffffffffffff811161048b57610dda9036906004016126c5565b6040969196519663ef5bfc3760e01b88526080518880610e008585898960048601612ea1565b0381305afa978815610a195760805198610f99575b50610ea494610766610ebc9895610e646001600160a01b0396610e5661077b9b976107749760405195869463ef5bfc3760e01b602087015260248601612ea1565b03601f1981018352826125e0565b6040519788937f7da0c462000000000000000000000000000000000000000000000000000000006020860152606060248601526084850190600401612aef565b306044850152838103602319016064850152906126a0565b60c081015115610f8d5760e0610edd91015160208082518301019101612da9565b90610ee88151612fff565b916080515b8251811015610f7f57806001600160a01b03610f0b600193866129fa565b5151166001600160a01b036020610f2284886129fa565b510151166040610f3284886129fa565b5101516040610f4185886129fa565b5101519160405193610f5285612503565b8452602084015260408301526060820152610f6d82876129fa565b52610f7881866129fa565b5001610eed565b604051806101c586826127fd565b60e00151602081519101fd5b61077491985094610766610ebc9895610e646001600160a01b0396610e5661077b9b97610fdc610ea49c3d80608051833e610fd481836125e0565b810190612da9565b9e9750979b50509650509598505094610e15565b3461048b57610ffe366126f6565b60409793959297969196519661101388612535565b61101b6133d8565b8852602088019861102a612a6e565b8a526040890197611039612a6e565b895261107661077b826110668b610e5660405193849263af32494360e01b60208501528d6024850161341b565b6001600160a01b0388168a6135a4565b8a52878787876110bb8888888860405198899788977f2e5a0a930000000000000000000000000000000000000000000000000000000089526080519a60048a016134e3565b0381608051305af1908115610a1957608051916111f9575b508b5260e0810135601e198236030181121561048b57810180359067ffffffffffffffff821161048b57602082360391011361048b5760141115611160575b61113a8a6101c58b61114d8f60405195869560208752516060602088015260808701906128f8565b9051858203601f19016040870152612782565b9051838203601f19016060850152612782565b906111a2939291604099989951998a9788977f9f2d37890000000000000000000000000000000000000000000000000000000089526080519a60048a016134e3565b0381608051305af1918215610a195761113a946101c59361114d92608051916111d5575b50835294829387808080611112565b6111f391503d80608051833e6111eb81836125e0565b810190612cac565b876111c6565b61120f91503d80608051833e6111eb81836125e0565b8c6110d3565b3461048b576101c56112936112846107666107746001600160a01b0361123a366126f6565b92958097999661124e9b959b939293612a6e565b506040519b8c977fd72f25930000000000000000000000000000000000000000000000000000000060208a015260248901612c13565b60208082518301019101612cac565b604051918291602083526020830190612782565b3461048b57606036600319011261048b5760043567ffffffffffffffff811161048b576112d89036906004016126c5565b906112e16124c3565b906112ea6124d9565b906112f3612a2e565b506112fc61306b565b8051906801000000000000000082116106fe576080515482608051558083106117bb575b5060808051805251939493907f290decd9548b62a8d60345a988386fc84ba6bc95484008f6362f93160ef3e563906020015b838310611797575050505060805192608051916001600160a01b038060805195169216956040945b818110611393576101c58787878151926101a884612535565b855161139f87826125e0565b600181526080515b601f198801811061171757506113be828486613213565b6101608136031261048b578751906113d58261256d565b6113de816124ef565b8252602081013560208301528881013567ffffffffffffffff811161048b5761140a9036908301612636565b89830152606081013567ffffffffffffffff811161048b5761142f9036908301612636565b60608301526080810135608083015260a081013560a083015260c081013560c083015260e081013560e083015261010081013561010083015261012081013567ffffffffffffffff811161048b5761148a9036908301612636565b6101208301526101408101359067ffffffffffffffff821161048b576114b291369101612636565b6101408201526114c1826129d7565b526114cb816129d7565b5084315a918a3b1561048b578851907f1fad948c000000000000000000000000000000000000000000000000000000008252604482018a600484015281518091526064830190602060648260051b860101930191608051905b8282106116465750505050876024830152818c8180608051940391608051905af1908161162d575b5061160b5750506115a461155e612f82565b602061156b848688613213565b8951809481927fa61935310000000000000000000000000000000000000000000000000000000083528460048401526024830190612ec8565b03818d5afa91821561043857608051926115d4575b50600192916115ce918951916103ec83612551565b0161137a565b90915060203d8111611604575b6115eb81836125e0565b6020826000928101031261042e575051906115ce6115b9565b503d6115e1565b9561046060019397610466611627949b6104605a8b319e613236565b946115ce565b608051611639916125e0565b60805161048b578b61154c565b909192936020989e9798808f9e9c9f6116fd909c9e999c6001946063198b82030187526101406116eb6116a36104ee8d51956001600160a01b038751168652888701518987015261016081880151918701526101608601906126a0565b6080850151608085015260a085015160a085015260c085015160c085015260e085015160e08501526101008501516101008501526101208501518482036101208601526126a0565b920151906101408184039101526126a0565b9601920192019092919d97969d9c999b9c9a98959a611524565b60209088979598999293999694965161172f8161256d565b608051815260805183820152606089820152606080820152608051608082015260805160a082015260805160c082015260805160e0820152608051610100820152606061012082015260606101408201528282860101520197919097969395969492946113a7565b60026020826117ac6001949a999a5186613104565b01920192019190959495611352565b6001600160ff1b03811681036106e6576001600160ff1b03831683036106e6576080516080515260011b7f290decd9548b62a8d60345a988386fc84ba6bc95484008f6362f93160ef3e563018260011b7f290decd9548b62a8d60345a988386fc84ba6bc95484008f6362f93160ef3e563015b81811061183b5750611320565b60805181556001810180546002929190611854906130b3565b80611862575b50500161182e565b601f811160011461187b575060805190555b898061185a565b61189c9082608051526001601f602060805120920160051c820191016130ed565b608080518290525160208120918190559055611874565b3461048b5760a036600319011261048b5760043567ffffffffffffffff811161048b57610120600319823603011261048b576118ed6124c3565b6118f56124d9565b9060643567ffffffffffffffff811161048b576119169036906004016126c5565b608435949167ffffffffffffffff861161048b576119ae611990946119c4936001600160a01b03989361194e8a9536906004016126c5565b9590996040519b8c9a8b9a7fb21b38c8000000000000000000000000000000000000000000000000000000008c5260a060048d015260a48c0190600401612aef565b951660248a0152166044880152868303600319016064880152612e5f565b9060031984830301608485015260805195612e5f565b0381608051305af18015610a1957608051906119eb575b6101c590604051918291826127fd565b503d80608051833e6119fd81836125e0565b81019060208183031261048b5780519067ffffffffffffffff821161048b57019080601f8301121561048b57815191611a3583612602565b91611a4360405193846125e0565b83835260208084019460071b8301019181831161048b57602001935b828510611a73575050506101c591506119db565b60808583031261048b576020608091604051611a8e81612503565b611a9788612d95565b8152611aa4838901612d95565b838201526040880151604082015260608801516060820152815201940193611a5f565b3461048b57606036600319011261048b5760043567ffffffffffffffff811161048b57611af89036906004016126c5565b90611b016124c3565b906001600160a01b03611b126124d9565b611b1a612a2e565b501690813b1561048b576040517fd12e825d0000000000000000000000000000000000000000000000000000000081526080518160048183875af1611d0d575b50611b9f6001600160a01b0391604051957ffccb5ff6000000000000000000000000000000000000000000000000000000008752606060048801526064870191612bac565b9216602484015260448301528180608051920381608051305af18015610a195760805190611bd8575b6101c5906040519182918261286b565b503d80608051833e611bea81836125e0565b81019060208183031261048b5780519067ffffffffffffffff821161048b570160608183031261048b5760405190611c2182612535565b805182526020810151602083015260408101519067ffffffffffffffff821161048b570182601f8201121561048b57805190611c5c82612602565b91611c6a60405193846125e0565b80835260208084019160051b8301019185831161048b5760208101915b838310611ca157505050506101c592506040820152611bc8565b825167ffffffffffffffff811161048b578201906040828903601f19011261048b5760405190611cd082612551565b6020830151825260408301519167ffffffffffffffff831161048b57611cfe8a602080969581960101612c6a565b83820152815201920191611c87565b608051611d19916125e0565b60805161048b5784611b5a565b3461048b5760e036600319011261048b57611d3f6124a8565b611d476124c3565b60443567ffffffffffffffff811161048b57611d679036906004016126c5565b906064359267ffffffffffffffff841161048b57610120600319853603011261048b576101c594611e2f61128494611dfa61129397611da4612a6e565b50611de56040519788947facbe911e00000000000000000000000000000000000000000000000000000000602087015260c0602487015260e4860191612bac565b83810360231901604485015290600401612aef565b6001600160a01b0385166064830152608435608483015260a43560a483015260c43560c483015203601f1981018552846125e0565b6135a4565b3461048b57608036600319011261048b5760043567ffffffffffffffff811161048b57610160600319823603011261048b57611e6e6124c3565b9060443567ffffffffffffffff811161048b57611e8f9036906004016126c5565b909260643567ffffffffffffffff811161048b57611eb19036906004016126c5565b6040959195519563ef5bfc3760e01b87526080518780611ed785858a8960048601612ea1565b0381305afa968715610a195760805197612203575b5091611f1f611f2d926001600160a01b0395946080515060405197889463ef5bfc3760e01b602087015260248601612ea1565b03601f1981018552846125e0565b1691823b1561048b57611f9992611f7e916040518095819482937fd6383f94000000000000000000000000000000000000000000000000000000008452606060048501526064840190600401612ec8565b306024840152828103600319016044840152608051966126a0565b0391608051905af190816121f1575b506121ad57611fb5612f82565b600481511115612169576001600160e01b0319611fd9611fd4836137b0565b612fb2565b167f220266b6000000000000000000000000000000000000000000000000000000008114612160577f462c71b200000000000000000000000000000000000000000000000000000000148015612157575b61214f5780516120399161382d565b8051810160c08282031261048b5761205360608301612fec565b5061206060808301612fec565b5061206d60a08301612c5d565b9160c08101519167ffffffffffffffff831161048b57612094926020809201920101612c6a565b901561214f57806020806120ad93518301019101612da9565b906120b88151612fff565b916080515b8251811015610f7f57806001600160a01b036120db600193866129fa565b5151166001600160a01b0360206120f284886129fa565b51015116604061210284886129fa565b510151604061211185886129fa565b510151916040519361212285612503565b845260208401526040830152606082015261213d82876129fa565b5261214881866129fa565b50016120bd565b602081519101fd5b5060805161202a565b50602081519101fd5b606460405162461bcd60e51b815260206004820152601d60248201527f556e657870656374656420726576657274206461746120666f726d61740000006044820152fd5b606460405162461bcd60e51b815260206004820152601c60248201527f73696d756c61746548616e646c654f70206d75737420726576657274000000006044820152fd5b6080516121fd916125e0565b82611fa8565b6001600160a01b039493919750611f2d9261222c611f1f923d80608051833e610fd481836125e0565b98929495509250611eec565b3461048b576101c56112936112846107666107746001600160a01b0361225d366126f6565b9295809799966122719b959b939293612a6e565b506040519b8c977f212eccc60000000000000000000000000000000000000000000000000000000060208a015260248901612c13565b3461048b57606036600319011261048b576122c06124a8565b6122c86124c3565b60443567ffffffffffffffff811161048b573660238201121561048b5780600401356122f381612602565b9161230160405193846125e0565b8183526024602084019260051b8201019036821161048b5760248101925b828410612478575050505080519261233684612602565b9361234460405195866125e0565b808552612353601f1991612602565b016080515b8181106124675750506001600160a01b036080519316925b82518110156123fe57600190606061238882866129fa565b516040516123ac81610e56602082019463428557b160e11b86528960248401612a0e565b5a608051926080519251918a60805191f1156123df575b6123cd82886129fa565b526123d881876129fa565b5001612370565b503d60405190602081830101604052808252608051602083013e6123c3565b846040518091602082016020835281518091526040830190602060408260051b860101930191608051905b82821061243857505050500390f35b919360019193955060206124578192603f198a820301865288516126a0565b9601920192018594939192612429565b806060602080938901015201612358565b833567ffffffffffffffff811161048b5760209161249d839260243691870101612636565b81520193019261231f565b600435906001600160a01b03821682036124be57565b600080fd5b602435906001600160a01b03821682036124be57565b604435906001600160a01b03821682036124be57565b35906001600160a01b03821682036124be57565b6080810190811067ffffffffffffffff82111761251f57604052565b634e487b7160e01b600052604160045260246000fd5b6060810190811067ffffffffffffffff82111761251f57604052565b6040810190811067ffffffffffffffff82111761251f57604052565b610160810190811067ffffffffffffffff82111761251f57604052565b60a0810190811067ffffffffffffffff82111761251f57604052565b610120810190811067ffffffffffffffff82111761251f57604052565b610100810190811067ffffffffffffffff82111761251f57604052565b90601f8019910116810190811067ffffffffffffffff82111761251f57604052565b67ffffffffffffffff811161251f5760051b60200190565b67ffffffffffffffff811161251f57601f01601f191660200190565b81601f820112156124be5780359061264d8261261a565b9261265b60405194856125e0565b828452602083830101116124be57816000926020809301838601378301015290565b60005b8381106126905750506000910152565b8181015183820152602001612680565b906020916126b98151809281855285808601910161267d565b601f01601f1916010190565b9181601f840112156124be5782359167ffffffffffffffff83116124be576020808501948460051b0101116124be57565b60e06003198201126124be576004356001600160a01b03811681036124be57916024356001600160a01b03811681036124be579160443567ffffffffffffffff81116124be5781612749916004016126c5565b929092916064359067ffffffffffffffff82116124be576101209082900360031901126124be57600401906084359060a4359060c43590565b90815160028110156127e757815260806040806127cc81602087015160a06020880152805160a08801526020810151151560c08801520151606060e08701526101008601906126a0565b94015180518285015260208101516060850152015191015290565b634e487b7160e01b600052602160045260246000fd5b602060408183019282815284518094520192019060005b8181106128215750505090565b90919260206080600192606087516001600160a01b0381511683526001600160a01b0385820151168584015260408101516040840152015160608201520194019101919091612814565b602081526040608082019280516020840152602081015182840152015191606080830152825180915260a0820191602060a08360051b8301019401926000915b8383106128ba57505050505090565b90919293946020806128e9600193609f198682030187526040838b5180518452015191818582015201906126a0565b970193019301919392906128ab565b9061010060e061295493805184526020810151602085015260408101516040850152606081015160608501526080810151608085015260a081015160a085015260c0810151151560c08501520151918160e082015201906126a0565b90565b60806003198201126124be576004356001600160a01b03811681036124be57916024356001600160a01b03811681036124be579160443567ffffffffffffffff81116124be57816129aa916004016126c5565b929092916064359067ffffffffffffffff82116124be576101209082900360031901126124be5760040190565b8051156129e45760200190565b634e487b7160e01b600052603260045260246000fd5b80518210156129e45760209160051b010190565b6040906001600160a01b03612954949316815281602082015201906126a0565b60405190612a3b82612535565b606060408360008152600060208201520152565b60405190612a5c82612535565b60006040838281528260208201520152565b60405190612a7b82612535565b8160008152612a88612a2e565b60208201526040612a97612a4f565b910152565b9035601e19823603018112156124be57016020813591019167ffffffffffffffff82116124be5781360383136124be57565b908060209392818452848401376000828201840152601f01601f1916010190565b612954916001600160a01b03612b04836124ef565b16815260208201356020820152612b9d612b91612b58612b3d612b2a6040870187612a9c565b6101206040880152610120870191612ace565b612b4a6060870187612a9c565b908683036060880152612ace565b6080850135608085015260a085013560a085015260c085013560c0850152612b8360e0860186612a9c565b9085830360e0870152612ace565b92610100810190612a9c565b91610100818503910152612ace565b90602083828152019060208160051b85010193836000915b838310612bd45750505050505090565b909192939495601f19828203018652863561011e19843603018112156124be576020612c0560019386839401612aef565b980196019493019190612bc4565b9397969592612c4890612c3a6001600160a01b039360a0989560c0895260c0890191612bac565b908682036020880152612aef565b97166040840152606083015260808201520152565b519081151582036124be57565b81601f820112156124be578051612c808161261a565b92612c8e60405194856125e0565b818452602082840101116124be57612954916020808501910161267d565b6020818303126124be5780519067ffffffffffffffff82116124be57018082039160a083126124be5760405192612ce284612535565b825160028110156124be578452602083015167ffffffffffffffff81116124be5783016060818403126124be5760405190612d1c82612535565b80518252612d2c60208201612c5d565b602083015260408101519367ffffffffffffffff85116124be57606094612d539201612c6a565b60408201526020850152603f1901126124be57608060405191612d7583612535565b604081015183526060810151602084015201516040820152604082015290565b51906001600160a01b03821682036124be57565b6020818303126124be5780519067ffffffffffffffff82116124be570181601f820112156124be57805190612ddd82612602565b92612deb60405194856125e0565b828452602060608186019402830101918183116124be57602001925b828410612e15575050505090565b6060848303126124be576020606091604051612e3081612535565b612e3987612d95565b8152612e46838801612d95565b8382015260408701516040820152815201930192612e07565b9160209082815201919060005b818110612e795750505090565b9091926020806001926001600160a01b03612e93886124ef565b168152019401929101612e6c565b9290612eba906129549593604086526040860191612e5f565b926020818503910152612e5f565b612954916001600160a01b03612edd836124ef565b16815260208201356020820152612f73612f67612f16612b3d612f036040870187612a9c565b6101606040880152610160870191612ace565b6080850135608085015260a085013560a085015260c085013560c085015260e085013560e0850152610100850135610100850152612f58610120860186612a9c565b90858303610120870152612ace565b92610140810190612a9c565b91610140818503910152612ace565b3d15612fad573d90612f938261261a565b91612fa160405193846125e0565b82523d6000602084013e565b606090565b90602082519201516001600160e01b031981169260048110612fd2575050565b6001600160e01b0319929350829060040360031b1b161690565b519065ffffffffffff821682036124be57565b9061300982612602565b61301660405191826125e0565b8281528092613027601f1991612602565b019060005b82811061303857505050565b60209060405161304781612503565b6000815260008382015260006040820152600060608201528282850101520161302c565b6040519061307a6020836125e0565b600080835282815b82811061308e57505050565b60209060405161309d81612551565b6000815260608382015282828501015201613082565b90600182811c921680156130e3575b60208310146130cd57565b634e487b7160e01b600052602260045260246000fd5b91607f16916130c2565b8181106130f8575050565b600081556001016130ed565b6001602091939293845181550192015191825167ffffffffffffffff811161251f5761313082546130b3565b601f81116131d6575b506020601f82116001146131745781929394600092613169575b50508160011b916000199060031b1c1916179055565b015190503880613153565b601f1982169083600052806000209160005b8181106131be575095836001959697106131a5575b505050811b019055565b015160001960f88460031b161c1916905538808061319b565b9192602060018192868b015181550194019201613186565b61320390836000526020600020601f840160051c81019160208510613209575b601f0160051c01906130ed565b38613139565b90915081906131f6565b91908110156129e45760051b8101359061015e19813603018212156124be570190565b9190820391821161324357565b634e487b7160e01b600052601160045260246000fd5b9190820180921161324357565b600054906801000000000000000082101561251f5760018201806000558210156129e457600080526132bc9160011b7f290decd9548b62a8d60345a988386fc84ba6bc95484008f6362f93160ef3e56301613104565b565b600054906132cb82612602565b916132d960405193846125e0565b8083526000808052907f290decd9548b62a8d60345a988386fc84ba6bc95484008f6362f93160ef3e563602085015b8284106133155750505050565b60405161332181612551565b8254815260405160018401805460009161333a826130b3565b80855291600181169081156133b3575060011461337b575b5050926002928261336960209460019703826125e0565b83820152815201920193019290613308565b6000908152602081209092505b81831061339d57505081016020018282613352565b6001816020925483868801015201920191613388565b60ff191660208087019190915292151560051b85019092019250849150839050613352565b604051906133e5826125c3565b606060e08360008152600060208201526000604082015260008382015260006080820152600060a0820152600060c08201520152565b91612954939161343391604085526040850191612bac565b916020818403910152612aef565b6020818303126124be5780519067ffffffffffffffff82116124be5701610100818303126124be5760405191613476836125c3565b815183526020820151602084015260408201516040840152606082015160608401526080820151608084015260a082015160a08401526134b860c08301612c5d565b60c084015260e082015167ffffffffffffffff81116124be576134db9201612c6a565b60e082015290565b94919260c096999897946001600160a01b0361352695816135189516895216602088015260e0604088015260e0870191612bac565b908482036060860152612aef565b95608083015260a08201520152565b91908260409103126124be5760405161354d81612551565b6020808294805184520151910152565b91908110156129e45760051b0190565b356001600160a01b03811681036124be5790565b91908110156129e45760051b8101359061011e19813603018212156124be570190565b60405163428557b160e11b602082019081526000948594859485926135d29186916107669160248401612a0e565b5a935193f1613746573d60405191602082840101604052818352602083013e60048151106136dc5763428557b160e11b6001600160e01b0319613617611fd4846137b0565b16146136725780516136289161382d565b805181016040828203126124be5761364260208301612c5d565b9160408101519167ffffffffffffffff83116124be57613669926020809201920101612c6a565b901561214f5790565b608460405162461bcd60e51b815260206004820152603d60248201527f44656c6567617465416e6452657665727420646964206e6f742072657665727460448201527f20776974682044656c6567617465416e64526576657274206572726f720000006064820152fd5b608460405162461bcd60e51b815260206004820152602a60248201527f44656c6567617465416e6452657665727420726576657274206461746120697360448201527f20746f6f2073686f7274000000000000000000000000000000000000000000006064820152fd5b608460405162461bcd60e51b815260206004820152602c60248201527f44656c6567617465416e6452657665727420646964206e6f742072657665727460448201527f20617320657870656374656400000000000000000000000000000000000000006064820152fd5b9060009160049060609381516004811115613825575b801561381d575b508281106137da57505050565b6040519450918290039101601f8201601f19165b8181015185820152601f190190811561380757906137ee565b5050604081840160006020820152016040528252565b9050386137cd565b9250826137c6565b9190600492606093815183811115613856575b600481111561381d57508281106137da57505050565b92508261384056fea26469706673582212203cb6876fc3847b6d5de111b5be1bd0cfe2573ae69f85e7a0d58754740c7bba6364736f6c634300081c0033","linkReferences":{}},"methodIdentifiers":{"binarySearchCallGas(address,address,(address,uint256,bytes,bytes,bytes32,uint256,bytes32,bytes,bytes)[],(address,uint256,bytes,bytes,bytes32,uint256,bytes32,bytes,bytes),uint256,uint256,uint256)":"71349903","binarySearchPaymasterVerificationGas(address,address,(address,uint256,bytes,bytes,bytes32,uint256,bytes32,bytes,bytes)[],(address,uint256,bytes,bytes,bytes32,uint256,bytes32,bytes,bytes),uint256,uint256,uint256)":"9f2d3789","binarySearchVerificationGas(address,address,(address,uint256,bytes,bytes,bytes32,uint256,bytes32,bytes,bytes)[],(address,uint256,bytes,bytes,bytes32,uint256,bytes32,bytes,bytes),uint256,uint256,uint256)":"2e5a0a93","filterOps06((address,uint256,bytes,bytes,uint256,uint256,uint256,uint256,uint256,bytes,bytes)[],address,address)":"959c4cb7","filterOps07((address,uint256,bytes,bytes,bytes32,uint256,bytes32,bytes,bytes)[],address,address)":"fccb5ff6","filterOps08((address,uint256,bytes,bytes,bytes32,uint256,bytes32,bytes,bytes)[],address,address)":"861d9d59","getBalances(address[],address[])":"ef5bfc37","simulateAndEstimateGas(address,address,(address,uint256,bytes,bytes,bytes32,uint256,bytes32,bytes,bytes)[],(address,uint256,bytes,bytes,bytes32,uint256,bytes32,bytes,bytes),uint256,uint256,uint256)":"a4968eab","simulateAssetChange06((address,uint256,bytes,bytes,uint256,uint256,uint256,uint256,uint256,bytes,bytes),address,address[],address[])":"685f6026","simulateAssetChange07((address,uint256,bytes,bytes,bytes32,uint256,bytes32,bytes,bytes),address,address,address[],address[])":"b21b38c8","simulateAssetChange08((address,uint256,bytes,bytes,bytes32,uint256,bytes32,bytes,bytes),address,address,address[],address[])":"90d81dfb","simulateEntryPointBulk(address,address,bytes[])":"141eb033","simulateHandleOp(address,address,(address,uint256,bytes,bytes,bytes32,uint256,bytes32,bytes,bytes)[],(address,uint256,bytes,bytes,bytes32,uint256,bytes32,bytes,bytes))":"f1143043","simulateValidation(address,address,(address,uint256,bytes,bytes,bytes32,uint256,bytes32,bytes,bytes)[],(address,uint256,bytes,bytes,bytes32,uint256,bytes32,bytes,bytes))":"de040de1"},"id":31}